{
	"data": {
		"bytecode": {
			"linkReferences": {},
			"object": "6080604052600a600b553480156200001657600080fd5b506040518060400160405280600781526020017f53616e736b6172000000000000000000000000000000000000000000000000008152506040518060400160405280600381526020017f534e52000000000000000000000000000000000000000000000000000000000081525081600390805190602001906200009b9291906200071d565b508060049080519060200190620000b49291906200071d565b5050506000600560006101000a81548160ff021916908315150217905550620000f2620000e66200013660201b60201c565b6200013e60201b60201c565b6200013033620001076200020460201b60201c565b600a62000115919062000967565b612710620001249190620009b8565b6200020d60201b60201c565b62000c67565b600033905090565b6000600560019054906101000a900473ffffffffffffffffffffffffffffffffffffffff16905081600560016101000a81548173ffffffffffffffffffffffffffffffffffffffff021916908373ffffffffffffffffffffffffffffffffffffffff1602179055508173ffffffffffffffffffffffffffffffffffffffff168173ffffffffffffffffffffffffffffffffffffffff167f8be0079c531659141344cd1fd0a4f28419497f9722a3daafe3b4186f6b6457e060405160405180910390a35050565b60006012905090565b600073ffffffffffffffffffffffffffffffffffffffff168273ffffffffffffffffffffffffffffffffffffffff16036200027f576040517f08c379a0000000000000000000000000000000000000000000000000000000008152600401620002769062000a7a565b60405180910390fd5b62000293600083836200038560201b60201c565b8060026000828254620002a7919062000a9c565b92505081905550806000808473ffffffffffffffffffffffffffffffffffffffff1673ffffffffffffffffffffffffffffffffffffffff1681526020019081526020016000206000828254620002fe919062000a9c565b925050819055508173ffffffffffffffffffffffffffffffffffffffff16600073ffffffffffffffffffffffffffffffffffffffff167fddf252ad1be2c89b69c2b068fc378daa952ba7f163c4a11628f55a4df523b3ef8360405162000365919062000b0a565b60405180910390a362000381600083836200041f60201b60201c565b5050565b620003956200042460201b60201c565b15620003d8576040517f08c379a0000000000000000000000000000000000000000000000000000000008152600401620003cf9062000b77565b60405180910390fd5b6200041a8383620003ee6200020460201b60201c565b600a620003fc919062000967565b84620004099190620009b8565b6200043b60201b620018151760201c565b505050565b505050565b6000600560009054906101000a900460ff16905090565b620004538383836200053460201b620018cd1760201c565b600073ffffffffffffffffffffffffffffffffffffffff168373ffffffffffffffffffffffffffffffffffffffff1603620004af5762000499826200053960201b60201c565b620004a96200059c60201b60201c565b6200052f565b600073ffffffffffffffffffffffffffffffffffffffff168273ffffffffffffffffffffffffffffffffffffffff16036200050b57620004f5836200053960201b60201c565b620005056200059c60201b60201c565b6200052e565b6200051c836200053960201b60201c565b6200052d826200053960201b60201c565b5b5b505050565b505050565b62000599600660008373ffffffffffffffffffffffffffffffffffffffff1673ffffffffffffffffffffffffffffffffffffffff1681526020019081526020016000206200058d83620005c060201b60201c565b6200060860201b60201c565b50565b620005be6007620005b26200069460201b60201c565b6200060860201b60201c565b565b60008060008373ffffffffffffffffffffffffffffffffffffffff1673ffffffffffffffffffffffffffffffffffffffff168152602001908152602001600020549050919050565b60006200061a6200069e60201b60201c565b9050806200063184600001620006bc60201b60201c565b10156200068f5782600001819080600181540180825580915050600190039060005260206000200160009091909190915055826001018290806001815401808255809150506001900390600052602060002001600090919091909150555b505050565b6000600254905090565b6000620006b760096200070f60201b620018d21760201c565b905090565b600080828054905003620006d457600090506200070a565b8160018380549050620006e8919062000b99565b81548110620006fc57620006fb62000bd4565b5b906000526020600020015490505b919050565b600081600001549050919050565b8280546200072b9062000c32565b90600052602060002090601f0160209004810192826200074f57600085556200079b565b82601f106200076a57805160ff19168380011785556200079b565b828001600101855582156200079b579182015b828111156200079a5782518255916020019190600101906200077d565b5b509050620007aa9190620007ae565b5090565b5b80821115620007c9576000816000905550600101620007af565b5090565b7f4e487b7100000000000000000000000000000000000000000000000000000000600052601160045260246000fd5b60008160011c9050919050565b6000808291508390505b60018511156200085b57808604811115620008335762000832620007cd565b5b6001851615620008435780820291505b80810290506200085385620007fc565b945062000813565b94509492505050565b60008262000876576001905062000949565b8162000886576000905062000949565b81600181146200089f5760028114620008aa57620008e0565b600191505062000949565b60ff841115620008bf57620008be620007cd565b5b8360020a915084821115620008d957620008d8620007cd565b5b5062000949565b5060208310610133831016604e8410600b84101617156200091a5782820a905083811115620009145762000913620007cd565b5b62000949565b62000929848484600162000809565b92509050818404811115620009435762000942620007cd565b5b81810290505b9392505050565b6000819050919050565b600060ff82169050919050565b6000620009748262000950565b915062000981836200095a565b9250620009b07fffffffffffffffffffffffffffffffffffffffffffffffffffffffffffffffff848462000864565b905092915050565b6000620009c58262000950565b9150620009d28362000950565b9250817fffffffffffffffffffffffffffffffffffffffffffffffffffffffffffffffff048311821515161562000a0e5762000a0d620007cd565b5b828202905092915050565b600082825260208201905092915050565b7f45524332303a206d696e7420746f20746865207a65726f206164647265737300600082015250565b600062000a62601f8362000a19565b915062000a6f8262000a2a565b602082019050919050565b6000602082019050818103600083015262000a958162000a53565b9050919050565b600062000aa98262000950565b915062000ab68362000950565b9250827fffffffffffffffffffffffffffffffffffffffffffffffffffffffffffffffff0382111562000aee5762000aed620007cd565b5b828201905092915050565b62000b048162000950565b82525050565b600060208201905062000b21600083018462000af9565b92915050565b7f5061757361626c653a2070617573656400000000000000000000000000000000600082015250565b600062000b5f60108362000a19565b915062000b6c8262000b27565b602082019050919050565b6000602082019050818103600083015262000b928162000b50565b9050919050565b600062000ba68262000950565b915062000bb38362000950565b92508282101562000bc95762000bc8620007cd565b5b828203905092915050565b7f4e487b7100000000000000000000000000000000000000000000000000000000600052603260045260246000fd5b7f4e487b7100000000000000000000000000000000000000000000000000000000600052602260045260246000fd5b6000600282049050600182168062000c4b57607f821691505b60208210810362000c615762000c6062000c03565b5b50919050565b613c7c8062000c776000396000f3fe608060405234801561001057600080fd5b50600436106102115760003560e01c8063715018a611610125578063981b24d0116100ad578063ced926701161007c578063ced92670146105c8578063dd62ed3e146105e4578063ef037b9014610614578063f2fde38b14610645578063f672f2c01461066157610211565b8063981b24d01461052e578063a457c2d71461055e578063a9059cbb1461058e578063c885bc58146105be57610211565b80638456cb59116100f45780638456cb59146104c25780638da5cb5b146104cc578063939624ab146104ea57806395d89b41146105065780639711715a1461052457610211565b8063715018a614610464578063795f7be91461046e57806379cc67901461048a578063833eccc5146104a657610211565b806339509351116101a857806342966c681161017757806342966c68146103c05780634ee2cd7e146103dc5780635c975abb1461040c5780636f4a2cd01461042a57806370a082311461043457610211565b8063395093511461033a5780633f4ba83a1461036a57806340c10f1914610374578063426233601461039057610211565b80631bf6ddae116101e45780631bf6ddae146102a05780631d62ebd9146102bc57806323b872dd146102ec578063313ce5671461031c57610211565b806306fdde0314610216578063079f8c2c14610234578063095ea7b31461025257806318160ddd14610282575b600080fd5b61021e61067d565b60405161022b9190612aac565b60405180910390f35b61023c61070f565b6040516102499190612ae7565b60405180910390f35b61026c60048036038101906102679190612ba0565b61071e565b6040516102799190612bfb565b60405180910390f35b61028a610741565b6040516102979190612ae7565b60405180910390f35b6102ba60048036038101906102b59190612c16565b61074b565b005b6102d660048036038101906102d19190612c43565b6108f2565b6040516102e39190612ae7565b60405180910390f35b61030660048036038101906103019190612c70565b610953565b6040516103139190612bfb565b60405180910390f35b610324610982565b6040516103319190612cdf565b60405180910390f35b610354600480360381019061034f9190612ba0565b61098b565b6040516103619190612bfb565b60405180910390f35b6103726109c2565b005b61038e60048036038101906103899190612ba0565b610a48565b005b6103aa60048036038101906103a59190612c43565b610af0565b6040516103b79190612ae7565b60405180910390f35b6103da60048036038101906103d59190612c16565b610b3c565b005b6103f660048036038101906103f19190612ba0565b610b50565b6040516104039190612ae7565b60405180910390f35b610414610bc0565b6040516104219190612bfb565b60405180910390f35b610432610bd7565b005b61044e60048036038101906104499190612c43565b610cc7565b60405161045b9190612ae7565b60405180910390f35b61046c610d0f565b005b61048860048036038101906104839190612f05565b610d97565b005b6104a4600480360381019061049f9190612ba0565b610ea1565b005b6104c060048036038101906104bb9190612f05565b610ec1565b005b6104ca610fd9565b005b6104d461105f565b6040516104e19190612f8c565b60405180910390f35b61050460048036038101906104ff9190612c16565b611089565b005b61050e6111e4565b60405161051b9190612aac565b60405180910390f35b61052c611276565b005b61054860048036038101906105439190612c16565b6112fd565b6040516105559190612ae7565b60405180910390f35b61057860048036038101906105739190612ba0565b61132e565b6040516105859190612bfb565b60405180910390f35b6105a860048036038101906105a39190612ba0565b6113a5565b6040516105b59190612bfb565b60405180910390f35b6105c66113c8565b005b6105e260048036038101906105dd9190612c16565b6114a7565b005b6105fe60048036038101906105f99190612fa7565b611535565b60405161060b9190612ae7565b60405180910390f35b61062e60048036038101906106299190612c43565b6115bc565b60405161063c929190612fe7565b60405180910390f35b61065f600480360381019061065a9190612c43565b61166f565b005b61067b60048036038101906106769190612c16565b611766565b005b60606003805461068c9061303f565b80601f01602080910402602001604051908101604052809291908181526020018280546106b89061303f565b80156107055780601f106106da57610100808354040283529160200191610705565b820191906000526020600020905b8154815290600101906020018083116106e857829003601f168201915b5050505050905090565b60006107196118e0565b905090565b6000806107296118f1565b90506107368185856118f9565b600191505092915050565b6000600254905090565b6000610755610982565b600a61076191906131d2565b8261076c919061321d565b90506107783382611ac2565b6000600c60003373ffffffffffffffffffffffffffffffffffffffff1673ffffffffffffffffffffffffffffffffffffffff16815260200190815260200160002060000154036107d0576107cb33611c98565b6107da565b6107d933611d13565b5b80600c60003373ffffffffffffffffffffffffffffffffffffffff1673ffffffffffffffffffffffffffffffffffffffff168152602001908152602001600020600001546108289190613277565b600c60003373ffffffffffffffffffffffffffffffffffffffff1673ffffffffffffffffffffffffffffffffffffffff1681526020019081526020016000206000018190555042600c60003373ffffffffffffffffffffffffffffffffffffffff1673ffffffffffffffffffffffffffffffffffffffff168152602001908152602001600020600101819055507f9e71bc8eea02a63969f509818f2dafb9254532904319f9dbda79b67bd34a5f3d33826040516108e69291906132cd565b60405180910390a15050565b6000806108fe83611daf565b905080600d60008573ffffffffffffffffffffffffffffffffffffffff1673ffffffffffffffffffffffffffffffffffffffff1681526020019081526020016000205461094b9190613277565b915050919050565b60008061095e6118f1565b905061096b858285611e86565b610976858585611f12565b60019150509392505050565b60006012905090565b6000806109966118f1565b90506109b78185856109a88589611535565b6109b29190613277565b6118f9565b600191505092915050565b6109ca6118f1565b73ffffffffffffffffffffffffffffffffffffffff166109e861105f565b73ffffffffffffffffffffffffffffffffffffffff1614610a3e576040517f08c379a0000000000000000000000000000000000000000000000000000000008152600401610a3590613342565b60405180910390fd5b610a46612191565b565b610a506118f1565b73ffffffffffffffffffffffffffffffffffffffff16610a6e61105f565b73ffffffffffffffffffffffffffffffffffffffff1614610ac4576040517f08c379a0000000000000000000000000000000000000000000000000000000008152600401610abb90613342565b60405180910390fd5b610aec82610ad0610982565b600a610adc91906131d2565b83610ae7919061321d565b612233565b5050565b6000600c60008373ffffffffffffffffffffffffffffffffffffffff1673ffffffffffffffffffffffffffffffffffffffff168152602001908152602001600020600001549050919050565b610b4d610b476118f1565b82611ac2565b50565b6000806000610b9d84600660008873ffffffffffffffffffffffffffffffffffffffff1673ffffffffffffffffffffffffffffffffffffffff168152602001908152602001600020612392565b9150915081610bb457610baf85610cc7565b610bb6565b805b9250505092915050565b6000600560009054906101000a900460ff16905090565b610bdf6118f1565b73ffffffffffffffffffffffffffffffffffffffff16610bfd61105f565b73ffffffffffffffffffffffffffffffffffffffff1614610c53576040517f08c379a0000000000000000000000000000000000000000000000000000000008152600401610c4a90613342565b60405180910390fd5b60005b600a80549050811015610cc4576000600a8281548110610c7957610c78613362565b5b9060005260206000200160009054906101000a900473ffffffffffffffffffffffffffffffffffffffff169050610caf81611d13565b50600181610cbd9190613277565b9050610c56565b50565b60008060008373ffffffffffffffffffffffffffffffffffffffff1673ffffffffffffffffffffffffffffffffffffffff168152602001908152602001600020549050919050565b610d176118f1565b73ffffffffffffffffffffffffffffffffffffffff16610d3561105f565b73ffffffffffffffffffffffffffffffffffffffff1614610d8b576040517f08c379a0000000000000000000000000000000000000000000000000000000008152600401610d8290613342565b60405180910390fd5b610d956000612487565b565b610d9f6118f1565b73ffffffffffffffffffffffffffffffffffffffff16610dbd61105f565b73ffffffffffffffffffffffffffffffffffffffff1614610e13576040517f08c379a0000000000000000000000000000000000000000000000000000000008152600401610e0a90613342565b60405180910390fd5b8051825114610e2157600080fd5b60005b8251811015610e9c57610e89838281518110610e4357610e42613362565b5b6020026020010151610e53610982565b600a610e5f91906131d2565b848481518110610e7257610e71613362565b5b6020026020010151610e84919061321d565b612233565b8080610e9490613391565b915050610e24565b505050565b610eb382610ead6118f1565b83611e86565b610ebd8282611ac2565b5050565b610ec96118f1565b73ffffffffffffffffffffffffffffffffffffffff16610ee761105f565b73ffffffffffffffffffffffffffffffffffffffff1614610f3d576040517f08c379a0000000000000000000000000000000000000000000000000000000008152600401610f3490613342565b60405180910390fd5b8051825114610f4b57600080fd5b60005b8151811015610fd4576000610f616118f1565b9050610fc081858481518110610f7a57610f79613362565b5b6020026020010151610f8a610982565b600a610f9691906131d2565b868681518110610fa957610fa8613362565b5b6020026020010151610fbb919061321d565b611f12565b508080610fcc90613391565b915050610f4e565b505050565b610fe16118f1565b73ffffffffffffffffffffffffffffffffffffffff16610fff61105f565b73ffffffffffffffffffffffffffffffffffffffff1614611055576040517f08c379a000000000000000000000000000000000000000000000000000000000815260040161104c90613342565b60405180910390fd5b61105d61254d565b565b6000600560019054906101000a900473ffffffffffffffffffffffffffffffffffffffff16905090565b6000611093610982565b600a61109f91906131d2565b826110aa919061321d565b90506110b533611d13565b80600c60003373ffffffffffffffffffffffffffffffffffffffff1673ffffffffffffffffffffffffffffffffffffffff1681526020019081526020016000206000015461110391906133d9565b600c60003373ffffffffffffffffffffffffffffffffffffffff1673ffffffffffffffffffffffffffffffffffffffff168152602001908152602001600020600001819055506000600c60003373ffffffffffffffffffffffffffffffffffffffff1673ffffffffffffffffffffffffffffffffffffffff168152602001908152602001600020600001540361119d5761119c336125f0565b5b6111a73382612233565b7f0f5bb82176feb1b5e747e28471aa92156a04d9f3ab9f45f28e2d704232b93f7533826040516111d89291906132cd565b60405180910390a15050565b6060600480546111f39061303f565b80601f016020809104026020016040519081016040528092919081815260200182805461121f9061303f565b801561126c5780601f106112415761010080835404028352916020019161126c565b820191906000526020600020905b81548152906001019060200180831161124f57829003601f168201915b5050505050905090565b61127e6118f1565b73ffffffffffffffffffffffffffffffffffffffff1661129c61105f565b73ffffffffffffffffffffffffffffffffffffffff16146112f2576040517f08c379a00000000000000000000000000000000000000000000000000000000081526004016112e990613342565b60405180910390fd5b6112fa6126ff565b50565b600080600061130d846007612392565b91509150816113235761131e610741565b611325565b805b92505050919050565b6000806113396118f1565b905060006113478286611535565b90508381101561138c576040517f08c379a00000000000000000000000000000000000000000000000000000000081526004016113839061347f565b60405180910390fd5b61139982868684036118f9565b60019250505092915050565b6000806113b06118f1565b90506113bd818585611f12565b600191505092915050565b60006113d3336108f2565b90506000600d60003373ffffffffffffffffffffffffffffffffffffffff1673ffffffffffffffffffffffffffffffffffffffff1681526020019081526020016000208190555042600c60003373ffffffffffffffffffffffffffffffffffffffff1673ffffffffffffffffffffffffffffffffffffffff1681526020019081526020016000206001018190555061146b3382612233565b7f1d3eee4ca001cff39eec6ec7615aacf2f2bd61791273830728ba00ccbd6e1337338260405161149c9291906132cd565b60405180910390a150565b6114af6118f1565b73ffffffffffffffffffffffffffffffffffffffff166114cd61105f565b73ffffffffffffffffffffffffffffffffffffffff1614611523576040517f08c379a000000000000000000000000000000000000000000000000000000000815260040161151a90613342565b60405180910390fd5b61152b610bd7565b80600b8190555050565b6000600160008473ffffffffffffffffffffffffffffffffffffffff1673ffffffffffffffffffffffffffffffffffffffff16815260200190815260200160002060008373ffffffffffffffffffffffffffffffffffffffff1673ffffffffffffffffffffffffffffffffffffffff16815260200190815260200160002054905092915050565b60008060005b600a8054905081101561166157600a81815481106115e3576115e2613362565b5b9060005260206000200160009054906101000a900473ffffffffffffffffffffffffffffffffffffffff1673ffffffffffffffffffffffffffffffffffffffff168473ffffffffffffffffffffffffffffffffffffffff160361164d57600181925092505061166a565b60018161165a9190613277565b90506115c2565b50600080915091505b915091565b6116776118f1565b73ffffffffffffffffffffffffffffffffffffffff1661169561105f565b73ffffffffffffffffffffffffffffffffffffffff16146116eb576040517f08c379a00000000000000000000000000000000000000000000000000000000081526004016116e290613342565b60405180910390fd5b600073ffffffffffffffffffffffffffffffffffffffff168173ffffffffffffffffffffffffffffffffffffffff160361175a576040517f08c379a000000000000000000000000000000000000000000000000000000000815260040161175190613511565b60405180910390fd5b61176381612487565b50565b61176e6118f1565b73ffffffffffffffffffffffffffffffffffffffff1661178c61105f565b73ffffffffffffffffffffffffffffffffffffffff16146117e2576040517f08c379a00000000000000000000000000000000000000000000000000000000081526004016117d990613342565b60405180910390fd5b611812306117ee6118f1565b6117f6610982565b600a61180291906131d2565b8461180d919061321d565b611f12565b50565b6118208383836118cd565b600073ffffffffffffffffffffffffffffffffffffffff168373ffffffffffffffffffffffffffffffffffffffff160361186a5761185d82612755565b6118656127a8565b6118c8565b600073ffffffffffffffffffffffffffffffffffffffff168273ffffffffffffffffffffffffffffffffffffffff16036118b4576118a783612755565b6118af6127a8565b6118c7565b6118bd83612755565b6118c682612755565b5b5b505050565b505050565b600081600001549050919050565b60006118ec60096118d2565b905090565b600033905090565b600073ffffffffffffffffffffffffffffffffffffffff168373ffffffffffffffffffffffffffffffffffffffff1603611968576040517f08c379a000000000000000000000000000000000000000000000000000000000815260040161195f906135a3565b60405180910390fd5b600073ffffffffffffffffffffffffffffffffffffffff168273ffffffffffffffffffffffffffffffffffffffff16036119d7576040517f08c379a00000000000000000000000000000000000000000000000000000000081526004016119ce90613635565b60405180910390fd5b80600160008573ffffffffffffffffffffffffffffffffffffffff1673ffffffffffffffffffffffffffffffffffffffff16815260200190815260200160002060008473ffffffffffffffffffffffffffffffffffffffff1673ffffffffffffffffffffffffffffffffffffffff168152602001908152602001600020819055508173ffffffffffffffffffffffffffffffffffffffff168373ffffffffffffffffffffffffffffffffffffffff167f8c5be1e5ebec7d5bd14f71427d1e84f3dd0314c0f7b2291e5b200ac8c7c3b92583604051611ab59190612ae7565b60405180910390a3505050565b600073ffffffffffffffffffffffffffffffffffffffff168273ffffffffffffffffffffffffffffffffffffffff1603611b31576040517f08c379a0000000000000000000000000000000000000000000000000000000008152600401611b28906136c7565b60405180910390fd5b611b3d826000836127bc565b60008060008473ffffffffffffffffffffffffffffffffffffffff1673ffffffffffffffffffffffffffffffffffffffff16815260200190815260200160002054905081811015611bc3576040517f08c379a0000000000000000000000000000000000000000000000000000000008152600401611bba90613759565b60405180910390fd5b8181036000808573ffffffffffffffffffffffffffffffffffffffff1673ffffffffffffffffffffffffffffffffffffffff168152602001908152602001600020819055508160026000828254611c1a91906133d9565b92505081905550600073ffffffffffffffffffffffffffffffffffffffff168373ffffffffffffffffffffffffffffffffffffffff167fddf252ad1be2c89b69c2b068fc378daa952ba7f163c4a11628f55a4df523b3ef84604051611c7f9190612ae7565b60405180910390a3611c9383600084612832565b505050565b6000611ca3826115bc565b50905080611d0f57600a829080600181540180825580915050600190039060005260206000200160009091909190916101000a81548173ffffffffffffffffffffffffffffffffffffffff021916908373ffffffffffffffffffffffffffffffffffffffff1602179055505b5050565b6000611d1e826108f2565b905080600d60008473ffffffffffffffffffffffffffffffffffffffff1673ffffffffffffffffffffffffffffffffffffffff1681526020019081526020016000208190555042600c60008473ffffffffffffffffffffffffffffffffffffffff1673ffffffffffffffffffffffffffffffffffffffff168152602001908152602001600020600101819055505050565b600080600c60008473ffffffffffffffffffffffffffffffffffffffff1673ffffffffffffffffffffffffffffffffffffffff1681526020019081526020016000206001015442611e0091906133d9565b905060006301e133806064600b5484600c60008973ffffffffffffffffffffffffffffffffffffffff1673ffffffffffffffffffffffffffffffffffffffff16815260200190815260200160002060000154611e5c919061321d565b611e66919061321d565b611e7091906137a8565b611e7a91906137a8565b90508092505050919050565b6000611e928484611535565b90507fffffffffffffffffffffffffffffffffffffffffffffffffffffffffffffffff8114611f0c5781811015611efe576040517f08c379a0000000000000000000000000000000000000000000000000000000008152600401611ef590613825565b60405180910390fd5b611f0b84848484036118f9565b5b50505050565b600073ffffffffffffffffffffffffffffffffffffffff168373ffffffffffffffffffffffffffffffffffffffff1603611f81576040517f08c379a0000000000000000000000000000000000000000000000000000000008152600401611f78906138b7565b60405180910390fd5b600073ffffffffffffffffffffffffffffffffffffffff168273ffffffffffffffffffffffffffffffffffffffff1603611ff0576040517f08c379a0000000000000000000000000000000000000000000000000000000008152600401611fe790613949565b60405180910390fd5b611ffb8383836127bc565b60008060008573ffffffffffffffffffffffffffffffffffffffff1673ffffffffffffffffffffffffffffffffffffffff16815260200190815260200160002054905081811015612081576040517f08c379a0000000000000000000000000000000000000000000000000000000008152600401612078906139db565b60405180910390fd5b8181036000808673ffffffffffffffffffffffffffffffffffffffff1673ffffffffffffffffffffffffffffffffffffffff16815260200190815260200160002081905550816000808573ffffffffffffffffffffffffffffffffffffffff1673ffffffffffffffffffffffffffffffffffffffff16815260200190815260200160002060008282546121149190613277565b925050819055508273ffffffffffffffffffffffffffffffffffffffff168473ffffffffffffffffffffffffffffffffffffffff167fddf252ad1be2c89b69c2b068fc378daa952ba7f163c4a11628f55a4df523b3ef846040516121789190612ae7565b60405180910390a361218b848484612832565b50505050565b612199610bc0565b6121d8576040517f08c379a00000000000000000000000000000000000000000000000000000000081526004016121cf90613a47565b60405180910390fd5b6000600560006101000a81548160ff0219169083151502179055507f5db9ee0a495bf2e6ff9c91a7834c1ba4fdd244a5e8aa4e537bd38aeae4b073aa61221c6118f1565b6040516122299190612f8c565b60405180910390a1565b600073ffffffffffffffffffffffffffffffffffffffff168273ffffffffffffffffffffffffffffffffffffffff16036122a2576040517f08c379a000000000000000000000000000000000000000000000000000000000815260040161229990613ab3565b60405180910390fd5b6122ae600083836127bc565b80600260008282546122c09190613277565b92505081905550806000808473ffffffffffffffffffffffffffffffffffffffff1673ffffffffffffffffffffffffffffffffffffffff16815260200190815260200160002060008282546123159190613277565b925050819055508173ffffffffffffffffffffffffffffffffffffffff16600073ffffffffffffffffffffffffffffffffffffffff167fddf252ad1be2c89b69c2b068fc378daa952ba7f163c4a11628f55a4df523b3ef8360405161237a9190612ae7565b60405180910390a361238e60008383612832565b5050565b600080600084116123d8576040517f08c379a00000000000000000000000000000000000000000000000000000000081526004016123cf90613b1f565b60405180910390fd5b6123e06118e0565b841115612422576040517f08c379a000000000000000000000000000000000000000000000000000000000815260040161241990613b8b565b60405180910390fd5b600061243a858560000161283790919063ffffffff16565b905083600001805490508103612457576000809250925050612480565b600184600101828154811061246f5761246e613362565b5b906000526020600020015492509250505b9250929050565b6000600560019054906101000a900473ffffffffffffffffffffffffffffffffffffffff16905081600560016101000a81548173ffffffffffffffffffffffffffffffffffffffff021916908373ffffffffffffffffffffffffffffffffffffffff1602179055508173ffffffffffffffffffffffffffffffffffffffff168173ffffffffffffffffffffffffffffffffffffffff167f8be0079c531659141344cd1fd0a4f28419497f9722a3daafe3b4186f6b6457e060405160405180910390a35050565b612555610bc0565b15612595576040517f08c379a000000000000000000000000000000000000000000000000000000000815260040161258c90613bf7565b60405180910390fd5b6001600560006101000a81548160ff0219169083151502179055507f62e78cea01bee320cd4e420270b5ea74000d11b0c9f74754ebdbfc544b05a2586125d96118f1565b6040516125e69190612f8c565b60405180910390a1565b6000806125fc836115bc565b9150915081156126fa57600a6001600a8054905061261a91906133d9565b8154811061262b5761262a613362565b5b9060005260206000200160009054906101000a900473ffffffffffffffffffffffffffffffffffffffff16600a828154811061266a57612669613362565b5b9060005260206000200160006101000a81548173ffffffffffffffffffffffffffffffffffffffff021916908373ffffffffffffffffffffffffffffffffffffffff160217905550600a8054806126c4576126c3613c17565b5b6001900381819060005260206000200160006101000a81549073ffffffffffffffffffffffffffffffffffffffff021916905590555b505050565b600061270b6009612910565b60006127156118e0565b90507f8030e83b04d87bef53480e26263266d6ca66863aa8506aca6f2559d18aa1cb67816040516127469190612ae7565b60405180910390a18091505090565b6127a5600660008373ffffffffffffffffffffffffffffffffffffffff1673ffffffffffffffffffffffffffffffffffffffff1681526020019081526020016000206127a083610cc7565b612926565b50565b6127ba60076127b5610741565b612926565b565b6127c4610bc0565b15612804576040517f08c379a00000000000000000000000000000000000000000000000000000000081526004016127fb90613bf7565b60405180910390fd5b61282d8383612811610982565b600a61281d91906131d2565b84612828919061321d565b611815565b505050565b505050565b60008083805490500361284d576000905061290a565b600080848054905090505b808210156128b157600061286c83836129a1565b90508486828154811061288257612881613362565b5b9060005260206000200154111561289b578091506128ab565b6001816128a89190613277565b92505b50612858565b6000821180156128e9575083856001846128cb91906133d9565b815481106128dc576128db613362565b5b9060005260206000200154145b15612904576001826128fb91906133d9565b9250505061290a565b81925050505b92915050565b6001816000016000828254019250508190555050565b60006129306118e0565b90508061293f846000016129c7565b101561299c5782600001819080600181540180825580915050600190039060005260206000200160009091909190915055826001018290806001815401808255809150506001900390600052602060002001600090919091909150555b505050565b600060028284186129b291906137a8565b8284166129bf9190613277565b905092915050565b6000808280549050036129dd5760009050612a0e565b81600183805490506129ef91906133d9565b81548110612a00576129ff613362565b5b906000526020600020015490505b919050565b600081519050919050565b600082825260208201905092915050565b60005b83811015612a4d578082015181840152602081019050612a32565b83811115612a5c576000848401525b50505050565b6000601f19601f8301169050919050565b6000612a7e82612a13565b612a888185612a1e565b9350612a98818560208601612a2f565b612aa181612a62565b840191505092915050565b60006020820190508181036000830152612ac68184612a73565b905092915050565b6000819050919050565b612ae181612ace565b82525050565b6000602082019050612afc6000830184612ad8565b92915050565b6000604051905090565b600080fd5b600080fd5b600073ffffffffffffffffffffffffffffffffffffffff82169050919050565b6000612b4182612b16565b9050919050565b612b5181612b36565b8114612b5c57600080fd5b50565b600081359050612b6e81612b48565b92915050565b612b7d81612ace565b8114612b8857600080fd5b50565b600081359050612b9a81612b74565b92915050565b60008060408385031215612bb757612bb6612b0c565b5b6000612bc585828601612b5f565b9250506020612bd685828601612b8b565b9150509250929050565b60008115159050919050565b612bf581612be0565b82525050565b6000602082019050612c106000830184612bec565b92915050565b600060208284031215612c2c57612c2b612b0c565b5b6000612c3a84828501612b8b565b91505092915050565b600060208284031215612c5957612c58612b0c565b5b6000612c6784828501612b5f565b91505092915050565b600080600060608486031215612c8957612c88612b0c565b5b6000612c9786828701612b5f565b9350506020612ca886828701612b5f565b9250506040612cb986828701612b8b565b9150509250925092565b600060ff82169050919050565b612cd981612cc3565b82525050565b6000602082019050612cf46000830184612cd0565b92915050565b600080fd5b7f4e487b7100000000000000000000000000000000000000000000000000000000600052604160045260246000fd5b612d3782612a62565b810181811067ffffffffffffffff82111715612d5657612d55612cff565b5b80604052505050565b6000612d69612b02565b9050612d758282612d2e565b919050565b600067ffffffffffffffff821115612d9557612d94612cff565b5b602082029050602081019050919050565b600080fd5b6000612dbe612db984612d7a565b612d5f565b90508083825260208201905060208402830185811115612de157612de0612da6565b5b835b81811015612e0a5780612df68882612b5f565b845260208401935050602081019050612de3565b5050509392505050565b600082601f830112612e2957612e28612cfa565b5b8135612e39848260208601612dab565b91505092915050565b600067ffffffffffffffff821115612e5d57612e5c612cff565b5b602082029050602081019050919050565b6000612e81612e7c84612e42565b612d5f565b90508083825260208201905060208402830185811115612ea457612ea3612da6565b5b835b81811015612ecd5780612eb98882612b8b565b845260208401935050602081019050612ea6565b5050509392505050565b600082601f830112612eec57612eeb612cfa565b5b8135612efc848260208601612e6e565b91505092915050565b60008060408385031215612f1c57612f1b612b0c565b5b600083013567ffffffffffffffff811115612f3a57612f39612b11565b5b612f4685828601612e14565b925050602083013567ffffffffffffffff811115612f6757612f66612b11565b5b612f7385828601612ed7565b9150509250929050565b612f8681612b36565b82525050565b6000602082019050612fa16000830184612f7d565b92915050565b60008060408385031215612fbe57612fbd612b0c565b5b6000612fcc85828601612b5f565b9250506020612fdd85828601612b5f565b9150509250929050565b6000604082019050612ffc6000830185612bec565b6130096020830184612ad8565b9392505050565b7f4e487b7100000000000000000000000000000000000000000000000000000000600052602260045260246000fd5b6000600282049050600182168061305757607f821691505b60208210810361306a57613069613010565b5b50919050565b7f4e487b7100000000000000000000000000000000000000000000000000000000600052601160045260246000fd5b60008160011c9050919050565b6000808291508390505b60018511156130f6578086048111156130d2576130d1613070565b5b60018516156130e15780820291505b80810290506130ef8561309f565b94506130b6565b94509492505050565b60008261310f57600190506131cb565b8161311d57600090506131cb565b8160018114613133576002811461313d5761316c565b60019150506131cb565b60ff84111561314f5761314e613070565b5b8360020a91508482111561316657613165613070565b5b506131cb565b5060208310610133831016604e8410600b84101617156131a15782820a90508381111561319c5761319b613070565b5b6131cb565b6131ae84848460016130ac565b925090508184048111156131c5576131c4613070565b5b81810290505b9392505050565b60006131dd82612ace565b91506131e883612cc3565b92506132157fffffffffffffffffffffffffffffffffffffffffffffffffffffffffffffffff84846130ff565b905092915050565b600061322882612ace565b915061323383612ace565b9250817fffffffffffffffffffffffffffffffffffffffffffffffffffffffffffffffff048311821515161561326c5761326b613070565b5b828202905092915050565b600061328282612ace565b915061328d83612ace565b9250827fffffffffffffffffffffffffffffffffffffffffffffffffffffffffffffffff038211156132c2576132c1613070565b5b828201905092915050565b60006040820190506132e26000830185612f7d565b6132ef6020830184612ad8565b9392505050565b7f4f776e61626c653a2063616c6c6572206973206e6f7420746865206f776e6572600082015250565b600061332c602083612a1e565b9150613337826132f6565b602082019050919050565b6000602082019050818103600083015261335b8161331f565b9050919050565b7f4e487b7100000000000000000000000000000000000000000000000000000000600052603260045260246000fd5b600061339c82612ace565b91507fffffffffffffffffffffffffffffffffffffffffffffffffffffffffffffffff82036133ce576133cd613070565b5b600182019050919050565b60006133e482612ace565b91506133ef83612ace565b92508282101561340257613401613070565b5b828203905092915050565b7f45524332303a2064656372656173656420616c6c6f77616e63652062656c6f7760008201527f207a65726f000000000000000000000000000000000000000000000000000000602082015250565b6000613469602583612a1e565b91506134748261340d565b604082019050919050565b600060208201905081810360008301526134988161345c565b9050919050565b7f4f776e61626c653a206e6577206f776e657220697320746865207a65726f206160008201527f6464726573730000000000000000000000000000000000000000000000000000602082015250565b60006134fb602683612a1e565b91506135068261349f565b604082019050919050565b6000602082019050818103600083015261352a816134ee565b9050919050565b7f45524332303a20617070726f76652066726f6d20746865207a65726f2061646460008201527f7265737300000000000000000000000000000000000000000000000000000000602082015250565b600061358d602483612a1e565b915061359882613531565b604082019050919050565b600060208201905081810360008301526135bc81613580565b9050919050565b7f45524332303a20617070726f766520746f20746865207a65726f20616464726560008201527f7373000000000000000000000000000000000000000000000000000000000000602082015250565b600061361f602283612a1e565b915061362a826135c3565b604082019050919050565b6000602082019050818103600083015261364e81613612565b9050919050565b7f45524332303a206275726e2066726f6d20746865207a65726f2061646472657360008201527f7300000000000000000000000000000000000000000000000000000000000000602082015250565b60006136b1602183612a1e565b91506136bc82613655565b604082019050919050565b600060208201905081810360008301526136e0816136a4565b9050919050565b7f45524332303a206275726e20616d6f756e7420657863656564732062616c616e60008201527f6365000000000000000000000000000000000000000000000000000000000000602082015250565b6000613743602283612a1e565b915061374e826136e7565b604082019050919050565b6000602082019050818103600083015261377281613736565b9050919050565b7f4e487b7100000000000000000000000000000000000000000000000000000000600052601260045260246000fd5b60006137b382612ace565b91506137be83612ace565b9250826137ce576137cd613779565b5b828204905092915050565b7f45524332303a20696e73756666696369656e7420616c6c6f77616e6365000000600082015250565b600061380f601d83612a1e565b915061381a826137d9565b602082019050919050565b6000602082019050818103600083015261383e81613802565b9050919050565b7f45524332303a207472616e736665722066726f6d20746865207a65726f20616460008201527f6472657373000000000000000000000000000000000000000000000000000000602082015250565b60006138a1602583612a1e565b91506138ac82613845565b604082019050919050565b600060208201905081810360008301526138d081613894565b9050919050565b7f45524332303a207472616e7366657220746f20746865207a65726f206164647260008201527f6573730000000000000000000000000000000000000000000000000000000000602082015250565b6000613933602383612a1e565b915061393e826138d7565b604082019050919050565b6000602082019050818103600083015261396281613926565b9050919050565b7f45524332303a207472616e7366657220616d6f756e742065786365656473206260008201527f616c616e63650000000000000000000000000000000000000000000000000000602082015250565b60006139c5602683612a1e565b91506139d082613969565b604082019050919050565b600060208201905081810360008301526139f4816139b8565b9050919050565b7f5061757361626c653a206e6f7420706175736564000000000000000000000000600082015250565b6000613a31601483612a1e565b9150613a3c826139fb565b602082019050919050565b60006020820190508181036000830152613a6081613a24565b9050919050565b7f45524332303a206d696e7420746f20746865207a65726f206164647265737300600082015250565b6000613a9d601f83612a1e565b9150613aa882613a67565b602082019050919050565b60006020820190508181036000830152613acc81613a90565b9050919050565b7f4552433230536e617073686f743a206964206973203000000000000000000000600082015250565b6000613b09601683612a1e565b9150613b1482613ad3565b602082019050919050565b60006020820190508181036000830152613b3881613afc565b9050919050565b7f4552433230536e617073686f743a206e6f6e6578697374656e74206964000000600082015250565b6000613b75601d83612a1e565b9150613b8082613b3f565b602082019050919050565b60006020820190508181036000830152613ba481613b68565b9050919050565b7f5061757361626c653a2070617573656400000000000000000000000000000000600082015250565b6000613be1601083612a1e565b9150613bec82613bab565b602082019050919050565b60006020820190508181036000830152613c1081613bd4565b9050919050565b7f4e487b7100000000000000000000000000000000000000000000000000000000600052603160045260246000fdfea2646970667358221220ebc804e3c3030e96cde27b823d3abfdca9963c068efaf7fad01cc7aaed7db79864736f6c634300080e0033",
			"opcodes": "PUSH1 0x80 PUSH1 0x40 MSTORE PUSH1 0xA PUSH1 0xB SSTORE CALLVALUE DUP1 ISZERO PUSH3 0x16 JUMPI PUSH1 0x0 DUP1 REVERT JUMPDEST POP PUSH1 0x40 MLOAD DUP1 PUSH1 0x40 ADD PUSH1 0x40 MSTORE DUP1 PUSH1 0x7 DUP2 MSTORE PUSH1 0x20 ADD PUSH32 0x53616E736B617200000000000000000000000000000000000000000000000000 DUP2 MSTORE POP PUSH1 0x40 MLOAD DUP1 PUSH1 0x40 ADD PUSH1 0x40 MSTORE DUP1 PUSH1 0x3 DUP2 MSTORE PUSH1 0x20 ADD PUSH32 0x534E520000000000000000000000000000000000000000000000000000000000 DUP2 MSTORE POP DUP2 PUSH1 0x3 SWAP1 DUP1 MLOAD SWAP1 PUSH1 0x20 ADD SWAP1 PUSH3 0x9B SWAP3 SWAP2 SWAP1 PUSH3 0x71D JUMP JUMPDEST POP DUP1 PUSH1 0x4 SWAP1 DUP1 MLOAD SWAP1 PUSH1 0x20 ADD SWAP1 PUSH3 0xB4 SWAP3 SWAP2 SWAP1 PUSH3 0x71D JUMP JUMPDEST POP POP POP PUSH1 0x0 PUSH1 0x5 PUSH1 0x0 PUSH2 0x100 EXP DUP2 SLOAD DUP2 PUSH1 0xFF MUL NOT AND SWAP1 DUP4 ISZERO ISZERO MUL OR SWAP1 SSTORE POP PUSH3 0xF2 PUSH3 0xE6 PUSH3 0x136 PUSH1 0x20 SHL PUSH1 0x20 SHR JUMP JUMPDEST PUSH3 0x13E PUSH1 0x20 SHL PUSH1 0x20 SHR JUMP JUMPDEST PUSH3 0x130 CALLER PUSH3 0x107 PUSH3 0x204 PUSH1 0x20 SHL PUSH1 0x20 SHR JUMP JUMPDEST PUSH1 0xA PUSH3 0x115 SWAP2 SWAP1 PUSH3 0x967 JUMP JUMPDEST PUSH2 0x2710 PUSH3 0x124 SWAP2 SWAP1 PUSH3 0x9B8 JUMP JUMPDEST PUSH3 0x20D PUSH1 0x20 SHL PUSH1 0x20 SHR JUMP JUMPDEST PUSH3 0xC67 JUMP JUMPDEST PUSH1 0x0 CALLER SWAP1 POP SWAP1 JUMP JUMPDEST PUSH1 0x0 PUSH1 0x5 PUSH1 0x1 SWAP1 SLOAD SWAP1 PUSH2 0x100 EXP SWAP1 DIV PUSH20 0xFFFFFFFFFFFFFFFFFFFFFFFFFFFFFFFFFFFFFFFF AND SWAP1 POP DUP2 PUSH1 0x5 PUSH1 0x1 PUSH2 0x100 EXP DUP2 SLOAD DUP2 PUSH20 0xFFFFFFFFFFFFFFFFFFFFFFFFFFFFFFFFFFFFFFFF MUL NOT AND SWAP1 DUP4 PUSH20 0xFFFFFFFFFFFFFFFFFFFFFFFFFFFFFFFFFFFFFFFF AND MUL OR SWAP1 SSTORE POP DUP2 PUSH20 0xFFFFFFFFFFFFFFFFFFFFFFFFFFFFFFFFFFFFFFFF AND DUP2 PUSH20 0xFFFFFFFFFFFFFFFFFFFFFFFFFFFFFFFFFFFFFFFF AND PUSH32 0x8BE0079C531659141344CD1FD0A4F28419497F9722A3DAAFE3B4186F6B6457E0 PUSH1 0x40 MLOAD PUSH1 0x40 MLOAD DUP1 SWAP2 SUB SWAP1 LOG3 POP POP JUMP JUMPDEST PUSH1 0x0 PUSH1 0x12 SWAP1 POP SWAP1 JUMP JUMPDEST PUSH1 0x0 PUSH20 0xFFFFFFFFFFFFFFFFFFFFFFFFFFFFFFFFFFFFFFFF AND DUP3 PUSH20 0xFFFFFFFFFFFFFFFFFFFFFFFFFFFFFFFFFFFFFFFF AND SUB PUSH3 0x27F JUMPI PUSH1 0x40 MLOAD PUSH32 0x8C379A000000000000000000000000000000000000000000000000000000000 DUP2 MSTORE PUSH1 0x4 ADD PUSH3 0x276 SWAP1 PUSH3 0xA7A JUMP JUMPDEST PUSH1 0x40 MLOAD DUP1 SWAP2 SUB SWAP1 REVERT JUMPDEST PUSH3 0x293 PUSH1 0x0 DUP4 DUP4 PUSH3 0x385 PUSH1 0x20 SHL PUSH1 0x20 SHR JUMP JUMPDEST DUP1 PUSH1 0x2 PUSH1 0x0 DUP3 DUP3 SLOAD PUSH3 0x2A7 SWAP2 SWAP1 PUSH3 0xA9C JUMP JUMPDEST SWAP3 POP POP DUP2 SWAP1 SSTORE POP DUP1 PUSH1 0x0 DUP1 DUP5 PUSH20 0xFFFFFFFFFFFFFFFFFFFFFFFFFFFFFFFFFFFFFFFF AND PUSH20 0xFFFFFFFFFFFFFFFFFFFFFFFFFFFFFFFFFFFFFFFF AND DUP2 MSTORE PUSH1 0x20 ADD SWAP1 DUP2 MSTORE PUSH1 0x20 ADD PUSH1 0x0 KECCAK256 PUSH1 0x0 DUP3 DUP3 SLOAD PUSH3 0x2FE SWAP2 SWAP1 PUSH3 0xA9C JUMP JUMPDEST SWAP3 POP POP DUP2 SWAP1 SSTORE POP DUP2 PUSH20 0xFFFFFFFFFFFFFFFFFFFFFFFFFFFFFFFFFFFFFFFF AND PUSH1 0x0 PUSH20 0xFFFFFFFFFFFFFFFFFFFFFFFFFFFFFFFFFFFFFFFF AND PUSH32 0xDDF252AD1BE2C89B69C2B068FC378DAA952BA7F163C4A11628F55A4DF523B3EF DUP4 PUSH1 0x40 MLOAD PUSH3 0x365 SWAP2 SWAP1 PUSH3 0xB0A JUMP JUMPDEST PUSH1 0x40 MLOAD DUP1 SWAP2 SUB SWAP1 LOG3 PUSH3 0x381 PUSH1 0x0 DUP4 DUP4 PUSH3 0x41F PUSH1 0x20 SHL PUSH1 0x20 SHR JUMP JUMPDEST POP POP JUMP JUMPDEST PUSH3 0x395 PUSH3 0x424 PUSH1 0x20 SHL PUSH1 0x20 SHR JUMP JUMPDEST ISZERO PUSH3 0x3D8 JUMPI PUSH1 0x40 MLOAD PUSH32 0x8C379A000000000000000000000000000000000000000000000000000000000 DUP2 MSTORE PUSH1 0x4 ADD PUSH3 0x3CF SWAP1 PUSH3 0xB77 JUMP JUMPDEST PUSH1 0x40 MLOAD DUP1 SWAP2 SUB SWAP1 REVERT JUMPDEST PUSH3 0x41A DUP4 DUP4 PUSH3 0x3EE PUSH3 0x204 PUSH1 0x20 SHL PUSH1 0x20 SHR JUMP JUMPDEST PUSH1 0xA PUSH3 0x3FC SWAP2 SWAP1 PUSH3 0x967 JUMP JUMPDEST DUP5 PUSH3 0x409 SWAP2 SWAP1 PUSH3 0x9B8 JUMP JUMPDEST PUSH3 0x43B PUSH1 0x20 SHL PUSH3 0x1815 OR PUSH1 0x20 SHR JUMP JUMPDEST POP POP POP JUMP JUMPDEST POP POP POP JUMP JUMPDEST PUSH1 0x0 PUSH1 0x5 PUSH1 0x0 SWAP1 SLOAD SWAP1 PUSH2 0x100 EXP SWAP1 DIV PUSH1 0xFF AND SWAP1 POP SWAP1 JUMP JUMPDEST PUSH3 0x453 DUP4 DUP4 DUP4 PUSH3 0x534 PUSH1 0x20 SHL PUSH3 0x18CD OR PUSH1 0x20 SHR JUMP JUMPDEST PUSH1 0x0 PUSH20 0xFFFFFFFFFFFFFFFFFFFFFFFFFFFFFFFFFFFFFFFF AND DUP4 PUSH20 0xFFFFFFFFFFFFFFFFFFFFFFFFFFFFFFFFFFFFFFFF AND SUB PUSH3 0x4AF JUMPI PUSH3 0x499 DUP3 PUSH3 0x539 PUSH1 0x20 SHL PUSH1 0x20 SHR JUMP JUMPDEST PUSH3 0x4A9 PUSH3 0x59C PUSH1 0x20 SHL PUSH1 0x20 SHR JUMP JUMPDEST PUSH3 0x52F JUMP JUMPDEST PUSH1 0x0 PUSH20 0xFFFFFFFFFFFFFFFFFFFFFFFFFFFFFFFFFFFFFFFF AND DUP3 PUSH20 0xFFFFFFFFFFFFFFFFFFFFFFFFFFFFFFFFFFFFFFFF AND SUB PUSH3 0x50B JUMPI PUSH3 0x4F5 DUP4 PUSH3 0x539 PUSH1 0x20 SHL PUSH1 0x20 SHR JUMP JUMPDEST PUSH3 0x505 PUSH3 0x59C PUSH1 0x20 SHL PUSH1 0x20 SHR JUMP JUMPDEST PUSH3 0x52E JUMP JUMPDEST PUSH3 0x51C DUP4 PUSH3 0x539 PUSH1 0x20 SHL PUSH1 0x20 SHR JUMP JUMPDEST PUSH3 0x52D DUP3 PUSH3 0x539 PUSH1 0x20 SHL PUSH1 0x20 SHR JUMP JUMPDEST JUMPDEST JUMPDEST POP POP POP JUMP JUMPDEST POP POP POP JUMP JUMPDEST PUSH3 0x599 PUSH1 0x6 PUSH1 0x0 DUP4 PUSH20 0xFFFFFFFFFFFFFFFFFFFFFFFFFFFFFFFFFFFFFFFF AND PUSH20 0xFFFFFFFFFFFFFFFFFFFFFFFFFFFFFFFFFFFFFFFF AND DUP2 MSTORE PUSH1 0x20 ADD SWAP1 DUP2 MSTORE PUSH1 0x20 ADD PUSH1 0x0 KECCAK256 PUSH3 0x58D DUP4 PUSH3 0x5C0 PUSH1 0x20 SHL PUSH1 0x20 SHR JUMP JUMPDEST PUSH3 0x608 PUSH1 0x20 SHL PUSH1 0x20 SHR JUMP JUMPDEST POP JUMP JUMPDEST PUSH3 0x5BE PUSH1 0x7 PUSH3 0x5B2 PUSH3 0x694 PUSH1 0x20 SHL PUSH1 0x20 SHR JUMP JUMPDEST PUSH3 0x608 PUSH1 0x20 SHL PUSH1 0x20 SHR JUMP JUMPDEST JUMP JUMPDEST PUSH1 0x0 DUP1 PUSH1 0x0 DUP4 PUSH20 0xFFFFFFFFFFFFFFFFFFFFFFFFFFFFFFFFFFFFFFFF AND PUSH20 0xFFFFFFFFFFFFFFFFFFFFFFFFFFFFFFFFFFFFFFFF AND DUP2 MSTORE PUSH1 0x20 ADD SWAP1 DUP2 MSTORE PUSH1 0x20 ADD PUSH1 0x0 KECCAK256 SLOAD SWAP1 POP SWAP2 SWAP1 POP JUMP JUMPDEST PUSH1 0x0 PUSH3 0x61A PUSH3 0x69E PUSH1 0x20 SHL PUSH1 0x20 SHR JUMP JUMPDEST SWAP1 POP DUP1 PUSH3 0x631 DUP5 PUSH1 0x0 ADD PUSH3 0x6BC PUSH1 0x20 SHL PUSH1 0x20 SHR JUMP JUMPDEST LT ISZERO PUSH3 0x68F JUMPI DUP3 PUSH1 0x0 ADD DUP2 SWAP1 DUP1 PUSH1 0x1 DUP2 SLOAD ADD DUP1 DUP3 SSTORE DUP1 SWAP2 POP POP PUSH1 0x1 SWAP1 SUB SWAP1 PUSH1 0x0 MSTORE PUSH1 0x20 PUSH1 0x0 KECCAK256 ADD PUSH1 0x0 SWAP1 SWAP2 SWAP1 SWAP2 SWAP1 SWAP2 POP SSTORE DUP3 PUSH1 0x1 ADD DUP3 SWAP1 DUP1 PUSH1 0x1 DUP2 SLOAD ADD DUP1 DUP3 SSTORE DUP1 SWAP2 POP POP PUSH1 0x1 SWAP1 SUB SWAP1 PUSH1 0x0 MSTORE PUSH1 0x20 PUSH1 0x0 KECCAK256 ADD PUSH1 0x0 SWAP1 SWAP2 SWAP1 SWAP2 SWAP1 SWAP2 POP SSTORE JUMPDEST POP POP POP JUMP JUMPDEST PUSH1 0x0 PUSH1 0x2 SLOAD SWAP1 POP SWAP1 JUMP JUMPDEST PUSH1 0x0 PUSH3 0x6B7 PUSH1 0x9 PUSH3 0x70F PUSH1 0x20 SHL PUSH3 0x18D2 OR PUSH1 0x20 SHR JUMP JUMPDEST SWAP1 POP SWAP1 JUMP JUMPDEST PUSH1 0x0 DUP1 DUP3 DUP1 SLOAD SWAP1 POP SUB PUSH3 0x6D4 JUMPI PUSH1 0x0 SWAP1 POP PUSH3 0x70A JUMP JUMPDEST DUP2 PUSH1 0x1 DUP4 DUP1 SLOAD SWAP1 POP PUSH3 0x6E8 SWAP2 SWAP1 PUSH3 0xB99 JUMP JUMPDEST DUP2 SLOAD DUP2 LT PUSH3 0x6FC JUMPI PUSH3 0x6FB PUSH3 0xBD4 JUMP JUMPDEST JUMPDEST SWAP1 PUSH1 0x0 MSTORE PUSH1 0x20 PUSH1 0x0 KECCAK256 ADD SLOAD SWAP1 POP JUMPDEST SWAP2 SWAP1 POP JUMP JUMPDEST PUSH1 0x0 DUP2 PUSH1 0x0 ADD SLOAD SWAP1 POP SWAP2 SWAP1 POP JUMP JUMPDEST DUP3 DUP1 SLOAD PUSH3 0x72B SWAP1 PUSH3 0xC32 JUMP JUMPDEST SWAP1 PUSH1 0x0 MSTORE PUSH1 0x20 PUSH1 0x0 KECCAK256 SWAP1 PUSH1 0x1F ADD PUSH1 0x20 SWAP1 DIV DUP2 ADD SWAP3 DUP3 PUSH3 0x74F JUMPI PUSH1 0x0 DUP6 SSTORE PUSH3 0x79B JUMP JUMPDEST DUP3 PUSH1 0x1F LT PUSH3 0x76A JUMPI DUP1 MLOAD PUSH1 0xFF NOT AND DUP4 DUP1 ADD OR DUP6 SSTORE PUSH3 0x79B JUMP JUMPDEST DUP3 DUP1 ADD PUSH1 0x1 ADD DUP6 SSTORE DUP3 ISZERO PUSH3 0x79B JUMPI SWAP2 DUP3 ADD JUMPDEST DUP3 DUP2 GT ISZERO PUSH3 0x79A JUMPI DUP3 MLOAD DUP3 SSTORE SWAP2 PUSH1 0x20 ADD SWAP2 SWAP1 PUSH1 0x1 ADD SWAP1 PUSH3 0x77D JUMP JUMPDEST JUMPDEST POP SWAP1 POP PUSH3 0x7AA SWAP2 SWAP1 PUSH3 0x7AE JUMP JUMPDEST POP SWAP1 JUMP JUMPDEST JUMPDEST DUP1 DUP3 GT ISZERO PUSH3 0x7C9 JUMPI PUSH1 0x0 DUP2 PUSH1 0x0 SWAP1 SSTORE POP PUSH1 0x1 ADD PUSH3 0x7AF JUMP JUMPDEST POP SWAP1 JUMP JUMPDEST PUSH32 0x4E487B7100000000000000000000000000000000000000000000000000000000 PUSH1 0x0 MSTORE PUSH1 0x11 PUSH1 0x4 MSTORE PUSH1 0x24 PUSH1 0x0 REVERT JUMPDEST PUSH1 0x0 DUP2 PUSH1 0x1 SHR SWAP1 POP SWAP2 SWAP1 POP JUMP JUMPDEST PUSH1 0x0 DUP1 DUP3 SWAP2 POP DUP4 SWAP1 POP JUMPDEST PUSH1 0x1 DUP6 GT ISZERO PUSH3 0x85B JUMPI DUP1 DUP7 DIV DUP2 GT ISZERO PUSH3 0x833 JUMPI PUSH3 0x832 PUSH3 0x7CD JUMP JUMPDEST JUMPDEST PUSH1 0x1 DUP6 AND ISZERO PUSH3 0x843 JUMPI DUP1 DUP3 MUL SWAP2 POP JUMPDEST DUP1 DUP2 MUL SWAP1 POP PUSH3 0x853 DUP6 PUSH3 0x7FC JUMP JUMPDEST SWAP5 POP PUSH3 0x813 JUMP JUMPDEST SWAP5 POP SWAP5 SWAP3 POP POP POP JUMP JUMPDEST PUSH1 0x0 DUP3 PUSH3 0x876 JUMPI PUSH1 0x1 SWAP1 POP PUSH3 0x949 JUMP JUMPDEST DUP2 PUSH3 0x886 JUMPI PUSH1 0x0 SWAP1 POP PUSH3 0x949 JUMP JUMPDEST DUP2 PUSH1 0x1 DUP2 EQ PUSH3 0x89F JUMPI PUSH1 0x2 DUP2 EQ PUSH3 0x8AA JUMPI PUSH3 0x8E0 JUMP JUMPDEST PUSH1 0x1 SWAP2 POP POP PUSH3 0x949 JUMP JUMPDEST PUSH1 0xFF DUP5 GT ISZERO PUSH3 0x8BF JUMPI PUSH3 0x8BE PUSH3 0x7CD JUMP JUMPDEST JUMPDEST DUP4 PUSH1 0x2 EXP SWAP2 POP DUP5 DUP3 GT ISZERO PUSH3 0x8D9 JUMPI PUSH3 0x8D8 PUSH3 0x7CD JUMP JUMPDEST JUMPDEST POP PUSH3 0x949 JUMP JUMPDEST POP PUSH1 0x20 DUP4 LT PUSH2 0x133 DUP4 LT AND PUSH1 0x4E DUP5 LT PUSH1 0xB DUP5 LT AND OR ISZERO PUSH3 0x91A JUMPI DUP3 DUP3 EXP SWAP1 POP DUP4 DUP2 GT ISZERO PUSH3 0x914 JUMPI PUSH3 0x913 PUSH3 0x7CD JUMP JUMPDEST JUMPDEST PUSH3 0x949 JUMP JUMPDEST PUSH3 0x929 DUP5 DUP5 DUP5 PUSH1 0x1 PUSH3 0x809 JUMP JUMPDEST SWAP3 POP SWAP1 POP DUP2 DUP5 DIV DUP2 GT ISZERO PUSH3 0x943 JUMPI PUSH3 0x942 PUSH3 0x7CD JUMP JUMPDEST JUMPDEST DUP2 DUP2 MUL SWAP1 POP JUMPDEST SWAP4 SWAP3 POP POP POP JUMP JUMPDEST PUSH1 0x0 DUP2 SWAP1 POP SWAP2 SWAP1 POP JUMP JUMPDEST PUSH1 0x0 PUSH1 0xFF DUP3 AND SWAP1 POP SWAP2 SWAP1 POP JUMP JUMPDEST PUSH1 0x0 PUSH3 0x974 DUP3 PUSH3 0x950 JUMP JUMPDEST SWAP2 POP PUSH3 0x981 DUP4 PUSH3 0x95A JUMP JUMPDEST SWAP3 POP PUSH3 0x9B0 PUSH32 0xFFFFFFFFFFFFFFFFFFFFFFFFFFFFFFFFFFFFFFFFFFFFFFFFFFFFFFFFFFFFFFFF DUP5 DUP5 PUSH3 0x864 JUMP JUMPDEST SWAP1 POP SWAP3 SWAP2 POP POP JUMP JUMPDEST PUSH1 0x0 PUSH3 0x9C5 DUP3 PUSH3 0x950 JUMP JUMPDEST SWAP2 POP PUSH3 0x9D2 DUP4 PUSH3 0x950 JUMP JUMPDEST SWAP3 POP DUP2 PUSH32 0xFFFFFFFFFFFFFFFFFFFFFFFFFFFFFFFFFFFFFFFFFFFFFFFFFFFFFFFFFFFFFFFF DIV DUP4 GT DUP3 ISZERO ISZERO AND ISZERO PUSH3 0xA0E JUMPI PUSH3 0xA0D PUSH3 0x7CD JUMP JUMPDEST JUMPDEST DUP3 DUP3 MUL SWAP1 POP SWAP3 SWAP2 POP POP JUMP JUMPDEST PUSH1 0x0 DUP3 DUP3 MSTORE PUSH1 0x20 DUP3 ADD SWAP1 POP SWAP3 SWAP2 POP POP JUMP JUMPDEST PUSH32 0x45524332303A206D696E7420746F20746865207A65726F206164647265737300 PUSH1 0x0 DUP3 ADD MSTORE POP JUMP JUMPDEST PUSH1 0x0 PUSH3 0xA62 PUSH1 0x1F DUP4 PUSH3 0xA19 JUMP JUMPDEST SWAP2 POP PUSH3 0xA6F DUP3 PUSH3 0xA2A JUMP JUMPDEST PUSH1 0x20 DUP3 ADD SWAP1 POP SWAP2 SWAP1 POP JUMP JUMPDEST PUSH1 0x0 PUSH1 0x20 DUP3 ADD SWAP1 POP DUP2 DUP2 SUB PUSH1 0x0 DUP4 ADD MSTORE PUSH3 0xA95 DUP2 PUSH3 0xA53 JUMP JUMPDEST SWAP1 POP SWAP2 SWAP1 POP JUMP JUMPDEST PUSH1 0x0 PUSH3 0xAA9 DUP3 PUSH3 0x950 JUMP JUMPDEST SWAP2 POP PUSH3 0xAB6 DUP4 PUSH3 0x950 JUMP JUMPDEST SWAP3 POP DUP3 PUSH32 0xFFFFFFFFFFFFFFFFFFFFFFFFFFFFFFFFFFFFFFFFFFFFFFFFFFFFFFFFFFFFFFFF SUB DUP3 GT ISZERO PUSH3 0xAEE JUMPI PUSH3 0xAED PUSH3 0x7CD JUMP JUMPDEST JUMPDEST DUP3 DUP3 ADD SWAP1 POP SWAP3 SWAP2 POP POP JUMP JUMPDEST PUSH3 0xB04 DUP2 PUSH3 0x950 JUMP JUMPDEST DUP3 MSTORE POP POP JUMP JUMPDEST PUSH1 0x0 PUSH1 0x20 DUP3 ADD SWAP1 POP PUSH3 0xB21 PUSH1 0x0 DUP4 ADD DUP5 PUSH3 0xAF9 JUMP JUMPDEST SWAP3 SWAP2 POP POP JUMP JUMPDEST PUSH32 0x5061757361626C653A2070617573656400000000000000000000000000000000 PUSH1 0x0 DUP3 ADD MSTORE POP JUMP JUMPDEST PUSH1 0x0 PUSH3 0xB5F PUSH1 0x10 DUP4 PUSH3 0xA19 JUMP JUMPDEST SWAP2 POP PUSH3 0xB6C DUP3 PUSH3 0xB27 JUMP JUMPDEST PUSH1 0x20 DUP3 ADD SWAP1 POP SWAP2 SWAP1 POP JUMP JUMPDEST PUSH1 0x0 PUSH1 0x20 DUP3 ADD SWAP1 POP DUP2 DUP2 SUB PUSH1 0x0 DUP4 ADD MSTORE PUSH3 0xB92 DUP2 PUSH3 0xB50 JUMP JUMPDEST SWAP1 POP SWAP2 SWAP1 POP JUMP JUMPDEST PUSH1 0x0 PUSH3 0xBA6 DUP3 PUSH3 0x950 JUMP JUMPDEST SWAP2 POP PUSH3 0xBB3 DUP4 PUSH3 0x950 JUMP JUMPDEST SWAP3 POP DUP3 DUP3 LT ISZERO PUSH3 0xBC9 JUMPI PUSH3 0xBC8 PUSH3 0x7CD JUMP JUMPDEST JUMPDEST DUP3 DUP3 SUB SWAP1 POP SWAP3 SWAP2 POP POP JUMP JUMPDEST PUSH32 0x4E487B7100000000000000000000000000000000000000000000000000000000 PUSH1 0x0 MSTORE PUSH1 0x32 PUSH1 0x4 MSTORE PUSH1 0x24 PUSH1 0x0 REVERT JUMPDEST PUSH32 0x4E487B7100000000000000000000000000000000000000000000000000000000 PUSH1 0x0 MSTORE PUSH1 0x22 PUSH1 0x4 MSTORE PUSH1 0x24 PUSH1 0x0 REVERT JUMPDEST PUSH1 0x0 PUSH1 0x2 DUP3 DIV SWAP1 POP PUSH1 0x1 DUP3 AND DUP1 PUSH3 0xC4B JUMPI PUSH1 0x7F DUP3 AND SWAP2 POP JUMPDEST PUSH1 0x20 DUP3 LT DUP2 SUB PUSH3 0xC61 JUMPI PUSH3 0xC60 PUSH3 0xC03 JUMP JUMPDEST JUMPDEST POP SWAP2 SWAP1 POP JUMP JUMPDEST PUSH2 0x3C7C DUP1 PUSH3 0xC77 PUSH1 0x0 CODECOPY PUSH1 0x0 RETURN INVALID PUSH1 0x80 PUSH1 0x40 MSTORE CALLVALUE DUP1 ISZERO PUSH2 0x10 JUMPI PUSH1 0x0 DUP1 REVERT JUMPDEST POP PUSH1 0x4 CALLDATASIZE LT PUSH2 0x211 JUMPI PUSH1 0x0 CALLDATALOAD PUSH1 0xE0 SHR DUP1 PUSH4 0x715018A6 GT PUSH2 0x125 JUMPI DUP1 PUSH4 0x981B24D0 GT PUSH2 0xAD JUMPI DUP1 PUSH4 0xCED92670 GT PUSH2 0x7C JUMPI DUP1 PUSH4 0xCED92670 EQ PUSH2 0x5C8 JUMPI DUP1 PUSH4 0xDD62ED3E EQ PUSH2 0x5E4 JUMPI DUP1 PUSH4 0xEF037B90 EQ PUSH2 0x614 JUMPI DUP1 PUSH4 0xF2FDE38B EQ PUSH2 0x645 JUMPI DUP1 PUSH4 0xF672F2C0 EQ PUSH2 0x661 JUMPI PUSH2 0x211 JUMP JUMPDEST DUP1 PUSH4 0x981B24D0 EQ PUSH2 0x52E JUMPI DUP1 PUSH4 0xA457C2D7 EQ PUSH2 0x55E JUMPI DUP1 PUSH4 0xA9059CBB EQ PUSH2 0x58E JUMPI DUP1 PUSH4 0xC885BC58 EQ PUSH2 0x5BE JUMPI PUSH2 0x211 JUMP JUMPDEST DUP1 PUSH4 0x8456CB59 GT PUSH2 0xF4 JUMPI DUP1 PUSH4 0x8456CB59 EQ PUSH2 0x4C2 JUMPI DUP1 PUSH4 0x8DA5CB5B EQ PUSH2 0x4CC JUMPI DUP1 PUSH4 0x939624AB EQ PUSH2 0x4EA JUMPI DUP1 PUSH4 0x95D89B41 EQ PUSH2 0x506 JUMPI DUP1 PUSH4 0x9711715A EQ PUSH2 0x524 JUMPI PUSH2 0x211 JUMP JUMPDEST DUP1 PUSH4 0x715018A6 EQ PUSH2 0x464 JUMPI DUP1 PUSH4 0x795F7BE9 EQ PUSH2 0x46E JUMPI DUP1 PUSH4 0x79CC6790 EQ PUSH2 0x48A JUMPI DUP1 PUSH4 0x833ECCC5 EQ PUSH2 0x4A6 JUMPI PUSH2 0x211 JUMP JUMPDEST DUP1 PUSH4 0x39509351 GT PUSH2 0x1A8 JUMPI DUP1 PUSH4 0x42966C68 GT PUSH2 0x177 JUMPI DUP1 PUSH4 0x42966C68 EQ PUSH2 0x3C0 JUMPI DUP1 PUSH4 0x4EE2CD7E EQ PUSH2 0x3DC JUMPI DUP1 PUSH4 0x5C975ABB EQ PUSH2 0x40C JUMPI DUP1 PUSH4 0x6F4A2CD0 EQ PUSH2 0x42A JUMPI DUP1 PUSH4 0x70A08231 EQ PUSH2 0x434 JUMPI PUSH2 0x211 JUMP JUMPDEST DUP1 PUSH4 0x39509351 EQ PUSH2 0x33A JUMPI DUP1 PUSH4 0x3F4BA83A EQ PUSH2 0x36A JUMPI DUP1 PUSH4 0x40C10F19 EQ PUSH2 0x374 JUMPI DUP1 PUSH4 0x42623360 EQ PUSH2 0x390 JUMPI PUSH2 0x211 JUMP JUMPDEST DUP1 PUSH4 0x1BF6DDAE GT PUSH2 0x1E4 JUMPI DUP1 PUSH4 0x1BF6DDAE EQ PUSH2 0x2A0 JUMPI DUP1 PUSH4 0x1D62EBD9 EQ PUSH2 0x2BC JUMPI DUP1 PUSH4 0x23B872DD EQ PUSH2 0x2EC JUMPI DUP1 PUSH4 0x313CE567 EQ PUSH2 0x31C JUMPI PUSH2 0x211 JUMP JUMPDEST DUP1 PUSH4 0x6FDDE03 EQ PUSH2 0x216 JUMPI DUP1 PUSH4 0x79F8C2C EQ PUSH2 0x234 JUMPI DUP1 PUSH4 0x95EA7B3 EQ PUSH2 0x252 JUMPI DUP1 PUSH4 0x18160DDD EQ PUSH2 0x282 JUMPI JUMPDEST PUSH1 0x0 DUP1 REVERT JUMPDEST PUSH2 0x21E PUSH2 0x67D JUMP JUMPDEST PUSH1 0x40 MLOAD PUSH2 0x22B SWAP2 SWAP1 PUSH2 0x2AAC JUMP JUMPDEST PUSH1 0x40 MLOAD DUP1 SWAP2 SUB SWAP1 RETURN JUMPDEST PUSH2 0x23C PUSH2 0x70F JUMP JUMPDEST PUSH1 0x40 MLOAD PUSH2 0x249 SWAP2 SWAP1 PUSH2 0x2AE7 JUMP JUMPDEST PUSH1 0x40 MLOAD DUP1 SWAP2 SUB SWAP1 RETURN JUMPDEST PUSH2 0x26C PUSH1 0x4 DUP1 CALLDATASIZE SUB DUP2 ADD SWAP1 PUSH2 0x267 SWAP2 SWAP1 PUSH2 0x2BA0 JUMP JUMPDEST PUSH2 0x71E JUMP JUMPDEST PUSH1 0x40 MLOAD PUSH2 0x279 SWAP2 SWAP1 PUSH2 0x2BFB JUMP JUMPDEST PUSH1 0x40 MLOAD DUP1 SWAP2 SUB SWAP1 RETURN JUMPDEST PUSH2 0x28A PUSH2 0x741 JUMP JUMPDEST PUSH1 0x40 MLOAD PUSH2 0x297 SWAP2 SWAP1 PUSH2 0x2AE7 JUMP JUMPDEST PUSH1 0x40 MLOAD DUP1 SWAP2 SUB SWAP1 RETURN JUMPDEST PUSH2 0x2BA PUSH1 0x4 DUP1 CALLDATASIZE SUB DUP2 ADD SWAP1 PUSH2 0x2B5 SWAP2 SWAP1 PUSH2 0x2C16 JUMP JUMPDEST PUSH2 0x74B JUMP JUMPDEST STOP JUMPDEST PUSH2 0x2D6 PUSH1 0x4 DUP1 CALLDATASIZE SUB DUP2 ADD SWAP1 PUSH2 0x2D1 SWAP2 SWAP1 PUSH2 0x2C43 JUMP JUMPDEST PUSH2 0x8F2 JUMP JUMPDEST PUSH1 0x40 MLOAD PUSH2 0x2E3 SWAP2 SWAP1 PUSH2 0x2AE7 JUMP JUMPDEST PUSH1 0x40 MLOAD DUP1 SWAP2 SUB SWAP1 RETURN JUMPDEST PUSH2 0x306 PUSH1 0x4 DUP1 CALLDATASIZE SUB DUP2 ADD SWAP1 PUSH2 0x301 SWAP2 SWAP1 PUSH2 0x2C70 JUMP JUMPDEST PUSH2 0x953 JUMP JUMPDEST PUSH1 0x40 MLOAD PUSH2 0x313 SWAP2 SWAP1 PUSH2 0x2BFB JUMP JUMPDEST PUSH1 0x40 MLOAD DUP1 SWAP2 SUB SWAP1 RETURN JUMPDEST PUSH2 0x324 PUSH2 0x982 JUMP JUMPDEST PUSH1 0x40 MLOAD PUSH2 0x331 SWAP2 SWAP1 PUSH2 0x2CDF JUMP JUMPDEST PUSH1 0x40 MLOAD DUP1 SWAP2 SUB SWAP1 RETURN JUMPDEST PUSH2 0x354 PUSH1 0x4 DUP1 CALLDATASIZE SUB DUP2 ADD SWAP1 PUSH2 0x34F SWAP2 SWAP1 PUSH2 0x2BA0 JUMP JUMPDEST PUSH2 0x98B JUMP JUMPDEST PUSH1 0x40 MLOAD PUSH2 0x361 SWAP2 SWAP1 PUSH2 0x2BFB JUMP JUMPDEST PUSH1 0x40 MLOAD DUP1 SWAP2 SUB SWAP1 RETURN JUMPDEST PUSH2 0x372 PUSH2 0x9C2 JUMP JUMPDEST STOP JUMPDEST PUSH2 0x38E PUSH1 0x4 DUP1 CALLDATASIZE SUB DUP2 ADD SWAP1 PUSH2 0x389 SWAP2 SWAP1 PUSH2 0x2BA0 JUMP JUMPDEST PUSH2 0xA48 JUMP JUMPDEST STOP JUMPDEST PUSH2 0x3AA PUSH1 0x4 DUP1 CALLDATASIZE SUB DUP2 ADD SWAP1 PUSH2 0x3A5 SWAP2 SWAP1 PUSH2 0x2C43 JUMP JUMPDEST PUSH2 0xAF0 JUMP JUMPDEST PUSH1 0x40 MLOAD PUSH2 0x3B7 SWAP2 SWAP1 PUSH2 0x2AE7 JUMP JUMPDEST PUSH1 0x40 MLOAD DUP1 SWAP2 SUB SWAP1 RETURN JUMPDEST PUSH2 0x3DA PUSH1 0x4 DUP1 CALLDATASIZE SUB DUP2 ADD SWAP1 PUSH2 0x3D5 SWAP2 SWAP1 PUSH2 0x2C16 JUMP JUMPDEST PUSH2 0xB3C JUMP JUMPDEST STOP JUMPDEST PUSH2 0x3F6 PUSH1 0x4 DUP1 CALLDATASIZE SUB DUP2 ADD SWAP1 PUSH2 0x3F1 SWAP2 SWAP1 PUSH2 0x2BA0 JUMP JUMPDEST PUSH2 0xB50 JUMP JUMPDEST PUSH1 0x40 MLOAD PUSH2 0x403 SWAP2 SWAP1 PUSH2 0x2AE7 JUMP JUMPDEST PUSH1 0x40 MLOAD DUP1 SWAP2 SUB SWAP1 RETURN JUMPDEST PUSH2 0x414 PUSH2 0xBC0 JUMP JUMPDEST PUSH1 0x40 MLOAD PUSH2 0x421 SWAP2 SWAP1 PUSH2 0x2BFB JUMP JUMPDEST PUSH1 0x40 MLOAD DUP1 SWAP2 SUB SWAP1 RETURN JUMPDEST PUSH2 0x432 PUSH2 0xBD7 JUMP JUMPDEST STOP JUMPDEST PUSH2 0x44E PUSH1 0x4 DUP1 CALLDATASIZE SUB DUP2 ADD SWAP1 PUSH2 0x449 SWAP2 SWAP1 PUSH2 0x2C43 JUMP JUMPDEST PUSH2 0xCC7 JUMP JUMPDEST PUSH1 0x40 MLOAD PUSH2 0x45B SWAP2 SWAP1 PUSH2 0x2AE7 JUMP JUMPDEST PUSH1 0x40 MLOAD DUP1 SWAP2 SUB SWAP1 RETURN JUMPDEST PUSH2 0x46C PUSH2 0xD0F JUMP JUMPDEST STOP JUMPDEST PUSH2 0x488 PUSH1 0x4 DUP1 CALLDATASIZE SUB DUP2 ADD SWAP1 PUSH2 0x483 SWAP2 SWAP1 PUSH2 0x2F05 JUMP JUMPDEST PUSH2 0xD97 JUMP JUMPDEST STOP JUMPDEST PUSH2 0x4A4 PUSH1 0x4 DUP1 CALLDATASIZE SUB DUP2 ADD SWAP1 PUSH2 0x49F SWAP2 SWAP1 PUSH2 0x2BA0 JUMP JUMPDEST PUSH2 0xEA1 JUMP JUMPDEST STOP JUMPDEST PUSH2 0x4C0 PUSH1 0x4 DUP1 CALLDATASIZE SUB DUP2 ADD SWAP1 PUSH2 0x4BB SWAP2 SWAP1 PUSH2 0x2F05 JUMP JUMPDEST PUSH2 0xEC1 JUMP JUMPDEST STOP JUMPDEST PUSH2 0x4CA PUSH2 0xFD9 JUMP JUMPDEST STOP JUMPDEST PUSH2 0x4D4 PUSH2 0x105F JUMP JUMPDEST PUSH1 0x40 MLOAD PUSH2 0x4E1 SWAP2 SWAP1 PUSH2 0x2F8C JUMP JUMPDEST PUSH1 0x40 MLOAD DUP1 SWAP2 SUB SWAP1 RETURN JUMPDEST PUSH2 0x504 PUSH1 0x4 DUP1 CALLDATASIZE SUB DUP2 ADD SWAP1 PUSH2 0x4FF SWAP2 SWAP1 PUSH2 0x2C16 JUMP JUMPDEST PUSH2 0x1089 JUMP JUMPDEST STOP JUMPDEST PUSH2 0x50E PUSH2 0x11E4 JUMP JUMPDEST PUSH1 0x40 MLOAD PUSH2 0x51B SWAP2 SWAP1 PUSH2 0x2AAC JUMP JUMPDEST PUSH1 0x40 MLOAD DUP1 SWAP2 SUB SWAP1 RETURN JUMPDEST PUSH2 0x52C PUSH2 0x1276 JUMP JUMPDEST STOP JUMPDEST PUSH2 0x548 PUSH1 0x4 DUP1 CALLDATASIZE SUB DUP2 ADD SWAP1 PUSH2 0x543 SWAP2 SWAP1 PUSH2 0x2C16 JUMP JUMPDEST PUSH2 0x12FD JUMP JUMPDEST PUSH1 0x40 MLOAD PUSH2 0x555 SWAP2 SWAP1 PUSH2 0x2AE7 JUMP JUMPDEST PUSH1 0x40 MLOAD DUP1 SWAP2 SUB SWAP1 RETURN JUMPDEST PUSH2 0x578 PUSH1 0x4 DUP1 CALLDATASIZE SUB DUP2 ADD SWAP1 PUSH2 0x573 SWAP2 SWAP1 PUSH2 0x2BA0 JUMP JUMPDEST PUSH2 0x132E JUMP JUMPDEST PUSH1 0x40 MLOAD PUSH2 0x585 SWAP2 SWAP1 PUSH2 0x2BFB JUMP JUMPDEST PUSH1 0x40 MLOAD DUP1 SWAP2 SUB SWAP1 RETURN JUMPDEST PUSH2 0x5A8 PUSH1 0x4 DUP1 CALLDATASIZE SUB DUP2 ADD SWAP1 PUSH2 0x5A3 SWAP2 SWAP1 PUSH2 0x2BA0 JUMP JUMPDEST PUSH2 0x13A5 JUMP JUMPDEST PUSH1 0x40 MLOAD PUSH2 0x5B5 SWAP2 SWAP1 PUSH2 0x2BFB JUMP JUMPDEST PUSH1 0x40 MLOAD DUP1 SWAP2 SUB SWAP1 RETURN JUMPDEST PUSH2 0x5C6 PUSH2 0x13C8 JUMP JUMPDEST STOP JUMPDEST PUSH2 0x5E2 PUSH1 0x4 DUP1 CALLDATASIZE SUB DUP2 ADD SWAP1 PUSH2 0x5DD SWAP2 SWAP1 PUSH2 0x2C16 JUMP JUMPDEST PUSH2 0x14A7 JUMP JUMPDEST STOP JUMPDEST PUSH2 0x5FE PUSH1 0x4 DUP1 CALLDATASIZE SUB DUP2 ADD SWAP1 PUSH2 0x5F9 SWAP2 SWAP1 PUSH2 0x2FA7 JUMP JUMPDEST PUSH2 0x1535 JUMP JUMPDEST PUSH1 0x40 MLOAD PUSH2 0x60B SWAP2 SWAP1 PUSH2 0x2AE7 JUMP JUMPDEST PUSH1 0x40 MLOAD DUP1 SWAP2 SUB SWAP1 RETURN JUMPDEST PUSH2 0x62E PUSH1 0x4 DUP1 CALLDATASIZE SUB DUP2 ADD SWAP1 PUSH2 0x629 SWAP2 SWAP1 PUSH2 0x2C43 JUMP JUMPDEST PUSH2 0x15BC JUMP JUMPDEST PUSH1 0x40 MLOAD PUSH2 0x63C SWAP3 SWAP2 SWAP1 PUSH2 0x2FE7 JUMP JUMPDEST PUSH1 0x40 MLOAD DUP1 SWAP2 SUB SWAP1 RETURN JUMPDEST PUSH2 0x65F PUSH1 0x4 DUP1 CALLDATASIZE SUB DUP2 ADD SWAP1 PUSH2 0x65A SWAP2 SWAP1 PUSH2 0x2C43 JUMP JUMPDEST PUSH2 0x166F JUMP JUMPDEST STOP JUMPDEST PUSH2 0x67B PUSH1 0x4 DUP1 CALLDATASIZE SUB DUP2 ADD SWAP1 PUSH2 0x676 SWAP2 SWAP1 PUSH2 0x2C16 JUMP JUMPDEST PUSH2 0x1766 JUMP JUMPDEST STOP JUMPDEST PUSH1 0x60 PUSH1 0x3 DUP1 SLOAD PUSH2 0x68C SWAP1 PUSH2 0x303F JUMP JUMPDEST DUP1 PUSH1 0x1F ADD PUSH1 0x20 DUP1 SWAP2 DIV MUL PUSH1 0x20 ADD PUSH1 0x40 MLOAD SWAP1 DUP2 ADD PUSH1 0x40 MSTORE DUP1 SWAP3 SWAP2 SWAP1 DUP2 DUP2 MSTORE PUSH1 0x20 ADD DUP3 DUP1 SLOAD PUSH2 0x6B8 SWAP1 PUSH2 0x303F JUMP JUMPDEST DUP1 ISZERO PUSH2 0x705 JUMPI DUP1 PUSH1 0x1F LT PUSH2 0x6DA JUMPI PUSH2 0x100 DUP1 DUP4 SLOAD DIV MUL DUP4 MSTORE SWAP2 PUSH1 0x20 ADD SWAP2 PUSH2 0x705 JUMP JUMPDEST DUP3 ADD SWAP2 SWAP1 PUSH1 0x0 MSTORE PUSH1 0x20 PUSH1 0x0 KECCAK256 SWAP1 JUMPDEST DUP2 SLOAD DUP2 MSTORE SWAP1 PUSH1 0x1 ADD SWAP1 PUSH1 0x20 ADD DUP1 DUP4 GT PUSH2 0x6E8 JUMPI DUP3 SWAP1 SUB PUSH1 0x1F AND DUP3 ADD SWAP2 JUMPDEST POP POP POP POP POP SWAP1 POP SWAP1 JUMP JUMPDEST PUSH1 0x0 PUSH2 0x719 PUSH2 0x18E0 JUMP JUMPDEST SWAP1 POP SWAP1 JUMP JUMPDEST PUSH1 0x0 DUP1 PUSH2 0x729 PUSH2 0x18F1 JUMP JUMPDEST SWAP1 POP PUSH2 0x736 DUP2 DUP6 DUP6 PUSH2 0x18F9 JUMP JUMPDEST PUSH1 0x1 SWAP2 POP POP SWAP3 SWAP2 POP POP JUMP JUMPDEST PUSH1 0x0 PUSH1 0x2 SLOAD SWAP1 POP SWAP1 JUMP JUMPDEST PUSH1 0x0 PUSH2 0x755 PUSH2 0x982 JUMP JUMPDEST PUSH1 0xA PUSH2 0x761 SWAP2 SWAP1 PUSH2 0x31D2 JUMP JUMPDEST DUP3 PUSH2 0x76C SWAP2 SWAP1 PUSH2 0x321D JUMP JUMPDEST SWAP1 POP PUSH2 0x778 CALLER DUP3 PUSH2 0x1AC2 JUMP JUMPDEST PUSH1 0x0 PUSH1 0xC PUSH1 0x0 CALLER PUSH20 0xFFFFFFFFFFFFFFFFFFFFFFFFFFFFFFFFFFFFFFFF AND PUSH20 0xFFFFFFFFFFFFFFFFFFFFFFFFFFFFFFFFFFFFFFFF AND DUP2 MSTORE PUSH1 0x20 ADD SWAP1 DUP2 MSTORE PUSH1 0x20 ADD PUSH1 0x0 KECCAK256 PUSH1 0x0 ADD SLOAD SUB PUSH2 0x7D0 JUMPI PUSH2 0x7CB CALLER PUSH2 0x1C98 JUMP JUMPDEST PUSH2 0x7DA JUMP JUMPDEST PUSH2 0x7D9 CALLER PUSH2 0x1D13 JUMP JUMPDEST JUMPDEST DUP1 PUSH1 0xC PUSH1 0x0 CALLER PUSH20 0xFFFFFFFFFFFFFFFFFFFFFFFFFFFFFFFFFFFFFFFF AND PUSH20 0xFFFFFFFFFFFFFFFFFFFFFFFFFFFFFFFFFFFFFFFF AND DUP2 MSTORE PUSH1 0x20 ADD SWAP1 DUP2 MSTORE PUSH1 0x20 ADD PUSH1 0x0 KECCAK256 PUSH1 0x0 ADD SLOAD PUSH2 0x828 SWAP2 SWAP1 PUSH2 0x3277 JUMP JUMPDEST PUSH1 0xC PUSH1 0x0 CALLER PUSH20 0xFFFFFFFFFFFFFFFFFFFFFFFFFFFFFFFFFFFFFFFF AND PUSH20 0xFFFFFFFFFFFFFFFFFFFFFFFFFFFFFFFFFFFFFFFF AND DUP2 MSTORE PUSH1 0x20 ADD SWAP1 DUP2 MSTORE PUSH1 0x20 ADD PUSH1 0x0 KECCAK256 PUSH1 0x0 ADD DUP2 SWAP1 SSTORE POP TIMESTAMP PUSH1 0xC PUSH1 0x0 CALLER PUSH20 0xFFFFFFFFFFFFFFFFFFFFFFFFFFFFFFFFFFFFFFFF AND PUSH20 0xFFFFFFFFFFFFFFFFFFFFFFFFFFFFFFFFFFFFFFFF AND DUP2 MSTORE PUSH1 0x20 ADD SWAP1 DUP2 MSTORE PUSH1 0x20 ADD PUSH1 0x0 KECCAK256 PUSH1 0x1 ADD DUP2 SWAP1 SSTORE POP PUSH32 0x9E71BC8EEA02A63969F509818F2DAFB9254532904319F9DBDA79B67BD34A5F3D CALLER DUP3 PUSH1 0x40 MLOAD PUSH2 0x8E6 SWAP3 SWAP2 SWAP1 PUSH2 0x32CD JUMP JUMPDEST PUSH1 0x40 MLOAD DUP1 SWAP2 SUB SWAP1 LOG1 POP POP JUMP JUMPDEST PUSH1 0x0 DUP1 PUSH2 0x8FE DUP4 PUSH2 0x1DAF JUMP JUMPDEST SWAP1 POP DUP1 PUSH1 0xD PUSH1 0x0 DUP6 PUSH20 0xFFFFFFFFFFFFFFFFFFFFFFFFFFFFFFFFFFFFFFFF AND PUSH20 0xFFFFFFFFFFFFFFFFFFFFFFFFFFFFFFFFFFFFFFFF AND DUP2 MSTORE PUSH1 0x20 ADD SWAP1 DUP2 MSTORE PUSH1 0x20 ADD PUSH1 0x0 KECCAK256 SLOAD PUSH2 0x94B SWAP2 SWAP1 PUSH2 0x3277 JUMP JUMPDEST SWAP2 POP POP SWAP2 SWAP1 POP JUMP JUMPDEST PUSH1 0x0 DUP1 PUSH2 0x95E PUSH2 0x18F1 JUMP JUMPDEST SWAP1 POP PUSH2 0x96B DUP6 DUP3 DUP6 PUSH2 0x1E86 JUMP JUMPDEST PUSH2 0x976 DUP6 DUP6 DUP6 PUSH2 0x1F12 JUMP JUMPDEST PUSH1 0x1 SWAP2 POP POP SWAP4 SWAP3 POP POP POP JUMP JUMPDEST PUSH1 0x0 PUSH1 0x12 SWAP1 POP SWAP1 JUMP JUMPDEST PUSH1 0x0 DUP1 PUSH2 0x996 PUSH2 0x18F1 JUMP JUMPDEST SWAP1 POP PUSH2 0x9B7 DUP2 DUP6 DUP6 PUSH2 0x9A8 DUP6 DUP10 PUSH2 0x1535 JUMP JUMPDEST PUSH2 0x9B2 SWAP2 SWAP1 PUSH2 0x3277 JUMP JUMPDEST PUSH2 0x18F9 JUMP JUMPDEST PUSH1 0x1 SWAP2 POP POP SWAP3 SWAP2 POP POP JUMP JUMPDEST PUSH2 0x9CA PUSH2 0x18F1 JUMP JUMPDEST PUSH20 0xFFFFFFFFFFFFFFFFFFFFFFFFFFFFFFFFFFFFFFFF AND PUSH2 0x9E8 PUSH2 0x105F JUMP JUMPDEST PUSH20 0xFFFFFFFFFFFFFFFFFFFFFFFFFFFFFFFFFFFFFFFF AND EQ PUSH2 0xA3E JUMPI PUSH1 0x40 MLOAD PUSH32 0x8C379A000000000000000000000000000000000000000000000000000000000 DUP2 MSTORE PUSH1 0x4 ADD PUSH2 0xA35 SWAP1 PUSH2 0x3342 JUMP JUMPDEST PUSH1 0x40 MLOAD DUP1 SWAP2 SUB SWAP1 REVERT JUMPDEST PUSH2 0xA46 PUSH2 0x2191 JUMP JUMPDEST JUMP JUMPDEST PUSH2 0xA50 PUSH2 0x18F1 JUMP JUMPDEST PUSH20 0xFFFFFFFFFFFFFFFFFFFFFFFFFFFFFFFFFFFFFFFF AND PUSH2 0xA6E PUSH2 0x105F JUMP JUMPDEST PUSH20 0xFFFFFFFFFFFFFFFFFFFFFFFFFFFFFFFFFFFFFFFF AND EQ PUSH2 0xAC4 JUMPI PUSH1 0x40 MLOAD PUSH32 0x8C379A000000000000000000000000000000000000000000000000000000000 DUP2 MSTORE PUSH1 0x4 ADD PUSH2 0xABB SWAP1 PUSH2 0x3342 JUMP JUMPDEST PUSH1 0x40 MLOAD DUP1 SWAP2 SUB SWAP1 REVERT JUMPDEST PUSH2 0xAEC DUP3 PUSH2 0xAD0 PUSH2 0x982 JUMP JUMPDEST PUSH1 0xA PUSH2 0xADC SWAP2 SWAP1 PUSH2 0x31D2 JUMP JUMPDEST DUP4 PUSH2 0xAE7 SWAP2 SWAP1 PUSH2 0x321D JUMP JUMPDEST PUSH2 0x2233 JUMP JUMPDEST POP POP JUMP JUMPDEST PUSH1 0x0 PUSH1 0xC PUSH1 0x0 DUP4 PUSH20 0xFFFFFFFFFFFFFFFFFFFFFFFFFFFFFFFFFFFFFFFF AND PUSH20 0xFFFFFFFFFFFFFFFFFFFFFFFFFFFFFFFFFFFFFFFF AND DUP2 MSTORE PUSH1 0x20 ADD SWAP1 DUP2 MSTORE PUSH1 0x20 ADD PUSH1 0x0 KECCAK256 PUSH1 0x0 ADD SLOAD SWAP1 POP SWAP2 SWAP1 POP JUMP JUMPDEST PUSH2 0xB4D PUSH2 0xB47 PUSH2 0x18F1 JUMP JUMPDEST DUP3 PUSH2 0x1AC2 JUMP JUMPDEST POP JUMP JUMPDEST PUSH1 0x0 DUP1 PUSH1 0x0 PUSH2 0xB9D DUP5 PUSH1 0x6 PUSH1 0x0 DUP9 PUSH20 0xFFFFFFFFFFFFFFFFFFFFFFFFFFFFFFFFFFFFFFFF AND PUSH20 0xFFFFFFFFFFFFFFFFFFFFFFFFFFFFFFFFFFFFFFFF AND DUP2 MSTORE PUSH1 0x20 ADD SWAP1 DUP2 MSTORE PUSH1 0x20 ADD PUSH1 0x0 KECCAK256 PUSH2 0x2392 JUMP JUMPDEST SWAP2 POP SWAP2 POP DUP2 PUSH2 0xBB4 JUMPI PUSH2 0xBAF DUP6 PUSH2 0xCC7 JUMP JUMPDEST PUSH2 0xBB6 JUMP JUMPDEST DUP1 JUMPDEST SWAP3 POP POP POP SWAP3 SWAP2 POP POP JUMP JUMPDEST PUSH1 0x0 PUSH1 0x5 PUSH1 0x0 SWAP1 SLOAD SWAP1 PUSH2 0x100 EXP SWAP1 DIV PUSH1 0xFF AND SWAP1 POP SWAP1 JUMP JUMPDEST PUSH2 0xBDF PUSH2 0x18F1 JUMP JUMPDEST PUSH20 0xFFFFFFFFFFFFFFFFFFFFFFFFFFFFFFFFFFFFFFFF AND PUSH2 0xBFD PUSH2 0x105F JUMP JUMPDEST PUSH20 0xFFFFFFFFFFFFFFFFFFFFFFFFFFFFFFFFFFFFFFFF AND EQ PUSH2 0xC53 JUMPI PUSH1 0x40 MLOAD PUSH32 0x8C379A000000000000000000000000000000000000000000000000000000000 DUP2 MSTORE PUSH1 0x4 ADD PUSH2 0xC4A SWAP1 PUSH2 0x3342 JUMP JUMPDEST PUSH1 0x40 MLOAD DUP1 SWAP2 SUB SWAP1 REVERT JUMPDEST PUSH1 0x0 JUMPDEST PUSH1 0xA DUP1 SLOAD SWAP1 POP DUP2 LT ISZERO PUSH2 0xCC4 JUMPI PUSH1 0x0 PUSH1 0xA DUP3 DUP2 SLOAD DUP2 LT PUSH2 0xC79 JUMPI PUSH2 0xC78 PUSH2 0x3362 JUMP JUMPDEST JUMPDEST SWAP1 PUSH1 0x0 MSTORE PUSH1 0x20 PUSH1 0x0 KECCAK256 ADD PUSH1 0x0 SWAP1 SLOAD SWAP1 PUSH2 0x100 EXP SWAP1 DIV PUSH20 0xFFFFFFFFFFFFFFFFFFFFFFFFFFFFFFFFFFFFFFFF AND SWAP1 POP PUSH2 0xCAF DUP2 PUSH2 0x1D13 JUMP JUMPDEST POP PUSH1 0x1 DUP2 PUSH2 0xCBD SWAP2 SWAP1 PUSH2 0x3277 JUMP JUMPDEST SWAP1 POP PUSH2 0xC56 JUMP JUMPDEST POP JUMP JUMPDEST PUSH1 0x0 DUP1 PUSH1 0x0 DUP4 PUSH20 0xFFFFFFFFFFFFFFFFFFFFFFFFFFFFFFFFFFFFFFFF AND PUSH20 0xFFFFFFFFFFFFFFFFFFFFFFFFFFFFFFFFFFFFFFFF AND DUP2 MSTORE PUSH1 0x20 ADD SWAP1 DUP2 MSTORE PUSH1 0x20 ADD PUSH1 0x0 KECCAK256 SLOAD SWAP1 POP SWAP2 SWAP1 POP JUMP JUMPDEST PUSH2 0xD17 PUSH2 0x18F1 JUMP JUMPDEST PUSH20 0xFFFFFFFFFFFFFFFFFFFFFFFFFFFFFFFFFFFFFFFF AND PUSH2 0xD35 PUSH2 0x105F JUMP JUMPDEST PUSH20 0xFFFFFFFFFFFFFFFFFFFFFFFFFFFFFFFFFFFFFFFF AND EQ PUSH2 0xD8B JUMPI PUSH1 0x40 MLOAD PUSH32 0x8C379A000000000000000000000000000000000000000000000000000000000 DUP2 MSTORE PUSH1 0x4 ADD PUSH2 0xD82 SWAP1 PUSH2 0x3342 JUMP JUMPDEST PUSH1 0x40 MLOAD DUP1 SWAP2 SUB SWAP1 REVERT JUMPDEST PUSH2 0xD95 PUSH1 0x0 PUSH2 0x2487 JUMP JUMPDEST JUMP JUMPDEST PUSH2 0xD9F PUSH2 0x18F1 JUMP JUMPDEST PUSH20 0xFFFFFFFFFFFFFFFFFFFFFFFFFFFFFFFFFFFFFFFF AND PUSH2 0xDBD PUSH2 0x105F JUMP JUMPDEST PUSH20 0xFFFFFFFFFFFFFFFFFFFFFFFFFFFFFFFFFFFFFFFF AND EQ PUSH2 0xE13 JUMPI PUSH1 0x40 MLOAD PUSH32 0x8C379A000000000000000000000000000000000000000000000000000000000 DUP2 MSTORE PUSH1 0x4 ADD PUSH2 0xE0A SWAP1 PUSH2 0x3342 JUMP JUMPDEST PUSH1 0x40 MLOAD DUP1 SWAP2 SUB SWAP1 REVERT JUMPDEST DUP1 MLOAD DUP3 MLOAD EQ PUSH2 0xE21 JUMPI PUSH1 0x0 DUP1 REVERT JUMPDEST PUSH1 0x0 JUMPDEST DUP3 MLOAD DUP2 LT ISZERO PUSH2 0xE9C JUMPI PUSH2 0xE89 DUP4 DUP3 DUP2 MLOAD DUP2 LT PUSH2 0xE43 JUMPI PUSH2 0xE42 PUSH2 0x3362 JUMP JUMPDEST JUMPDEST PUSH1 0x20 MUL PUSH1 0x20 ADD ADD MLOAD PUSH2 0xE53 PUSH2 0x982 JUMP JUMPDEST PUSH1 0xA PUSH2 0xE5F SWAP2 SWAP1 PUSH2 0x31D2 JUMP JUMPDEST DUP5 DUP5 DUP2 MLOAD DUP2 LT PUSH2 0xE72 JUMPI PUSH2 0xE71 PUSH2 0x3362 JUMP JUMPDEST JUMPDEST PUSH1 0x20 MUL PUSH1 0x20 ADD ADD MLOAD PUSH2 0xE84 SWAP2 SWAP1 PUSH2 0x321D JUMP JUMPDEST PUSH2 0x2233 JUMP JUMPDEST DUP1 DUP1 PUSH2 0xE94 SWAP1 PUSH2 0x3391 JUMP JUMPDEST SWAP2 POP POP PUSH2 0xE24 JUMP JUMPDEST POP POP POP JUMP JUMPDEST PUSH2 0xEB3 DUP3 PUSH2 0xEAD PUSH2 0x18F1 JUMP JUMPDEST DUP4 PUSH2 0x1E86 JUMP JUMPDEST PUSH2 0xEBD DUP3 DUP3 PUSH2 0x1AC2 JUMP JUMPDEST POP POP JUMP JUMPDEST PUSH2 0xEC9 PUSH2 0x18F1 JUMP JUMPDEST PUSH20 0xFFFFFFFFFFFFFFFFFFFFFFFFFFFFFFFFFFFFFFFF AND PUSH2 0xEE7 PUSH2 0x105F JUMP JUMPDEST PUSH20 0xFFFFFFFFFFFFFFFFFFFFFFFFFFFFFFFFFFFFFFFF AND EQ PUSH2 0xF3D JUMPI PUSH1 0x40 MLOAD PUSH32 0x8C379A000000000000000000000000000000000000000000000000000000000 DUP2 MSTORE PUSH1 0x4 ADD PUSH2 0xF34 SWAP1 PUSH2 0x3342 JUMP JUMPDEST PUSH1 0x40 MLOAD DUP1 SWAP2 SUB SWAP1 REVERT JUMPDEST DUP1 MLOAD DUP3 MLOAD EQ PUSH2 0xF4B JUMPI PUSH1 0x0 DUP1 REVERT JUMPDEST PUSH1 0x0 JUMPDEST DUP2 MLOAD DUP2 LT ISZERO PUSH2 0xFD4 JUMPI PUSH1 0x0 PUSH2 0xF61 PUSH2 0x18F1 JUMP JUMPDEST SWAP1 POP PUSH2 0xFC0 DUP2 DUP6 DUP5 DUP2 MLOAD DUP2 LT PUSH2 0xF7A JUMPI PUSH2 0xF79 PUSH2 0x3362 JUMP JUMPDEST JUMPDEST PUSH1 0x20 MUL PUSH1 0x20 ADD ADD MLOAD PUSH2 0xF8A PUSH2 0x982 JUMP JUMPDEST PUSH1 0xA PUSH2 0xF96 SWAP2 SWAP1 PUSH2 0x31D2 JUMP JUMPDEST DUP7 DUP7 DUP2 MLOAD DUP2 LT PUSH2 0xFA9 JUMPI PUSH2 0xFA8 PUSH2 0x3362 JUMP JUMPDEST JUMPDEST PUSH1 0x20 MUL PUSH1 0x20 ADD ADD MLOAD PUSH2 0xFBB SWAP2 SWAP1 PUSH2 0x321D JUMP JUMPDEST PUSH2 0x1F12 JUMP JUMPDEST POP DUP1 DUP1 PUSH2 0xFCC SWAP1 PUSH2 0x3391 JUMP JUMPDEST SWAP2 POP POP PUSH2 0xF4E JUMP JUMPDEST POP POP POP JUMP JUMPDEST PUSH2 0xFE1 PUSH2 0x18F1 JUMP JUMPDEST PUSH20 0xFFFFFFFFFFFFFFFFFFFFFFFFFFFFFFFFFFFFFFFF AND PUSH2 0xFFF PUSH2 0x105F JUMP JUMPDEST PUSH20 0xFFFFFFFFFFFFFFFFFFFFFFFFFFFFFFFFFFFFFFFF AND EQ PUSH2 0x1055 JUMPI PUSH1 0x40 MLOAD PUSH32 0x8C379A000000000000000000000000000000000000000000000000000000000 DUP2 MSTORE PUSH1 0x4 ADD PUSH2 0x104C SWAP1 PUSH2 0x3342 JUMP JUMPDEST PUSH1 0x40 MLOAD DUP1 SWAP2 SUB SWAP1 REVERT JUMPDEST PUSH2 0x105D PUSH2 0x254D JUMP JUMPDEST JUMP JUMPDEST PUSH1 0x0 PUSH1 0x5 PUSH1 0x1 SWAP1 SLOAD SWAP1 PUSH2 0x100 EXP SWAP1 DIV PUSH20 0xFFFFFFFFFFFFFFFFFFFFFFFFFFFFFFFFFFFFFFFF AND SWAP1 POP SWAP1 JUMP JUMPDEST PUSH1 0x0 PUSH2 0x1093 PUSH2 0x982 JUMP JUMPDEST PUSH1 0xA PUSH2 0x109F SWAP2 SWAP1 PUSH2 0x31D2 JUMP JUMPDEST DUP3 PUSH2 0x10AA SWAP2 SWAP1 PUSH2 0x321D JUMP JUMPDEST SWAP1 POP PUSH2 0x10B5 CALLER PUSH2 0x1D13 JUMP JUMPDEST DUP1 PUSH1 0xC PUSH1 0x0 CALLER PUSH20 0xFFFFFFFFFFFFFFFFFFFFFFFFFFFFFFFFFFFFFFFF AND PUSH20 0xFFFFFFFFFFFFFFFFFFFFFFFFFFFFFFFFFFFFFFFF AND DUP2 MSTORE PUSH1 0x20 ADD SWAP1 DUP2 MSTORE PUSH1 0x20 ADD PUSH1 0x0 KECCAK256 PUSH1 0x0 ADD SLOAD PUSH2 0x1103 SWAP2 SWAP1 PUSH2 0x33D9 JUMP JUMPDEST PUSH1 0xC PUSH1 0x0 CALLER PUSH20 0xFFFFFFFFFFFFFFFFFFFFFFFFFFFFFFFFFFFFFFFF AND PUSH20 0xFFFFFFFFFFFFFFFFFFFFFFFFFFFFFFFFFFFFFFFF AND DUP2 MSTORE PUSH1 0x20 ADD SWAP1 DUP2 MSTORE PUSH1 0x20 ADD PUSH1 0x0 KECCAK256 PUSH1 0x0 ADD DUP2 SWAP1 SSTORE POP PUSH1 0x0 PUSH1 0xC PUSH1 0x0 CALLER PUSH20 0xFFFFFFFFFFFFFFFFFFFFFFFFFFFFFFFFFFFFFFFF AND PUSH20 0xFFFFFFFFFFFFFFFFFFFFFFFFFFFFFFFFFFFFFFFF AND DUP2 MSTORE PUSH1 0x20 ADD SWAP1 DUP2 MSTORE PUSH1 0x20 ADD PUSH1 0x0 KECCAK256 PUSH1 0x0 ADD SLOAD SUB PUSH2 0x119D JUMPI PUSH2 0x119C CALLER PUSH2 0x25F0 JUMP JUMPDEST JUMPDEST PUSH2 0x11A7 CALLER DUP3 PUSH2 0x2233 JUMP JUMPDEST PUSH32 0xF5BB82176FEB1B5E747E28471AA92156A04D9F3AB9F45F28E2D704232B93F75 CALLER DUP3 PUSH1 0x40 MLOAD PUSH2 0x11D8 SWAP3 SWAP2 SWAP1 PUSH2 0x32CD JUMP JUMPDEST PUSH1 0x40 MLOAD DUP1 SWAP2 SUB SWAP1 LOG1 POP POP JUMP JUMPDEST PUSH1 0x60 PUSH1 0x4 DUP1 SLOAD PUSH2 0x11F3 SWAP1 PUSH2 0x303F JUMP JUMPDEST DUP1 PUSH1 0x1F ADD PUSH1 0x20 DUP1 SWAP2 DIV MUL PUSH1 0x20 ADD PUSH1 0x40 MLOAD SWAP1 DUP2 ADD PUSH1 0x40 MSTORE DUP1 SWAP3 SWAP2 SWAP1 DUP2 DUP2 MSTORE PUSH1 0x20 ADD DUP3 DUP1 SLOAD PUSH2 0x121F SWAP1 PUSH2 0x303F JUMP JUMPDEST DUP1 ISZERO PUSH2 0x126C JUMPI DUP1 PUSH1 0x1F LT PUSH2 0x1241 JUMPI PUSH2 0x100 DUP1 DUP4 SLOAD DIV MUL DUP4 MSTORE SWAP2 PUSH1 0x20 ADD SWAP2 PUSH2 0x126C JUMP JUMPDEST DUP3 ADD SWAP2 SWAP1 PUSH1 0x0 MSTORE PUSH1 0x20 PUSH1 0x0 KECCAK256 SWAP1 JUMPDEST DUP2 SLOAD DUP2 MSTORE SWAP1 PUSH1 0x1 ADD SWAP1 PUSH1 0x20 ADD DUP1 DUP4 GT PUSH2 0x124F JUMPI DUP3 SWAP1 SUB PUSH1 0x1F AND DUP3 ADD SWAP2 JUMPDEST POP POP POP POP POP SWAP1 POP SWAP1 JUMP JUMPDEST PUSH2 0x127E PUSH2 0x18F1 JUMP JUMPDEST PUSH20 0xFFFFFFFFFFFFFFFFFFFFFFFFFFFFFFFFFFFFFFFF AND PUSH2 0x129C PUSH2 0x105F JUMP JUMPDEST PUSH20 0xFFFFFFFFFFFFFFFFFFFFFFFFFFFFFFFFFFFFFFFF AND EQ PUSH2 0x12F2 JUMPI PUSH1 0x40 MLOAD PUSH32 0x8C379A000000000000000000000000000000000000000000000000000000000 DUP2 MSTORE PUSH1 0x4 ADD PUSH2 0x12E9 SWAP1 PUSH2 0x3342 JUMP JUMPDEST PUSH1 0x40 MLOAD DUP1 SWAP2 SUB SWAP1 REVERT JUMPDEST PUSH2 0x12FA PUSH2 0x26FF JUMP JUMPDEST POP JUMP JUMPDEST PUSH1 0x0 DUP1 PUSH1 0x0 PUSH2 0x130D DUP5 PUSH1 0x7 PUSH2 0x2392 JUMP JUMPDEST SWAP2 POP SWAP2 POP DUP2 PUSH2 0x1323 JUMPI PUSH2 0x131E PUSH2 0x741 JUMP JUMPDEST PUSH2 0x1325 JUMP JUMPDEST DUP1 JUMPDEST SWAP3 POP POP POP SWAP2 SWAP1 POP JUMP JUMPDEST PUSH1 0x0 DUP1 PUSH2 0x1339 PUSH2 0x18F1 JUMP JUMPDEST SWAP1 POP PUSH1 0x0 PUSH2 0x1347 DUP3 DUP7 PUSH2 0x1535 JUMP JUMPDEST SWAP1 POP DUP4 DUP2 LT ISZERO PUSH2 0x138C JUMPI PUSH1 0x40 MLOAD PUSH32 0x8C379A000000000000000000000000000000000000000000000000000000000 DUP2 MSTORE PUSH1 0x4 ADD PUSH2 0x1383 SWAP1 PUSH2 0x347F JUMP JUMPDEST PUSH1 0x40 MLOAD DUP1 SWAP2 SUB SWAP1 REVERT JUMPDEST PUSH2 0x1399 DUP3 DUP7 DUP7 DUP5 SUB PUSH2 0x18F9 JUMP JUMPDEST PUSH1 0x1 SWAP3 POP POP POP SWAP3 SWAP2 POP POP JUMP JUMPDEST PUSH1 0x0 DUP1 PUSH2 0x13B0 PUSH2 0x18F1 JUMP JUMPDEST SWAP1 POP PUSH2 0x13BD DUP2 DUP6 DUP6 PUSH2 0x1F12 JUMP JUMPDEST PUSH1 0x1 SWAP2 POP POP SWAP3 SWAP2 POP POP JUMP JUMPDEST PUSH1 0x0 PUSH2 0x13D3 CALLER PUSH2 0x8F2 JUMP JUMPDEST SWAP1 POP PUSH1 0x0 PUSH1 0xD PUSH1 0x0 CALLER PUSH20 0xFFFFFFFFFFFFFFFFFFFFFFFFFFFFFFFFFFFFFFFF AND PUSH20 0xFFFFFFFFFFFFFFFFFFFFFFFFFFFFFFFFFFFFFFFF AND DUP2 MSTORE PUSH1 0x20 ADD SWAP1 DUP2 MSTORE PUSH1 0x20 ADD PUSH1 0x0 KECCAK256 DUP2 SWAP1 SSTORE POP TIMESTAMP PUSH1 0xC PUSH1 0x0 CALLER PUSH20 0xFFFFFFFFFFFFFFFFFFFFFFFFFFFFFFFFFFFFFFFF AND PUSH20 0xFFFFFFFFFFFFFFFFFFFFFFFFFFFFFFFFFFFFFFFF AND DUP2 MSTORE PUSH1 0x20 ADD SWAP1 DUP2 MSTORE PUSH1 0x20 ADD PUSH1 0x0 KECCAK256 PUSH1 0x1 ADD DUP2 SWAP1 SSTORE POP PUSH2 0x146B CALLER DUP3 PUSH2 0x2233 JUMP JUMPDEST PUSH32 0x1D3EEE4CA001CFF39EEC6EC7615AACF2F2BD61791273830728BA00CCBD6E1337 CALLER DUP3 PUSH1 0x40 MLOAD PUSH2 0x149C SWAP3 SWAP2 SWAP1 PUSH2 0x32CD JUMP JUMPDEST PUSH1 0x40 MLOAD DUP1 SWAP2 SUB SWAP1 LOG1 POP JUMP JUMPDEST PUSH2 0x14AF PUSH2 0x18F1 JUMP JUMPDEST PUSH20 0xFFFFFFFFFFFFFFFFFFFFFFFFFFFFFFFFFFFFFFFF AND PUSH2 0x14CD PUSH2 0x105F JUMP JUMPDEST PUSH20 0xFFFFFFFFFFFFFFFFFFFFFFFFFFFFFFFFFFFFFFFF AND EQ PUSH2 0x1523 JUMPI PUSH1 0x40 MLOAD PUSH32 0x8C379A000000000000000000000000000000000000000000000000000000000 DUP2 MSTORE PUSH1 0x4 ADD PUSH2 0x151A SWAP1 PUSH2 0x3342 JUMP JUMPDEST PUSH1 0x40 MLOAD DUP1 SWAP2 SUB SWAP1 REVERT JUMPDEST PUSH2 0x152B PUSH2 0xBD7 JUMP JUMPDEST DUP1 PUSH1 0xB DUP2 SWAP1 SSTORE POP POP JUMP JUMPDEST PUSH1 0x0 PUSH1 0x1 PUSH1 0x0 DUP5 PUSH20 0xFFFFFFFFFFFFFFFFFFFFFFFFFFFFFFFFFFFFFFFF AND PUSH20 0xFFFFFFFFFFFFFFFFFFFFFFFFFFFFFFFFFFFFFFFF AND DUP2 MSTORE PUSH1 0x20 ADD SWAP1 DUP2 MSTORE PUSH1 0x20 ADD PUSH1 0x0 KECCAK256 PUSH1 0x0 DUP4 PUSH20 0xFFFFFFFFFFFFFFFFFFFFFFFFFFFFFFFFFFFFFFFF AND PUSH20 0xFFFFFFFFFFFFFFFFFFFFFFFFFFFFFFFFFFFFFFFF AND DUP2 MSTORE PUSH1 0x20 ADD SWAP1 DUP2 MSTORE PUSH1 0x20 ADD PUSH1 0x0 KECCAK256 SLOAD SWAP1 POP SWAP3 SWAP2 POP POP JUMP JUMPDEST PUSH1 0x0 DUP1 PUSH1 0x0 JUMPDEST PUSH1 0xA DUP1 SLOAD SWAP1 POP DUP2 LT ISZERO PUSH2 0x1661 JUMPI PUSH1 0xA DUP2 DUP2 SLOAD DUP2 LT PUSH2 0x15E3 JUMPI PUSH2 0x15E2 PUSH2 0x3362 JUMP JUMPDEST JUMPDEST SWAP1 PUSH1 0x0 MSTORE PUSH1 0x20 PUSH1 0x0 KECCAK256 ADD PUSH1 0x0 SWAP1 SLOAD SWAP1 PUSH2 0x100 EXP SWAP1 DIV PUSH20 0xFFFFFFFFFFFFFFFFFFFFFFFFFFFFFFFFFFFFFFFF AND PUSH20 0xFFFFFFFFFFFFFFFFFFFFFFFFFFFFFFFFFFFFFFFF AND DUP5 PUSH20 0xFFFFFFFFFFFFFFFFFFFFFFFFFFFFFFFFFFFFFFFF AND SUB PUSH2 0x164D JUMPI PUSH1 0x1 DUP2 SWAP3 POP SWAP3 POP POP PUSH2 0x166A JUMP JUMPDEST PUSH1 0x1 DUP2 PUSH2 0x165A SWAP2 SWAP1 PUSH2 0x3277 JUMP JUMPDEST SWAP1 POP PUSH2 0x15C2 JUMP JUMPDEST POP PUSH1 0x0 DUP1 SWAP2 POP SWAP2 POP JUMPDEST SWAP2 POP SWAP2 JUMP JUMPDEST PUSH2 0x1677 PUSH2 0x18F1 JUMP JUMPDEST PUSH20 0xFFFFFFFFFFFFFFFFFFFFFFFFFFFFFFFFFFFFFFFF AND PUSH2 0x1695 PUSH2 0x105F JUMP JUMPDEST PUSH20 0xFFFFFFFFFFFFFFFFFFFFFFFFFFFFFFFFFFFFFFFF AND EQ PUSH2 0x16EB JUMPI PUSH1 0x40 MLOAD PUSH32 0x8C379A000000000000000000000000000000000000000000000000000000000 DUP2 MSTORE PUSH1 0x4 ADD PUSH2 0x16E2 SWAP1 PUSH2 0x3342 JUMP JUMPDEST PUSH1 0x40 MLOAD DUP1 SWAP2 SUB SWAP1 REVERT JUMPDEST PUSH1 0x0 PUSH20 0xFFFFFFFFFFFFFFFFFFFFFFFFFFFFFFFFFFFFFFFF AND DUP2 PUSH20 0xFFFFFFFFFFFFFFFFFFFFFFFFFFFFFFFFFFFFFFFF AND SUB PUSH2 0x175A JUMPI PUSH1 0x40 MLOAD PUSH32 0x8C379A000000000000000000000000000000000000000000000000000000000 DUP2 MSTORE PUSH1 0x4 ADD PUSH2 0x1751 SWAP1 PUSH2 0x3511 JUMP JUMPDEST PUSH1 0x40 MLOAD DUP1 SWAP2 SUB SWAP1 REVERT JUMPDEST PUSH2 0x1763 DUP2 PUSH2 0x2487 JUMP JUMPDEST POP JUMP JUMPDEST PUSH2 0x176E PUSH2 0x18F1 JUMP JUMPDEST PUSH20 0xFFFFFFFFFFFFFFFFFFFFFFFFFFFFFFFFFFFFFFFF AND PUSH2 0x178C PUSH2 0x105F JUMP JUMPDEST PUSH20 0xFFFFFFFFFFFFFFFFFFFFFFFFFFFFFFFFFFFFFFFF AND EQ PUSH2 0x17E2 JUMPI PUSH1 0x40 MLOAD PUSH32 0x8C379A000000000000000000000000000000000000000000000000000000000 DUP2 MSTORE PUSH1 0x4 ADD PUSH2 0x17D9 SWAP1 PUSH2 0x3342 JUMP JUMPDEST PUSH1 0x40 MLOAD DUP1 SWAP2 SUB SWAP1 REVERT JUMPDEST PUSH2 0x1812 ADDRESS PUSH2 0x17EE PUSH2 0x18F1 JUMP JUMPDEST PUSH2 0x17F6 PUSH2 0x982 JUMP JUMPDEST PUSH1 0xA PUSH2 0x1802 SWAP2 SWAP1 PUSH2 0x31D2 JUMP JUMPDEST DUP5 PUSH2 0x180D SWAP2 SWAP1 PUSH2 0x321D JUMP JUMPDEST PUSH2 0x1F12 JUMP JUMPDEST POP JUMP JUMPDEST PUSH2 0x1820 DUP4 DUP4 DUP4 PUSH2 0x18CD JUMP JUMPDEST PUSH1 0x0 PUSH20 0xFFFFFFFFFFFFFFFFFFFFFFFFFFFFFFFFFFFFFFFF AND DUP4 PUSH20 0xFFFFFFFFFFFFFFFFFFFFFFFFFFFFFFFFFFFFFFFF AND SUB PUSH2 0x186A JUMPI PUSH2 0x185D DUP3 PUSH2 0x2755 JUMP JUMPDEST PUSH2 0x1865 PUSH2 0x27A8 JUMP JUMPDEST PUSH2 0x18C8 JUMP JUMPDEST PUSH1 0x0 PUSH20 0xFFFFFFFFFFFFFFFFFFFFFFFFFFFFFFFFFFFFFFFF AND DUP3 PUSH20 0xFFFFFFFFFFFFFFFFFFFFFFFFFFFFFFFFFFFFFFFF AND SUB PUSH2 0x18B4 JUMPI PUSH2 0x18A7 DUP4 PUSH2 0x2755 JUMP JUMPDEST PUSH2 0x18AF PUSH2 0x27A8 JUMP JUMPDEST PUSH2 0x18C7 JUMP JUMPDEST PUSH2 0x18BD DUP4 PUSH2 0x2755 JUMP JUMPDEST PUSH2 0x18C6 DUP3 PUSH2 0x2755 JUMP JUMPDEST JUMPDEST JUMPDEST POP POP POP JUMP JUMPDEST POP POP POP JUMP JUMPDEST PUSH1 0x0 DUP2 PUSH1 0x0 ADD SLOAD SWAP1 POP SWAP2 SWAP1 POP JUMP JUMPDEST PUSH1 0x0 PUSH2 0x18EC PUSH1 0x9 PUSH2 0x18D2 JUMP JUMPDEST SWAP1 POP SWAP1 JUMP JUMPDEST PUSH1 0x0 CALLER SWAP1 POP SWAP1 JUMP JUMPDEST PUSH1 0x0 PUSH20 0xFFFFFFFFFFFFFFFFFFFFFFFFFFFFFFFFFFFFFFFF AND DUP4 PUSH20 0xFFFFFFFFFFFFFFFFFFFFFFFFFFFFFFFFFFFFFFFF AND SUB PUSH2 0x1968 JUMPI PUSH1 0x40 MLOAD PUSH32 0x8C379A000000000000000000000000000000000000000000000000000000000 DUP2 MSTORE PUSH1 0x4 ADD PUSH2 0x195F SWAP1 PUSH2 0x35A3 JUMP JUMPDEST PUSH1 0x40 MLOAD DUP1 SWAP2 SUB SWAP1 REVERT JUMPDEST PUSH1 0x0 PUSH20 0xFFFFFFFFFFFFFFFFFFFFFFFFFFFFFFFFFFFFFFFF AND DUP3 PUSH20 0xFFFFFFFFFFFFFFFFFFFFFFFFFFFFFFFFFFFFFFFF AND SUB PUSH2 0x19D7 JUMPI PUSH1 0x40 MLOAD PUSH32 0x8C379A000000000000000000000000000000000000000000000000000000000 DUP2 MSTORE PUSH1 0x4 ADD PUSH2 0x19CE SWAP1 PUSH2 0x3635 JUMP JUMPDEST PUSH1 0x40 MLOAD DUP1 SWAP2 SUB SWAP1 REVERT JUMPDEST DUP1 PUSH1 0x1 PUSH1 0x0 DUP6 PUSH20 0xFFFFFFFFFFFFFFFFFFFFFFFFFFFFFFFFFFFFFFFF AND PUSH20 0xFFFFFFFFFFFFFFFFFFFFFFFFFFFFFFFFFFFFFFFF AND DUP2 MSTORE PUSH1 0x20 ADD SWAP1 DUP2 MSTORE PUSH1 0x20 ADD PUSH1 0x0 KECCAK256 PUSH1 0x0 DUP5 PUSH20 0xFFFFFFFFFFFFFFFFFFFFFFFFFFFFFFFFFFFFFFFF AND PUSH20 0xFFFFFFFFFFFFFFFFFFFFFFFFFFFFFFFFFFFFFFFF AND DUP2 MSTORE PUSH1 0x20 ADD SWAP1 DUP2 MSTORE PUSH1 0x20 ADD PUSH1 0x0 KECCAK256 DUP2 SWAP1 SSTORE POP DUP2 PUSH20 0xFFFFFFFFFFFFFFFFFFFFFFFFFFFFFFFFFFFFFFFF AND DUP4 PUSH20 0xFFFFFFFFFFFFFFFFFFFFFFFFFFFFFFFFFFFFFFFF AND PUSH32 0x8C5BE1E5EBEC7D5BD14F71427D1E84F3DD0314C0F7B2291E5B200AC8C7C3B925 DUP4 PUSH1 0x40 MLOAD PUSH2 0x1AB5 SWAP2 SWAP1 PUSH2 0x2AE7 JUMP JUMPDEST PUSH1 0x40 MLOAD DUP1 SWAP2 SUB SWAP1 LOG3 POP POP POP JUMP JUMPDEST PUSH1 0x0 PUSH20 0xFFFFFFFFFFFFFFFFFFFFFFFFFFFFFFFFFFFFFFFF AND DUP3 PUSH20 0xFFFFFFFFFFFFFFFFFFFFFFFFFFFFFFFFFFFFFFFF AND SUB PUSH2 0x1B31 JUMPI PUSH1 0x40 MLOAD PUSH32 0x8C379A000000000000000000000000000000000000000000000000000000000 DUP2 MSTORE PUSH1 0x4 ADD PUSH2 0x1B28 SWAP1 PUSH2 0x36C7 JUMP JUMPDEST PUSH1 0x40 MLOAD DUP1 SWAP2 SUB SWAP1 REVERT JUMPDEST PUSH2 0x1B3D DUP3 PUSH1 0x0 DUP4 PUSH2 0x27BC JUMP JUMPDEST PUSH1 0x0 DUP1 PUSH1 0x0 DUP5 PUSH20 0xFFFFFFFFFFFFFFFFFFFFFFFFFFFFFFFFFFFFFFFF AND PUSH20 0xFFFFFFFFFFFFFFFFFFFFFFFFFFFFFFFFFFFFFFFF AND DUP2 MSTORE PUSH1 0x20 ADD SWAP1 DUP2 MSTORE PUSH1 0x20 ADD PUSH1 0x0 KECCAK256 SLOAD SWAP1 POP DUP2 DUP2 LT ISZERO PUSH2 0x1BC3 JUMPI PUSH1 0x40 MLOAD PUSH32 0x8C379A000000000000000000000000000000000000000000000000000000000 DUP2 MSTORE PUSH1 0x4 ADD PUSH2 0x1BBA SWAP1 PUSH2 0x3759 JUMP JUMPDEST PUSH1 0x40 MLOAD DUP1 SWAP2 SUB SWAP1 REVERT JUMPDEST DUP2 DUP2 SUB PUSH1 0x0 DUP1 DUP6 PUSH20 0xFFFFFFFFFFFFFFFFFFFFFFFFFFFFFFFFFFFFFFFF AND PUSH20 0xFFFFFFFFFFFFFFFFFFFFFFFFFFFFFFFFFFFFFFFF AND DUP2 MSTORE PUSH1 0x20 ADD SWAP1 DUP2 MSTORE PUSH1 0x20 ADD PUSH1 0x0 KECCAK256 DUP2 SWAP1 SSTORE POP DUP2 PUSH1 0x2 PUSH1 0x0 DUP3 DUP3 SLOAD PUSH2 0x1C1A SWAP2 SWAP1 PUSH2 0x33D9 JUMP JUMPDEST SWAP3 POP POP DUP2 SWAP1 SSTORE POP PUSH1 0x0 PUSH20 0xFFFFFFFFFFFFFFFFFFFFFFFFFFFFFFFFFFFFFFFF AND DUP4 PUSH20 0xFFFFFFFFFFFFFFFFFFFFFFFFFFFFFFFFFFFFFFFF AND PUSH32 0xDDF252AD1BE2C89B69C2B068FC378DAA952BA7F163C4A11628F55A4DF523B3EF DUP5 PUSH1 0x40 MLOAD PUSH2 0x1C7F SWAP2 SWAP1 PUSH2 0x2AE7 JUMP JUMPDEST PUSH1 0x40 MLOAD DUP1 SWAP2 SUB SWAP1 LOG3 PUSH2 0x1C93 DUP4 PUSH1 0x0 DUP5 PUSH2 0x2832 JUMP JUMPDEST POP POP POP JUMP JUMPDEST PUSH1 0x0 PUSH2 0x1CA3 DUP3 PUSH2 0x15BC JUMP JUMPDEST POP SWAP1 POP DUP1 PUSH2 0x1D0F JUMPI PUSH1 0xA DUP3 SWAP1 DUP1 PUSH1 0x1 DUP2 SLOAD ADD DUP1 DUP3 SSTORE DUP1 SWAP2 POP POP PUSH1 0x1 SWAP1 SUB SWAP1 PUSH1 0x0 MSTORE PUSH1 0x20 PUSH1 0x0 KECCAK256 ADD PUSH1 0x0 SWAP1 SWAP2 SWAP1 SWAP2 SWAP1 SWAP2 PUSH2 0x100 EXP DUP2 SLOAD DUP2 PUSH20 0xFFFFFFFFFFFFFFFFFFFFFFFFFFFFFFFFFFFFFFFF MUL NOT AND SWAP1 DUP4 PUSH20 0xFFFFFFFFFFFFFFFFFFFFFFFFFFFFFFFFFFFFFFFF AND MUL OR SWAP1 SSTORE POP JUMPDEST POP POP JUMP JUMPDEST PUSH1 0x0 PUSH2 0x1D1E DUP3 PUSH2 0x8F2 JUMP JUMPDEST SWAP1 POP DUP1 PUSH1 0xD PUSH1 0x0 DUP5 PUSH20 0xFFFFFFFFFFFFFFFFFFFFFFFFFFFFFFFFFFFFFFFF AND PUSH20 0xFFFFFFFFFFFFFFFFFFFFFFFFFFFFFFFFFFFFFFFF AND DUP2 MSTORE PUSH1 0x20 ADD SWAP1 DUP2 MSTORE PUSH1 0x20 ADD PUSH1 0x0 KECCAK256 DUP2 SWAP1 SSTORE POP TIMESTAMP PUSH1 0xC PUSH1 0x0 DUP5 PUSH20 0xFFFFFFFFFFFFFFFFFFFFFFFFFFFFFFFFFFFFFFFF AND PUSH20 0xFFFFFFFFFFFFFFFFFFFFFFFFFFFFFFFFFFFFFFFF AND DUP2 MSTORE PUSH1 0x20 ADD SWAP1 DUP2 MSTORE PUSH1 0x20 ADD PUSH1 0x0 KECCAK256 PUSH1 0x1 ADD DUP2 SWAP1 SSTORE POP POP POP JUMP JUMPDEST PUSH1 0x0 DUP1 PUSH1 0xC PUSH1 0x0 DUP5 PUSH20 0xFFFFFFFFFFFFFFFFFFFFFFFFFFFFFFFFFFFFFFFF AND PUSH20 0xFFFFFFFFFFFFFFFFFFFFFFFFFFFFFFFFFFFFFFFF AND DUP2 MSTORE PUSH1 0x20 ADD SWAP1 DUP2 MSTORE PUSH1 0x20 ADD PUSH1 0x0 KECCAK256 PUSH1 0x1 ADD SLOAD TIMESTAMP PUSH2 0x1E00 SWAP2 SWAP1 PUSH2 0x33D9 JUMP JUMPDEST SWAP1 POP PUSH1 0x0 PUSH4 0x1E13380 PUSH1 0x64 PUSH1 0xB SLOAD DUP5 PUSH1 0xC PUSH1 0x0 DUP10 PUSH20 0xFFFFFFFFFFFFFFFFFFFFFFFFFFFFFFFFFFFFFFFF AND PUSH20 0xFFFFFFFFFFFFFFFFFFFFFFFFFFFFFFFFFFFFFFFF AND DUP2 MSTORE PUSH1 0x20 ADD SWAP1 DUP2 MSTORE PUSH1 0x20 ADD PUSH1 0x0 KECCAK256 PUSH1 0x0 ADD SLOAD PUSH2 0x1E5C SWAP2 SWAP1 PUSH2 0x321D JUMP JUMPDEST PUSH2 0x1E66 SWAP2 SWAP1 PUSH2 0x321D JUMP JUMPDEST PUSH2 0x1E70 SWAP2 SWAP1 PUSH2 0x37A8 JUMP JUMPDEST PUSH2 0x1E7A SWAP2 SWAP1 PUSH2 0x37A8 JUMP JUMPDEST SWAP1 POP DUP1 SWAP3 POP POP POP SWAP2 SWAP1 POP JUMP JUMPDEST PUSH1 0x0 PUSH2 0x1E92 DUP5 DUP5 PUSH2 0x1535 JUMP JUMPDEST SWAP1 POP PUSH32 0xFFFFFFFFFFFFFFFFFFFFFFFFFFFFFFFFFFFFFFFFFFFFFFFFFFFFFFFFFFFFFFFF DUP2 EQ PUSH2 0x1F0C JUMPI DUP2 DUP2 LT ISZERO PUSH2 0x1EFE JUMPI PUSH1 0x40 MLOAD PUSH32 0x8C379A000000000000000000000000000000000000000000000000000000000 DUP2 MSTORE PUSH1 0x4 ADD PUSH2 0x1EF5 SWAP1 PUSH2 0x3825 JUMP JUMPDEST PUSH1 0x40 MLOAD DUP1 SWAP2 SUB SWAP1 REVERT JUMPDEST PUSH2 0x1F0B DUP5 DUP5 DUP5 DUP5 SUB PUSH2 0x18F9 JUMP JUMPDEST JUMPDEST POP POP POP POP JUMP JUMPDEST PUSH1 0x0 PUSH20 0xFFFFFFFFFFFFFFFFFFFFFFFFFFFFFFFFFFFFFFFF AND DUP4 PUSH20 0xFFFFFFFFFFFFFFFFFFFFFFFFFFFFFFFFFFFFFFFF AND SUB PUSH2 0x1F81 JUMPI PUSH1 0x40 MLOAD PUSH32 0x8C379A000000000000000000000000000000000000000000000000000000000 DUP2 MSTORE PUSH1 0x4 ADD PUSH2 0x1F78 SWAP1 PUSH2 0x38B7 JUMP JUMPDEST PUSH1 0x40 MLOAD DUP1 SWAP2 SUB SWAP1 REVERT JUMPDEST PUSH1 0x0 PUSH20 0xFFFFFFFFFFFFFFFFFFFFFFFFFFFFFFFFFFFFFFFF AND DUP3 PUSH20 0xFFFFFFFFFFFFFFFFFFFFFFFFFFFFFFFFFFFFFFFF AND SUB PUSH2 0x1FF0 JUMPI PUSH1 0x40 MLOAD PUSH32 0x8C379A000000000000000000000000000000000000000000000000000000000 DUP2 MSTORE PUSH1 0x4 ADD PUSH2 0x1FE7 SWAP1 PUSH2 0x3949 JUMP JUMPDEST PUSH1 0x40 MLOAD DUP1 SWAP2 SUB SWAP1 REVERT JUMPDEST PUSH2 0x1FFB DUP4 DUP4 DUP4 PUSH2 0x27BC JUMP JUMPDEST PUSH1 0x0 DUP1 PUSH1 0x0 DUP6 PUSH20 0xFFFFFFFFFFFFFFFFFFFFFFFFFFFFFFFFFFFFFFFF AND PUSH20 0xFFFFFFFFFFFFFFFFFFFFFFFFFFFFFFFFFFFFFFFF AND DUP2 MSTORE PUSH1 0x20 ADD SWAP1 DUP2 MSTORE PUSH1 0x20 ADD PUSH1 0x0 KECCAK256 SLOAD SWAP1 POP DUP2 DUP2 LT ISZERO PUSH2 0x2081 JUMPI PUSH1 0x40 MLOAD PUSH32 0x8C379A000000000000000000000000000000000000000000000000000000000 DUP2 MSTORE PUSH1 0x4 ADD PUSH2 0x2078 SWAP1 PUSH2 0x39DB JUMP JUMPDEST PUSH1 0x40 MLOAD DUP1 SWAP2 SUB SWAP1 REVERT JUMPDEST DUP2 DUP2 SUB PUSH1 0x0 DUP1 DUP7 PUSH20 0xFFFFFFFFFFFFFFFFFFFFFFFFFFFFFFFFFFFFFFFF AND PUSH20 0xFFFFFFFFFFFFFFFFFFFFFFFFFFFFFFFFFFFFFFFF AND DUP2 MSTORE PUSH1 0x20 ADD SWAP1 DUP2 MSTORE PUSH1 0x20 ADD PUSH1 0x0 KECCAK256 DUP2 SWAP1 SSTORE POP DUP2 PUSH1 0x0 DUP1 DUP6 PUSH20 0xFFFFFFFFFFFFFFFFFFFFFFFFFFFFFFFFFFFFFFFF AND PUSH20 0xFFFFFFFFFFFFFFFFFFFFFFFFFFFFFFFFFFFFFFFF AND DUP2 MSTORE PUSH1 0x20 ADD SWAP1 DUP2 MSTORE PUSH1 0x20 ADD PUSH1 0x0 KECCAK256 PUSH1 0x0 DUP3 DUP3 SLOAD PUSH2 0x2114 SWAP2 SWAP1 PUSH2 0x3277 JUMP JUMPDEST SWAP3 POP POP DUP2 SWAP1 SSTORE POP DUP3 PUSH20 0xFFFFFFFFFFFFFFFFFFFFFFFFFFFFFFFFFFFFFFFF AND DUP5 PUSH20 0xFFFFFFFFFFFFFFFFFFFFFFFFFFFFFFFFFFFFFFFF AND PUSH32 0xDDF252AD1BE2C89B69C2B068FC378DAA952BA7F163C4A11628F55A4DF523B3EF DUP5 PUSH1 0x40 MLOAD PUSH2 0x2178 SWAP2 SWAP1 PUSH2 0x2AE7 JUMP JUMPDEST PUSH1 0x40 MLOAD DUP1 SWAP2 SUB SWAP1 LOG3 PUSH2 0x218B DUP5 DUP5 DUP5 PUSH2 0x2832 JUMP JUMPDEST POP POP POP POP JUMP JUMPDEST PUSH2 0x2199 PUSH2 0xBC0 JUMP JUMPDEST PUSH2 0x21D8 JUMPI PUSH1 0x40 MLOAD PUSH32 0x8C379A000000000000000000000000000000000000000000000000000000000 DUP2 MSTORE PUSH1 0x4 ADD PUSH2 0x21CF SWAP1 PUSH2 0x3A47 JUMP JUMPDEST PUSH1 0x40 MLOAD DUP1 SWAP2 SUB SWAP1 REVERT JUMPDEST PUSH1 0x0 PUSH1 0x5 PUSH1 0x0 PUSH2 0x100 EXP DUP2 SLOAD DUP2 PUSH1 0xFF MUL NOT AND SWAP1 DUP4 ISZERO ISZERO MUL OR SWAP1 SSTORE POP PUSH32 0x5DB9EE0A495BF2E6FF9C91A7834C1BA4FDD244A5E8AA4E537BD38AEAE4B073AA PUSH2 0x221C PUSH2 0x18F1 JUMP JUMPDEST PUSH1 0x40 MLOAD PUSH2 0x2229 SWAP2 SWAP1 PUSH2 0x2F8C JUMP JUMPDEST PUSH1 0x40 MLOAD DUP1 SWAP2 SUB SWAP1 LOG1 JUMP JUMPDEST PUSH1 0x0 PUSH20 0xFFFFFFFFFFFFFFFFFFFFFFFFFFFFFFFFFFFFFFFF AND DUP3 PUSH20 0xFFFFFFFFFFFFFFFFFFFFFFFFFFFFFFFFFFFFFFFF AND SUB PUSH2 0x22A2 JUMPI PUSH1 0x40 MLOAD PUSH32 0x8C379A000000000000000000000000000000000000000000000000000000000 DUP2 MSTORE PUSH1 0x4 ADD PUSH2 0x2299 SWAP1 PUSH2 0x3AB3 JUMP JUMPDEST PUSH1 0x40 MLOAD DUP1 SWAP2 SUB SWAP1 REVERT JUMPDEST PUSH2 0x22AE PUSH1 0x0 DUP4 DUP4 PUSH2 0x27BC JUMP JUMPDEST DUP1 PUSH1 0x2 PUSH1 0x0 DUP3 DUP3 SLOAD PUSH2 0x22C0 SWAP2 SWAP1 PUSH2 0x3277 JUMP JUMPDEST SWAP3 POP POP DUP2 SWAP1 SSTORE POP DUP1 PUSH1 0x0 DUP1 DUP5 PUSH20 0xFFFFFFFFFFFFFFFFFFFFFFFFFFFFFFFFFFFFFFFF AND PUSH20 0xFFFFFFFFFFFFFFFFFFFFFFFFFFFFFFFFFFFFFFFF AND DUP2 MSTORE PUSH1 0x20 ADD SWAP1 DUP2 MSTORE PUSH1 0x20 ADD PUSH1 0x0 KECCAK256 PUSH1 0x0 DUP3 DUP3 SLOAD PUSH2 0x2315 SWAP2 SWAP1 PUSH2 0x3277 JUMP JUMPDEST SWAP3 POP POP DUP2 SWAP1 SSTORE POP DUP2 PUSH20 0xFFFFFFFFFFFFFFFFFFFFFFFFFFFFFFFFFFFFFFFF AND PUSH1 0x0 PUSH20 0xFFFFFFFFFFFFFFFFFFFFFFFFFFFFFFFFFFFFFFFF AND PUSH32 0xDDF252AD1BE2C89B69C2B068FC378DAA952BA7F163C4A11628F55A4DF523B3EF DUP4 PUSH1 0x40 MLOAD PUSH2 0x237A SWAP2 SWAP1 PUSH2 0x2AE7 JUMP JUMPDEST PUSH1 0x40 MLOAD DUP1 SWAP2 SUB SWAP1 LOG3 PUSH2 0x238E PUSH1 0x0 DUP4 DUP4 PUSH2 0x2832 JUMP JUMPDEST POP POP JUMP JUMPDEST PUSH1 0x0 DUP1 PUSH1 0x0 DUP5 GT PUSH2 0x23D8 JUMPI PUSH1 0x40 MLOAD PUSH32 0x8C379A000000000000000000000000000000000000000000000000000000000 DUP2 MSTORE PUSH1 0x4 ADD PUSH2 0x23CF SWAP1 PUSH2 0x3B1F JUMP JUMPDEST PUSH1 0x40 MLOAD DUP1 SWAP2 SUB SWAP1 REVERT JUMPDEST PUSH2 0x23E0 PUSH2 0x18E0 JUMP JUMPDEST DUP5 GT ISZERO PUSH2 0x2422 JUMPI PUSH1 0x40 MLOAD PUSH32 0x8C379A000000000000000000000000000000000000000000000000000000000 DUP2 MSTORE PUSH1 0x4 ADD PUSH2 0x2419 SWAP1 PUSH2 0x3B8B JUMP JUMPDEST PUSH1 0x40 MLOAD DUP1 SWAP2 SUB SWAP1 REVERT JUMPDEST PUSH1 0x0 PUSH2 0x243A DUP6 DUP6 PUSH1 0x0 ADD PUSH2 0x2837 SWAP1 SWAP2 SWAP1 PUSH4 0xFFFFFFFF AND JUMP JUMPDEST SWAP1 POP DUP4 PUSH1 0x0 ADD DUP1 SLOAD SWAP1 POP DUP2 SUB PUSH2 0x2457 JUMPI PUSH1 0x0 DUP1 SWAP3 POP SWAP3 POP POP PUSH2 0x2480 JUMP JUMPDEST PUSH1 0x1 DUP5 PUSH1 0x1 ADD DUP3 DUP2 SLOAD DUP2 LT PUSH2 0x246F JUMPI PUSH2 0x246E PUSH2 0x3362 JUMP JUMPDEST JUMPDEST SWAP1 PUSH1 0x0 MSTORE PUSH1 0x20 PUSH1 0x0 KECCAK256 ADD SLOAD SWAP3 POP SWAP3 POP POP JUMPDEST SWAP3 POP SWAP3 SWAP1 POP JUMP JUMPDEST PUSH1 0x0 PUSH1 0x5 PUSH1 0x1 SWAP1 SLOAD SWAP1 PUSH2 0x100 EXP SWAP1 DIV PUSH20 0xFFFFFFFFFFFFFFFFFFFFFFFFFFFFFFFFFFFFFFFF AND SWAP1 POP DUP2 PUSH1 0x5 PUSH1 0x1 PUSH2 0x100 EXP DUP2 SLOAD DUP2 PUSH20 0xFFFFFFFFFFFFFFFFFFFFFFFFFFFFFFFFFFFFFFFF MUL NOT AND SWAP1 DUP4 PUSH20 0xFFFFFFFFFFFFFFFFFFFFFFFFFFFFFFFFFFFFFFFF AND MUL OR SWAP1 SSTORE POP DUP2 PUSH20 0xFFFFFFFFFFFFFFFFFFFFFFFFFFFFFFFFFFFFFFFF AND DUP2 PUSH20 0xFFFFFFFFFFFFFFFFFFFFFFFFFFFFFFFFFFFFFFFF AND PUSH32 0x8BE0079C531659141344CD1FD0A4F28419497F9722A3DAAFE3B4186F6B6457E0 PUSH1 0x40 MLOAD PUSH1 0x40 MLOAD DUP1 SWAP2 SUB SWAP1 LOG3 POP POP JUMP JUMPDEST PUSH2 0x2555 PUSH2 0xBC0 JUMP JUMPDEST ISZERO PUSH2 0x2595 JUMPI PUSH1 0x40 MLOAD PUSH32 0x8C379A000000000000000000000000000000000000000000000000000000000 DUP2 MSTORE PUSH1 0x4 ADD PUSH2 0x258C SWAP1 PUSH2 0x3BF7 JUMP JUMPDEST PUSH1 0x40 MLOAD DUP1 SWAP2 SUB SWAP1 REVERT JUMPDEST PUSH1 0x1 PUSH1 0x5 PUSH1 0x0 PUSH2 0x100 EXP DUP2 SLOAD DUP2 PUSH1 0xFF MUL NOT AND SWAP1 DUP4 ISZERO ISZERO MUL OR SWAP1 SSTORE POP PUSH32 0x62E78CEA01BEE320CD4E420270B5EA74000D11B0C9F74754EBDBFC544B05A258 PUSH2 0x25D9 PUSH2 0x18F1 JUMP JUMPDEST PUSH1 0x40 MLOAD PUSH2 0x25E6 SWAP2 SWAP1 PUSH2 0x2F8C JUMP JUMPDEST PUSH1 0x40 MLOAD DUP1 SWAP2 SUB SWAP1 LOG1 JUMP JUMPDEST PUSH1 0x0 DUP1 PUSH2 0x25FC DUP4 PUSH2 0x15BC JUMP JUMPDEST SWAP2 POP SWAP2 POP DUP2 ISZERO PUSH2 0x26FA JUMPI PUSH1 0xA PUSH1 0x1 PUSH1 0xA DUP1 SLOAD SWAP1 POP PUSH2 0x261A SWAP2 SWAP1 PUSH2 0x33D9 JUMP JUMPDEST DUP2 SLOAD DUP2 LT PUSH2 0x262B JUMPI PUSH2 0x262A PUSH2 0x3362 JUMP JUMPDEST JUMPDEST SWAP1 PUSH1 0x0 MSTORE PUSH1 0x20 PUSH1 0x0 KECCAK256 ADD PUSH1 0x0 SWAP1 SLOAD SWAP1 PUSH2 0x100 EXP SWAP1 DIV PUSH20 0xFFFFFFFFFFFFFFFFFFFFFFFFFFFFFFFFFFFFFFFF AND PUSH1 0xA DUP3 DUP2 SLOAD DUP2 LT PUSH2 0x266A JUMPI PUSH2 0x2669 PUSH2 0x3362 JUMP JUMPDEST JUMPDEST SWAP1 PUSH1 0x0 MSTORE PUSH1 0x20 PUSH1 0x0 KECCAK256 ADD PUSH1 0x0 PUSH2 0x100 EXP DUP2 SLOAD DUP2 PUSH20 0xFFFFFFFFFFFFFFFFFFFFFFFFFFFFFFFFFFFFFFFF MUL NOT AND SWAP1 DUP4 PUSH20 0xFFFFFFFFFFFFFFFFFFFFFFFFFFFFFFFFFFFFFFFF AND MUL OR SWAP1 SSTORE POP PUSH1 0xA DUP1 SLOAD DUP1 PUSH2 0x26C4 JUMPI PUSH2 0x26C3 PUSH2 0x3C17 JUMP JUMPDEST JUMPDEST PUSH1 0x1 SWAP1 SUB DUP2 DUP2 SWAP1 PUSH1 0x0 MSTORE PUSH1 0x20 PUSH1 0x0 KECCAK256 ADD PUSH1 0x0 PUSH2 0x100 EXP DUP2 SLOAD SWAP1 PUSH20 0xFFFFFFFFFFFFFFFFFFFFFFFFFFFFFFFFFFFFFFFF MUL NOT AND SWAP1 SSTORE SWAP1 SSTORE JUMPDEST POP POP POP JUMP JUMPDEST PUSH1 0x0 PUSH2 0x270B PUSH1 0x9 PUSH2 0x2910 JUMP JUMPDEST PUSH1 0x0 PUSH2 0x2715 PUSH2 0x18E0 JUMP JUMPDEST SWAP1 POP PUSH32 0x8030E83B04D87BEF53480E26263266D6CA66863AA8506ACA6F2559D18AA1CB67 DUP2 PUSH1 0x40 MLOAD PUSH2 0x2746 SWAP2 SWAP1 PUSH2 0x2AE7 JUMP JUMPDEST PUSH1 0x40 MLOAD DUP1 SWAP2 SUB SWAP1 LOG1 DUP1 SWAP2 POP POP SWAP1 JUMP JUMPDEST PUSH2 0x27A5 PUSH1 0x6 PUSH1 0x0 DUP4 PUSH20 0xFFFFFFFFFFFFFFFFFFFFFFFFFFFFFFFFFFFFFFFF AND PUSH20 0xFFFFFFFFFFFFFFFFFFFFFFFFFFFFFFFFFFFFFFFF AND DUP2 MSTORE PUSH1 0x20 ADD SWAP1 DUP2 MSTORE PUSH1 0x20 ADD PUSH1 0x0 KECCAK256 PUSH2 0x27A0 DUP4 PUSH2 0xCC7 JUMP JUMPDEST PUSH2 0x2926 JUMP JUMPDEST POP JUMP JUMPDEST PUSH2 0x27BA PUSH1 0x7 PUSH2 0x27B5 PUSH2 0x741 JUMP JUMPDEST PUSH2 0x2926 JUMP JUMPDEST JUMP JUMPDEST PUSH2 0x27C4 PUSH2 0xBC0 JUMP JUMPDEST ISZERO PUSH2 0x2804 JUMPI PUSH1 0x40 MLOAD PUSH32 0x8C379A000000000000000000000000000000000000000000000000000000000 DUP2 MSTORE PUSH1 0x4 ADD PUSH2 0x27FB SWAP1 PUSH2 0x3BF7 JUMP JUMPDEST PUSH1 0x40 MLOAD DUP1 SWAP2 SUB SWAP1 REVERT JUMPDEST PUSH2 0x282D DUP4 DUP4 PUSH2 0x2811 PUSH2 0x982 JUMP JUMPDEST PUSH1 0xA PUSH2 0x281D SWAP2 SWAP1 PUSH2 0x31D2 JUMP JUMPDEST DUP5 PUSH2 0x2828 SWAP2 SWAP1 PUSH2 0x321D JUMP JUMPDEST PUSH2 0x1815 JUMP JUMPDEST POP POP POP JUMP JUMPDEST POP POP POP JUMP JUMPDEST PUSH1 0x0 DUP1 DUP4 DUP1 SLOAD SWAP1 POP SUB PUSH2 0x284D JUMPI PUSH1 0x0 SWAP1 POP PUSH2 0x290A JUMP JUMPDEST PUSH1 0x0 DUP1 DUP5 DUP1 SLOAD SWAP1 POP SWAP1 POP JUMPDEST DUP1 DUP3 LT ISZERO PUSH2 0x28B1 JUMPI PUSH1 0x0 PUSH2 0x286C DUP4 DUP4 PUSH2 0x29A1 JUMP JUMPDEST SWAP1 POP DUP5 DUP7 DUP3 DUP2 SLOAD DUP2 LT PUSH2 0x2882 JUMPI PUSH2 0x2881 PUSH2 0x3362 JUMP JUMPDEST JUMPDEST SWAP1 PUSH1 0x0 MSTORE PUSH1 0x20 PUSH1 0x0 KECCAK256 ADD SLOAD GT ISZERO PUSH2 0x289B JUMPI DUP1 SWAP2 POP PUSH2 0x28AB JUMP JUMPDEST PUSH1 0x1 DUP2 PUSH2 0x28A8 SWAP2 SWAP1 PUSH2 0x3277 JUMP JUMPDEST SWAP3 POP JUMPDEST POP PUSH2 0x2858 JUMP JUMPDEST PUSH1 0x0 DUP3 GT DUP1 ISZERO PUSH2 0x28E9 JUMPI POP DUP4 DUP6 PUSH1 0x1 DUP5 PUSH2 0x28CB SWAP2 SWAP1 PUSH2 0x33D9 JUMP JUMPDEST DUP2 SLOAD DUP2 LT PUSH2 0x28DC JUMPI PUSH2 0x28DB PUSH2 0x3362 JUMP JUMPDEST JUMPDEST SWAP1 PUSH1 0x0 MSTORE PUSH1 0x20 PUSH1 0x0 KECCAK256 ADD SLOAD EQ JUMPDEST ISZERO PUSH2 0x2904 JUMPI PUSH1 0x1 DUP3 PUSH2 0x28FB SWAP2 SWAP1 PUSH2 0x33D9 JUMP JUMPDEST SWAP3 POP POP POP PUSH2 0x290A JUMP JUMPDEST DUP2 SWAP3 POP POP POP JUMPDEST SWAP3 SWAP2 POP POP JUMP JUMPDEST PUSH1 0x1 DUP2 PUSH1 0x0 ADD PUSH1 0x0 DUP3 DUP3 SLOAD ADD SWAP3 POP POP DUP2 SWAP1 SSTORE POP POP JUMP JUMPDEST PUSH1 0x0 PUSH2 0x2930 PUSH2 0x18E0 JUMP JUMPDEST SWAP1 POP DUP1 PUSH2 0x293F DUP5 PUSH1 0x0 ADD PUSH2 0x29C7 JUMP JUMPDEST LT ISZERO PUSH2 0x299C JUMPI DUP3 PUSH1 0x0 ADD DUP2 SWAP1 DUP1 PUSH1 0x1 DUP2 SLOAD ADD DUP1 DUP3 SSTORE DUP1 SWAP2 POP POP PUSH1 0x1 SWAP1 SUB SWAP1 PUSH1 0x0 MSTORE PUSH1 0x20 PUSH1 0x0 KECCAK256 ADD PUSH1 0x0 SWAP1 SWAP2 SWAP1 SWAP2 SWAP1 SWAP2 POP SSTORE DUP3 PUSH1 0x1 ADD DUP3 SWAP1 DUP1 PUSH1 0x1 DUP2 SLOAD ADD DUP1 DUP3 SSTORE DUP1 SWAP2 POP POP PUSH1 0x1 SWAP1 SUB SWAP1 PUSH1 0x0 MSTORE PUSH1 0x20 PUSH1 0x0 KECCAK256 ADD PUSH1 0x0 SWAP1 SWAP2 SWAP1 SWAP2 SWAP1 SWAP2 POP SSTORE JUMPDEST POP POP POP JUMP JUMPDEST PUSH1 0x0 PUSH1 0x2 DUP3 DUP5 XOR PUSH2 0x29B2 SWAP2 SWAP1 PUSH2 0x37A8 JUMP JUMPDEST DUP3 DUP5 AND PUSH2 0x29BF SWAP2 SWAP1 PUSH2 0x3277 JUMP JUMPDEST SWAP1 POP SWAP3 SWAP2 POP POP JUMP JUMPDEST PUSH1 0x0 DUP1 DUP3 DUP1 SLOAD SWAP1 POP SUB PUSH2 0x29DD JUMPI PUSH1 0x0 SWAP1 POP PUSH2 0x2A0E JUMP JUMPDEST DUP2 PUSH1 0x1 DUP4 DUP1 SLOAD SWAP1 POP PUSH2 0x29EF SWAP2 SWAP1 PUSH2 0x33D9 JUMP JUMPDEST DUP2 SLOAD DUP2 LT PUSH2 0x2A00 JUMPI PUSH2 0x29FF PUSH2 0x3362 JUMP JUMPDEST JUMPDEST SWAP1 PUSH1 0x0 MSTORE PUSH1 0x20 PUSH1 0x0 KECCAK256 ADD SLOAD SWAP1 POP JUMPDEST SWAP2 SWAP1 POP JUMP JUMPDEST PUSH1 0x0 DUP2 MLOAD SWAP1 POP SWAP2 SWAP1 POP JUMP JUMPDEST PUSH1 0x0 DUP3 DUP3 MSTORE PUSH1 0x20 DUP3 ADD SWAP1 POP SWAP3 SWAP2 POP POP JUMP JUMPDEST PUSH1 0x0 JUMPDEST DUP4 DUP2 LT ISZERO PUSH2 0x2A4D JUMPI DUP1 DUP3 ADD MLOAD DUP2 DUP5 ADD MSTORE PUSH1 0x20 DUP2 ADD SWAP1 POP PUSH2 0x2A32 JUMP JUMPDEST DUP4 DUP2 GT ISZERO PUSH2 0x2A5C JUMPI PUSH1 0x0 DUP5 DUP5 ADD MSTORE JUMPDEST POP POP POP POP JUMP JUMPDEST PUSH1 0x0 PUSH1 0x1F NOT PUSH1 0x1F DUP4 ADD AND SWAP1 POP SWAP2 SWAP1 POP JUMP JUMPDEST PUSH1 0x0 PUSH2 0x2A7E DUP3 PUSH2 0x2A13 JUMP JUMPDEST PUSH2 0x2A88 DUP2 DUP6 PUSH2 0x2A1E JUMP JUMPDEST SWAP4 POP PUSH2 0x2A98 DUP2 DUP6 PUSH1 0x20 DUP7 ADD PUSH2 0x2A2F JUMP JUMPDEST PUSH2 0x2AA1 DUP2 PUSH2 0x2A62 JUMP JUMPDEST DUP5 ADD SWAP2 POP POP SWAP3 SWAP2 POP POP JUMP JUMPDEST PUSH1 0x0 PUSH1 0x20 DUP3 ADD SWAP1 POP DUP2 DUP2 SUB PUSH1 0x0 DUP4 ADD MSTORE PUSH2 0x2AC6 DUP2 DUP5 PUSH2 0x2A73 JUMP JUMPDEST SWAP1 POP SWAP3 SWAP2 POP POP JUMP JUMPDEST PUSH1 0x0 DUP2 SWAP1 POP SWAP2 SWAP1 POP JUMP JUMPDEST PUSH2 0x2AE1 DUP2 PUSH2 0x2ACE JUMP JUMPDEST DUP3 MSTORE POP POP JUMP JUMPDEST PUSH1 0x0 PUSH1 0x20 DUP3 ADD SWAP1 POP PUSH2 0x2AFC PUSH1 0x0 DUP4 ADD DUP5 PUSH2 0x2AD8 JUMP JUMPDEST SWAP3 SWAP2 POP POP JUMP JUMPDEST PUSH1 0x0 PUSH1 0x40 MLOAD SWAP1 POP SWAP1 JUMP JUMPDEST PUSH1 0x0 DUP1 REVERT JUMPDEST PUSH1 0x0 DUP1 REVERT JUMPDEST PUSH1 0x0 PUSH20 0xFFFFFFFFFFFFFFFFFFFFFFFFFFFFFFFFFFFFFFFF DUP3 AND SWAP1 POP SWAP2 SWAP1 POP JUMP JUMPDEST PUSH1 0x0 PUSH2 0x2B41 DUP3 PUSH2 0x2B16 JUMP JUMPDEST SWAP1 POP SWAP2 SWAP1 POP JUMP JUMPDEST PUSH2 0x2B51 DUP2 PUSH2 0x2B36 JUMP JUMPDEST DUP2 EQ PUSH2 0x2B5C JUMPI PUSH1 0x0 DUP1 REVERT JUMPDEST POP JUMP JUMPDEST PUSH1 0x0 DUP2 CALLDATALOAD SWAP1 POP PUSH2 0x2B6E DUP2 PUSH2 0x2B48 JUMP JUMPDEST SWAP3 SWAP2 POP POP JUMP JUMPDEST PUSH2 0x2B7D DUP2 PUSH2 0x2ACE JUMP JUMPDEST DUP2 EQ PUSH2 0x2B88 JUMPI PUSH1 0x0 DUP1 REVERT JUMPDEST POP JUMP JUMPDEST PUSH1 0x0 DUP2 CALLDATALOAD SWAP1 POP PUSH2 0x2B9A DUP2 PUSH2 0x2B74 JUMP JUMPDEST SWAP3 SWAP2 POP POP JUMP JUMPDEST PUSH1 0x0 DUP1 PUSH1 0x40 DUP4 DUP6 SUB SLT ISZERO PUSH2 0x2BB7 JUMPI PUSH2 0x2BB6 PUSH2 0x2B0C JUMP JUMPDEST JUMPDEST PUSH1 0x0 PUSH2 0x2BC5 DUP6 DUP3 DUP7 ADD PUSH2 0x2B5F JUMP JUMPDEST SWAP3 POP POP PUSH1 0x20 PUSH2 0x2BD6 DUP6 DUP3 DUP7 ADD PUSH2 0x2B8B JUMP JUMPDEST SWAP2 POP POP SWAP3 POP SWAP3 SWAP1 POP JUMP JUMPDEST PUSH1 0x0 DUP2 ISZERO ISZERO SWAP1 POP SWAP2 SWAP1 POP JUMP JUMPDEST PUSH2 0x2BF5 DUP2 PUSH2 0x2BE0 JUMP JUMPDEST DUP3 MSTORE POP POP JUMP JUMPDEST PUSH1 0x0 PUSH1 0x20 DUP3 ADD SWAP1 POP PUSH2 0x2C10 PUSH1 0x0 DUP4 ADD DUP5 PUSH2 0x2BEC JUMP JUMPDEST SWAP3 SWAP2 POP POP JUMP JUMPDEST PUSH1 0x0 PUSH1 0x20 DUP3 DUP5 SUB SLT ISZERO PUSH2 0x2C2C JUMPI PUSH2 0x2C2B PUSH2 0x2B0C JUMP JUMPDEST JUMPDEST PUSH1 0x0 PUSH2 0x2C3A DUP5 DUP3 DUP6 ADD PUSH2 0x2B8B JUMP JUMPDEST SWAP2 POP POP SWAP3 SWAP2 POP POP JUMP JUMPDEST PUSH1 0x0 PUSH1 0x20 DUP3 DUP5 SUB SLT ISZERO PUSH2 0x2C59 JUMPI PUSH2 0x2C58 PUSH2 0x2B0C JUMP JUMPDEST JUMPDEST PUSH1 0x0 PUSH2 0x2C67 DUP5 DUP3 DUP6 ADD PUSH2 0x2B5F JUMP JUMPDEST SWAP2 POP POP SWAP3 SWAP2 POP POP JUMP JUMPDEST PUSH1 0x0 DUP1 PUSH1 0x0 PUSH1 0x60 DUP5 DUP7 SUB SLT ISZERO PUSH2 0x2C89 JUMPI PUSH2 0x2C88 PUSH2 0x2B0C JUMP JUMPDEST JUMPDEST PUSH1 0x0 PUSH2 0x2C97 DUP7 DUP3 DUP8 ADD PUSH2 0x2B5F JUMP JUMPDEST SWAP4 POP POP PUSH1 0x20 PUSH2 0x2CA8 DUP7 DUP3 DUP8 ADD PUSH2 0x2B5F JUMP JUMPDEST SWAP3 POP POP PUSH1 0x40 PUSH2 0x2CB9 DUP7 DUP3 DUP8 ADD PUSH2 0x2B8B JUMP JUMPDEST SWAP2 POP POP SWAP3 POP SWAP3 POP SWAP3 JUMP JUMPDEST PUSH1 0x0 PUSH1 0xFF DUP3 AND SWAP1 POP SWAP2 SWAP1 POP JUMP JUMPDEST PUSH2 0x2CD9 DUP2 PUSH2 0x2CC3 JUMP JUMPDEST DUP3 MSTORE POP POP JUMP JUMPDEST PUSH1 0x0 PUSH1 0x20 DUP3 ADD SWAP1 POP PUSH2 0x2CF4 PUSH1 0x0 DUP4 ADD DUP5 PUSH2 0x2CD0 JUMP JUMPDEST SWAP3 SWAP2 POP POP JUMP JUMPDEST PUSH1 0x0 DUP1 REVERT JUMPDEST PUSH32 0x4E487B7100000000000000000000000000000000000000000000000000000000 PUSH1 0x0 MSTORE PUSH1 0x41 PUSH1 0x4 MSTORE PUSH1 0x24 PUSH1 0x0 REVERT JUMPDEST PUSH2 0x2D37 DUP3 PUSH2 0x2A62 JUMP JUMPDEST DUP2 ADD DUP2 DUP2 LT PUSH8 0xFFFFFFFFFFFFFFFF DUP3 GT OR ISZERO PUSH2 0x2D56 JUMPI PUSH2 0x2D55 PUSH2 0x2CFF JUMP JUMPDEST JUMPDEST DUP1 PUSH1 0x40 MSTORE POP POP POP JUMP JUMPDEST PUSH1 0x0 PUSH2 0x2D69 PUSH2 0x2B02 JUMP JUMPDEST SWAP1 POP PUSH2 0x2D75 DUP3 DUP3 PUSH2 0x2D2E JUMP JUMPDEST SWAP2 SWAP1 POP JUMP JUMPDEST PUSH1 0x0 PUSH8 0xFFFFFFFFFFFFFFFF DUP3 GT ISZERO PUSH2 0x2D95 JUMPI PUSH2 0x2D94 PUSH2 0x2CFF JUMP JUMPDEST JUMPDEST PUSH1 0x20 DUP3 MUL SWAP1 POP PUSH1 0x20 DUP2 ADD SWAP1 POP SWAP2 SWAP1 POP JUMP JUMPDEST PUSH1 0x0 DUP1 REVERT JUMPDEST PUSH1 0x0 PUSH2 0x2DBE PUSH2 0x2DB9 DUP5 PUSH2 0x2D7A JUMP JUMPDEST PUSH2 0x2D5F JUMP JUMPDEST SWAP1 POP DUP1 DUP4 DUP3 MSTORE PUSH1 0x20 DUP3 ADD SWAP1 POP PUSH1 0x20 DUP5 MUL DUP4 ADD DUP6 DUP2 GT ISZERO PUSH2 0x2DE1 JUMPI PUSH2 0x2DE0 PUSH2 0x2DA6 JUMP JUMPDEST JUMPDEST DUP4 JUMPDEST DUP2 DUP2 LT ISZERO PUSH2 0x2E0A JUMPI DUP1 PUSH2 0x2DF6 DUP9 DUP3 PUSH2 0x2B5F JUMP JUMPDEST DUP5 MSTORE PUSH1 0x20 DUP5 ADD SWAP4 POP POP PUSH1 0x20 DUP2 ADD SWAP1 POP PUSH2 0x2DE3 JUMP JUMPDEST POP POP POP SWAP4 SWAP3 POP POP POP JUMP JUMPDEST PUSH1 0x0 DUP3 PUSH1 0x1F DUP4 ADD SLT PUSH2 0x2E29 JUMPI PUSH2 0x2E28 PUSH2 0x2CFA JUMP JUMPDEST JUMPDEST DUP2 CALLDATALOAD PUSH2 0x2E39 DUP5 DUP3 PUSH1 0x20 DUP7 ADD PUSH2 0x2DAB JUMP JUMPDEST SWAP2 POP POP SWAP3 SWAP2 POP POP JUMP JUMPDEST PUSH1 0x0 PUSH8 0xFFFFFFFFFFFFFFFF DUP3 GT ISZERO PUSH2 0x2E5D JUMPI PUSH2 0x2E5C PUSH2 0x2CFF JUMP JUMPDEST JUMPDEST PUSH1 0x20 DUP3 MUL SWAP1 POP PUSH1 0x20 DUP2 ADD SWAP1 POP SWAP2 SWAP1 POP JUMP JUMPDEST PUSH1 0x0 PUSH2 0x2E81 PUSH2 0x2E7C DUP5 PUSH2 0x2E42 JUMP JUMPDEST PUSH2 0x2D5F JUMP JUMPDEST SWAP1 POP DUP1 DUP4 DUP3 MSTORE PUSH1 0x20 DUP3 ADD SWAP1 POP PUSH1 0x20 DUP5 MUL DUP4 ADD DUP6 DUP2 GT ISZERO PUSH2 0x2EA4 JUMPI PUSH2 0x2EA3 PUSH2 0x2DA6 JUMP JUMPDEST JUMPDEST DUP4 JUMPDEST DUP2 DUP2 LT ISZERO PUSH2 0x2ECD JUMPI DUP1 PUSH2 0x2EB9 DUP9 DUP3 PUSH2 0x2B8B JUMP JUMPDEST DUP5 MSTORE PUSH1 0x20 DUP5 ADD SWAP4 POP POP PUSH1 0x20 DUP2 ADD SWAP1 POP PUSH2 0x2EA6 JUMP JUMPDEST POP POP POP SWAP4 SWAP3 POP POP POP JUMP JUMPDEST PUSH1 0x0 DUP3 PUSH1 0x1F DUP4 ADD SLT PUSH2 0x2EEC JUMPI PUSH2 0x2EEB PUSH2 0x2CFA JUMP JUMPDEST JUMPDEST DUP2 CALLDATALOAD PUSH2 0x2EFC DUP5 DUP3 PUSH1 0x20 DUP7 ADD PUSH2 0x2E6E JUMP JUMPDEST SWAP2 POP POP SWAP3 SWAP2 POP POP JUMP JUMPDEST PUSH1 0x0 DUP1 PUSH1 0x40 DUP4 DUP6 SUB SLT ISZERO PUSH2 0x2F1C JUMPI PUSH2 0x2F1B PUSH2 0x2B0C JUMP JUMPDEST JUMPDEST PUSH1 0x0 DUP4 ADD CALLDATALOAD PUSH8 0xFFFFFFFFFFFFFFFF DUP2 GT ISZERO PUSH2 0x2F3A JUMPI PUSH2 0x2F39 PUSH2 0x2B11 JUMP JUMPDEST JUMPDEST PUSH2 0x2F46 DUP6 DUP3 DUP7 ADD PUSH2 0x2E14 JUMP JUMPDEST SWAP3 POP POP PUSH1 0x20 DUP4 ADD CALLDATALOAD PUSH8 0xFFFFFFFFFFFFFFFF DUP2 GT ISZERO PUSH2 0x2F67 JUMPI PUSH2 0x2F66 PUSH2 0x2B11 JUMP JUMPDEST JUMPDEST PUSH2 0x2F73 DUP6 DUP3 DUP7 ADD PUSH2 0x2ED7 JUMP JUMPDEST SWAP2 POP POP SWAP3 POP SWAP3 SWAP1 POP JUMP JUMPDEST PUSH2 0x2F86 DUP2 PUSH2 0x2B36 JUMP JUMPDEST DUP3 MSTORE POP POP JUMP JUMPDEST PUSH1 0x0 PUSH1 0x20 DUP3 ADD SWAP1 POP PUSH2 0x2FA1 PUSH1 0x0 DUP4 ADD DUP5 PUSH2 0x2F7D JUMP JUMPDEST SWAP3 SWAP2 POP POP JUMP JUMPDEST PUSH1 0x0 DUP1 PUSH1 0x40 DUP4 DUP6 SUB SLT ISZERO PUSH2 0x2FBE JUMPI PUSH2 0x2FBD PUSH2 0x2B0C JUMP JUMPDEST JUMPDEST PUSH1 0x0 PUSH2 0x2FCC DUP6 DUP3 DUP7 ADD PUSH2 0x2B5F JUMP JUMPDEST SWAP3 POP POP PUSH1 0x20 PUSH2 0x2FDD DUP6 DUP3 DUP7 ADD PUSH2 0x2B5F JUMP JUMPDEST SWAP2 POP POP SWAP3 POP SWAP3 SWAP1 POP JUMP JUMPDEST PUSH1 0x0 PUSH1 0x40 DUP3 ADD SWAP1 POP PUSH2 0x2FFC PUSH1 0x0 DUP4 ADD DUP6 PUSH2 0x2BEC JUMP JUMPDEST PUSH2 0x3009 PUSH1 0x20 DUP4 ADD DUP5 PUSH2 0x2AD8 JUMP JUMPDEST SWAP4 SWAP3 POP POP POP JUMP JUMPDEST PUSH32 0x4E487B7100000000000000000000000000000000000000000000000000000000 PUSH1 0x0 MSTORE PUSH1 0x22 PUSH1 0x4 MSTORE PUSH1 0x24 PUSH1 0x0 REVERT JUMPDEST PUSH1 0x0 PUSH1 0x2 DUP3 DIV SWAP1 POP PUSH1 0x1 DUP3 AND DUP1 PUSH2 0x3057 JUMPI PUSH1 0x7F DUP3 AND SWAP2 POP JUMPDEST PUSH1 0x20 DUP3 LT DUP2 SUB PUSH2 0x306A JUMPI PUSH2 0x3069 PUSH2 0x3010 JUMP JUMPDEST JUMPDEST POP SWAP2 SWAP1 POP JUMP JUMPDEST PUSH32 0x4E487B7100000000000000000000000000000000000000000000000000000000 PUSH1 0x0 MSTORE PUSH1 0x11 PUSH1 0x4 MSTORE PUSH1 0x24 PUSH1 0x0 REVERT JUMPDEST PUSH1 0x0 DUP2 PUSH1 0x1 SHR SWAP1 POP SWAP2 SWAP1 POP JUMP JUMPDEST PUSH1 0x0 DUP1 DUP3 SWAP2 POP DUP4 SWAP1 POP JUMPDEST PUSH1 0x1 DUP6 GT ISZERO PUSH2 0x30F6 JUMPI DUP1 DUP7 DIV DUP2 GT ISZERO PUSH2 0x30D2 JUMPI PUSH2 0x30D1 PUSH2 0x3070 JUMP JUMPDEST JUMPDEST PUSH1 0x1 DUP6 AND ISZERO PUSH2 0x30E1 JUMPI DUP1 DUP3 MUL SWAP2 POP JUMPDEST DUP1 DUP2 MUL SWAP1 POP PUSH2 0x30EF DUP6 PUSH2 0x309F JUMP JUMPDEST SWAP5 POP PUSH2 0x30B6 JUMP JUMPDEST SWAP5 POP SWAP5 SWAP3 POP POP POP JUMP JUMPDEST PUSH1 0x0 DUP3 PUSH2 0x310F JUMPI PUSH1 0x1 SWAP1 POP PUSH2 0x31CB JUMP JUMPDEST DUP2 PUSH2 0x311D JUMPI PUSH1 0x0 SWAP1 POP PUSH2 0x31CB JUMP JUMPDEST DUP2 PUSH1 0x1 DUP2 EQ PUSH2 0x3133 JUMPI PUSH1 0x2 DUP2 EQ PUSH2 0x313D JUMPI PUSH2 0x316C JUMP JUMPDEST PUSH1 0x1 SWAP2 POP POP PUSH2 0x31CB JUMP JUMPDEST PUSH1 0xFF DUP5 GT ISZERO PUSH2 0x314F JUMPI PUSH2 0x314E PUSH2 0x3070 JUMP JUMPDEST JUMPDEST DUP4 PUSH1 0x2 EXP SWAP2 POP DUP5 DUP3 GT ISZERO PUSH2 0x3166 JUMPI PUSH2 0x3165 PUSH2 0x3070 JUMP JUMPDEST JUMPDEST POP PUSH2 0x31CB JUMP JUMPDEST POP PUSH1 0x20 DUP4 LT PUSH2 0x133 DUP4 LT AND PUSH1 0x4E DUP5 LT PUSH1 0xB DUP5 LT AND OR ISZERO PUSH2 0x31A1 JUMPI DUP3 DUP3 EXP SWAP1 POP DUP4 DUP2 GT ISZERO PUSH2 0x319C JUMPI PUSH2 0x319B PUSH2 0x3070 JUMP JUMPDEST JUMPDEST PUSH2 0x31CB JUMP JUMPDEST PUSH2 0x31AE DUP5 DUP5 DUP5 PUSH1 0x1 PUSH2 0x30AC JUMP JUMPDEST SWAP3 POP SWAP1 POP DUP2 DUP5 DIV DUP2 GT ISZERO PUSH2 0x31C5 JUMPI PUSH2 0x31C4 PUSH2 0x3070 JUMP JUMPDEST JUMPDEST DUP2 DUP2 MUL SWAP1 POP JUMPDEST SWAP4 SWAP3 POP POP POP JUMP JUMPDEST PUSH1 0x0 PUSH2 0x31DD DUP3 PUSH2 0x2ACE JUMP JUMPDEST SWAP2 POP PUSH2 0x31E8 DUP4 PUSH2 0x2CC3 JUMP JUMPDEST SWAP3 POP PUSH2 0x3215 PUSH32 0xFFFFFFFFFFFFFFFFFFFFFFFFFFFFFFFFFFFFFFFFFFFFFFFFFFFFFFFFFFFFFFFF DUP5 DUP5 PUSH2 0x30FF JUMP JUMPDEST SWAP1 POP SWAP3 SWAP2 POP POP JUMP JUMPDEST PUSH1 0x0 PUSH2 0x3228 DUP3 PUSH2 0x2ACE JUMP JUMPDEST SWAP2 POP PUSH2 0x3233 DUP4 PUSH2 0x2ACE JUMP JUMPDEST SWAP3 POP DUP2 PUSH32 0xFFFFFFFFFFFFFFFFFFFFFFFFFFFFFFFFFFFFFFFFFFFFFFFFFFFFFFFFFFFFFFFF DIV DUP4 GT DUP3 ISZERO ISZERO AND ISZERO PUSH2 0x326C JUMPI PUSH2 0x326B PUSH2 0x3070 JUMP JUMPDEST JUMPDEST DUP3 DUP3 MUL SWAP1 POP SWAP3 SWAP2 POP POP JUMP JUMPDEST PUSH1 0x0 PUSH2 0x3282 DUP3 PUSH2 0x2ACE JUMP JUMPDEST SWAP2 POP PUSH2 0x328D DUP4 PUSH2 0x2ACE JUMP JUMPDEST SWAP3 POP DUP3 PUSH32 0xFFFFFFFFFFFFFFFFFFFFFFFFFFFFFFFFFFFFFFFFFFFFFFFFFFFFFFFFFFFFFFFF SUB DUP3 GT ISZERO PUSH2 0x32C2 JUMPI PUSH2 0x32C1 PUSH2 0x3070 JUMP JUMPDEST JUMPDEST DUP3 DUP3 ADD SWAP1 POP SWAP3 SWAP2 POP POP JUMP JUMPDEST PUSH1 0x0 PUSH1 0x40 DUP3 ADD SWAP1 POP PUSH2 0x32E2 PUSH1 0x0 DUP4 ADD DUP6 PUSH2 0x2F7D JUMP JUMPDEST PUSH2 0x32EF PUSH1 0x20 DUP4 ADD DUP5 PUSH2 0x2AD8 JUMP JUMPDEST SWAP4 SWAP3 POP POP POP JUMP JUMPDEST PUSH32 0x4F776E61626C653A2063616C6C6572206973206E6F7420746865206F776E6572 PUSH1 0x0 DUP3 ADD MSTORE POP JUMP JUMPDEST PUSH1 0x0 PUSH2 0x332C PUSH1 0x20 DUP4 PUSH2 0x2A1E JUMP JUMPDEST SWAP2 POP PUSH2 0x3337 DUP3 PUSH2 0x32F6 JUMP JUMPDEST PUSH1 0x20 DUP3 ADD SWAP1 POP SWAP2 SWAP1 POP JUMP JUMPDEST PUSH1 0x0 PUSH1 0x20 DUP3 ADD SWAP1 POP DUP2 DUP2 SUB PUSH1 0x0 DUP4 ADD MSTORE PUSH2 0x335B DUP2 PUSH2 0x331F JUMP JUMPDEST SWAP1 POP SWAP2 SWAP1 POP JUMP JUMPDEST PUSH32 0x4E487B7100000000000000000000000000000000000000000000000000000000 PUSH1 0x0 MSTORE PUSH1 0x32 PUSH1 0x4 MSTORE PUSH1 0x24 PUSH1 0x0 REVERT JUMPDEST PUSH1 0x0 PUSH2 0x339C DUP3 PUSH2 0x2ACE JUMP JUMPDEST SWAP2 POP PUSH32 0xFFFFFFFFFFFFFFFFFFFFFFFFFFFFFFFFFFFFFFFFFFFFFFFFFFFFFFFFFFFFFFFF DUP3 SUB PUSH2 0x33CE JUMPI PUSH2 0x33CD PUSH2 0x3070 JUMP JUMPDEST JUMPDEST PUSH1 0x1 DUP3 ADD SWAP1 POP SWAP2 SWAP1 POP JUMP JUMPDEST PUSH1 0x0 PUSH2 0x33E4 DUP3 PUSH2 0x2ACE JUMP JUMPDEST SWAP2 POP PUSH2 0x33EF DUP4 PUSH2 0x2ACE JUMP JUMPDEST SWAP3 POP DUP3 DUP3 LT ISZERO PUSH2 0x3402 JUMPI PUSH2 0x3401 PUSH2 0x3070 JUMP JUMPDEST JUMPDEST DUP3 DUP3 SUB SWAP1 POP SWAP3 SWAP2 POP POP JUMP JUMPDEST PUSH32 0x45524332303A2064656372656173656420616C6C6F77616E63652062656C6F77 PUSH1 0x0 DUP3 ADD MSTORE PUSH32 0x207A65726F000000000000000000000000000000000000000000000000000000 PUSH1 0x20 DUP3 ADD MSTORE POP JUMP JUMPDEST PUSH1 0x0 PUSH2 0x3469 PUSH1 0x25 DUP4 PUSH2 0x2A1E JUMP JUMPDEST SWAP2 POP PUSH2 0x3474 DUP3 PUSH2 0x340D JUMP JUMPDEST PUSH1 0x40 DUP3 ADD SWAP1 POP SWAP2 SWAP1 POP JUMP JUMPDEST PUSH1 0x0 PUSH1 0x20 DUP3 ADD SWAP1 POP DUP2 DUP2 SUB PUSH1 0x0 DUP4 ADD MSTORE PUSH2 0x3498 DUP2 PUSH2 0x345C JUMP JUMPDEST SWAP1 POP SWAP2 SWAP1 POP JUMP JUMPDEST PUSH32 0x4F776E61626C653A206E6577206F776E657220697320746865207A65726F2061 PUSH1 0x0 DUP3 ADD MSTORE PUSH32 0x6464726573730000000000000000000000000000000000000000000000000000 PUSH1 0x20 DUP3 ADD MSTORE POP JUMP JUMPDEST PUSH1 0x0 PUSH2 0x34FB PUSH1 0x26 DUP4 PUSH2 0x2A1E JUMP JUMPDEST SWAP2 POP PUSH2 0x3506 DUP3 PUSH2 0x349F JUMP JUMPDEST PUSH1 0x40 DUP3 ADD SWAP1 POP SWAP2 SWAP1 POP JUMP JUMPDEST PUSH1 0x0 PUSH1 0x20 DUP3 ADD SWAP1 POP DUP2 DUP2 SUB PUSH1 0x0 DUP4 ADD MSTORE PUSH2 0x352A DUP2 PUSH2 0x34EE JUMP JUMPDEST SWAP1 POP SWAP2 SWAP1 POP JUMP JUMPDEST PUSH32 0x45524332303A20617070726F76652066726F6D20746865207A65726F20616464 PUSH1 0x0 DUP3 ADD MSTORE PUSH32 0x7265737300000000000000000000000000000000000000000000000000000000 PUSH1 0x20 DUP3 ADD MSTORE POP JUMP JUMPDEST PUSH1 0x0 PUSH2 0x358D PUSH1 0x24 DUP4 PUSH2 0x2A1E JUMP JUMPDEST SWAP2 POP PUSH2 0x3598 DUP3 PUSH2 0x3531 JUMP JUMPDEST PUSH1 0x40 DUP3 ADD SWAP1 POP SWAP2 SWAP1 POP JUMP JUMPDEST PUSH1 0x0 PUSH1 0x20 DUP3 ADD SWAP1 POP DUP2 DUP2 SUB PUSH1 0x0 DUP4 ADD MSTORE PUSH2 0x35BC DUP2 PUSH2 0x3580 JUMP JUMPDEST SWAP1 POP SWAP2 SWAP1 POP JUMP JUMPDEST PUSH32 0x45524332303A20617070726F766520746F20746865207A65726F206164647265 PUSH1 0x0 DUP3 ADD MSTORE PUSH32 0x7373000000000000000000000000000000000000000000000000000000000000 PUSH1 0x20 DUP3 ADD MSTORE POP JUMP JUMPDEST PUSH1 0x0 PUSH2 0x361F PUSH1 0x22 DUP4 PUSH2 0x2A1E JUMP JUMPDEST SWAP2 POP PUSH2 0x362A DUP3 PUSH2 0x35C3 JUMP JUMPDEST PUSH1 0x40 DUP3 ADD SWAP1 POP SWAP2 SWAP1 POP JUMP JUMPDEST PUSH1 0x0 PUSH1 0x20 DUP3 ADD SWAP1 POP DUP2 DUP2 SUB PUSH1 0x0 DUP4 ADD MSTORE PUSH2 0x364E DUP2 PUSH2 0x3612 JUMP JUMPDEST SWAP1 POP SWAP2 SWAP1 POP JUMP JUMPDEST PUSH32 0x45524332303A206275726E2066726F6D20746865207A65726F20616464726573 PUSH1 0x0 DUP3 ADD MSTORE PUSH32 0x7300000000000000000000000000000000000000000000000000000000000000 PUSH1 0x20 DUP3 ADD MSTORE POP JUMP JUMPDEST PUSH1 0x0 PUSH2 0x36B1 PUSH1 0x21 DUP4 PUSH2 0x2A1E JUMP JUMPDEST SWAP2 POP PUSH2 0x36BC DUP3 PUSH2 0x3655 JUMP JUMPDEST PUSH1 0x40 DUP3 ADD SWAP1 POP SWAP2 SWAP1 POP JUMP JUMPDEST PUSH1 0x0 PUSH1 0x20 DUP3 ADD SWAP1 POP DUP2 DUP2 SUB PUSH1 0x0 DUP4 ADD MSTORE PUSH2 0x36E0 DUP2 PUSH2 0x36A4 JUMP JUMPDEST SWAP1 POP SWAP2 SWAP1 POP JUMP JUMPDEST PUSH32 0x45524332303A206275726E20616D6F756E7420657863656564732062616C616E PUSH1 0x0 DUP3 ADD MSTORE PUSH32 0x6365000000000000000000000000000000000000000000000000000000000000 PUSH1 0x20 DUP3 ADD MSTORE POP JUMP JUMPDEST PUSH1 0x0 PUSH2 0x3743 PUSH1 0x22 DUP4 PUSH2 0x2A1E JUMP JUMPDEST SWAP2 POP PUSH2 0x374E DUP3 PUSH2 0x36E7 JUMP JUMPDEST PUSH1 0x40 DUP3 ADD SWAP1 POP SWAP2 SWAP1 POP JUMP JUMPDEST PUSH1 0x0 PUSH1 0x20 DUP3 ADD SWAP1 POP DUP2 DUP2 SUB PUSH1 0x0 DUP4 ADD MSTORE PUSH2 0x3772 DUP2 PUSH2 0x3736 JUMP JUMPDEST SWAP1 POP SWAP2 SWAP1 POP JUMP JUMPDEST PUSH32 0x4E487B7100000000000000000000000000000000000000000000000000000000 PUSH1 0x0 MSTORE PUSH1 0x12 PUSH1 0x4 MSTORE PUSH1 0x24 PUSH1 0x0 REVERT JUMPDEST PUSH1 0x0 PUSH2 0x37B3 DUP3 PUSH2 0x2ACE JUMP JUMPDEST SWAP2 POP PUSH2 0x37BE DUP4 PUSH2 0x2ACE JUMP JUMPDEST SWAP3 POP DUP3 PUSH2 0x37CE JUMPI PUSH2 0x37CD PUSH2 0x3779 JUMP JUMPDEST JUMPDEST DUP3 DUP3 DIV SWAP1 POP SWAP3 SWAP2 POP POP JUMP JUMPDEST PUSH32 0x45524332303A20696E73756666696369656E7420616C6C6F77616E6365000000 PUSH1 0x0 DUP3 ADD MSTORE POP JUMP JUMPDEST PUSH1 0x0 PUSH2 0x380F PUSH1 0x1D DUP4 PUSH2 0x2A1E JUMP JUMPDEST SWAP2 POP PUSH2 0x381A DUP3 PUSH2 0x37D9 JUMP JUMPDEST PUSH1 0x20 DUP3 ADD SWAP1 POP SWAP2 SWAP1 POP JUMP JUMPDEST PUSH1 0x0 PUSH1 0x20 DUP3 ADD SWAP1 POP DUP2 DUP2 SUB PUSH1 0x0 DUP4 ADD MSTORE PUSH2 0x383E DUP2 PUSH2 0x3802 JUMP JUMPDEST SWAP1 POP SWAP2 SWAP1 POP JUMP JUMPDEST PUSH32 0x45524332303A207472616E736665722066726F6D20746865207A65726F206164 PUSH1 0x0 DUP3 ADD MSTORE PUSH32 0x6472657373000000000000000000000000000000000000000000000000000000 PUSH1 0x20 DUP3 ADD MSTORE POP JUMP JUMPDEST PUSH1 0x0 PUSH2 0x38A1 PUSH1 0x25 DUP4 PUSH2 0x2A1E JUMP JUMPDEST SWAP2 POP PUSH2 0x38AC DUP3 PUSH2 0x3845 JUMP JUMPDEST PUSH1 0x40 DUP3 ADD SWAP1 POP SWAP2 SWAP1 POP JUMP JUMPDEST PUSH1 0x0 PUSH1 0x20 DUP3 ADD SWAP1 POP DUP2 DUP2 SUB PUSH1 0x0 DUP4 ADD MSTORE PUSH2 0x38D0 DUP2 PUSH2 0x3894 JUMP JUMPDEST SWAP1 POP SWAP2 SWAP1 POP JUMP JUMPDEST PUSH32 0x45524332303A207472616E7366657220746F20746865207A65726F2061646472 PUSH1 0x0 DUP3 ADD MSTORE PUSH32 0x6573730000000000000000000000000000000000000000000000000000000000 PUSH1 0x20 DUP3 ADD MSTORE POP JUMP JUMPDEST PUSH1 0x0 PUSH2 0x3933 PUSH1 0x23 DUP4 PUSH2 0x2A1E JUMP JUMPDEST SWAP2 POP PUSH2 0x393E DUP3 PUSH2 0x38D7 JUMP JUMPDEST PUSH1 0x40 DUP3 ADD SWAP1 POP SWAP2 SWAP1 POP JUMP JUMPDEST PUSH1 0x0 PUSH1 0x20 DUP3 ADD SWAP1 POP DUP2 DUP2 SUB PUSH1 0x0 DUP4 ADD MSTORE PUSH2 0x3962 DUP2 PUSH2 0x3926 JUMP JUMPDEST SWAP1 POP SWAP2 SWAP1 POP JUMP JUMPDEST PUSH32 0x45524332303A207472616E7366657220616D6F756E7420657863656564732062 PUSH1 0x0 DUP3 ADD MSTORE PUSH32 0x616C616E63650000000000000000000000000000000000000000000000000000 PUSH1 0x20 DUP3 ADD MSTORE POP JUMP JUMPDEST PUSH1 0x0 PUSH2 0x39C5 PUSH1 0x26 DUP4 PUSH2 0x2A1E JUMP JUMPDEST SWAP2 POP PUSH2 0x39D0 DUP3 PUSH2 0x3969 JUMP JUMPDEST PUSH1 0x40 DUP3 ADD SWAP1 POP SWAP2 SWAP1 POP JUMP JUMPDEST PUSH1 0x0 PUSH1 0x20 DUP3 ADD SWAP1 POP DUP2 DUP2 SUB PUSH1 0x0 DUP4 ADD MSTORE PUSH2 0x39F4 DUP2 PUSH2 0x39B8 JUMP JUMPDEST SWAP1 POP SWAP2 SWAP1 POP JUMP JUMPDEST PUSH32 0x5061757361626C653A206E6F7420706175736564000000000000000000000000 PUSH1 0x0 DUP3 ADD MSTORE POP JUMP JUMPDEST PUSH1 0x0 PUSH2 0x3A31 PUSH1 0x14 DUP4 PUSH2 0x2A1E JUMP JUMPDEST SWAP2 POP PUSH2 0x3A3C DUP3 PUSH2 0x39FB JUMP JUMPDEST PUSH1 0x20 DUP3 ADD SWAP1 POP SWAP2 SWAP1 POP JUMP JUMPDEST PUSH1 0x0 PUSH1 0x20 DUP3 ADD SWAP1 POP DUP2 DUP2 SUB PUSH1 0x0 DUP4 ADD MSTORE PUSH2 0x3A60 DUP2 PUSH2 0x3A24 JUMP JUMPDEST SWAP1 POP SWAP2 SWAP1 POP JUMP JUMPDEST PUSH32 0x45524332303A206D696E7420746F20746865207A65726F206164647265737300 PUSH1 0x0 DUP3 ADD MSTORE POP JUMP JUMPDEST PUSH1 0x0 PUSH2 0x3A9D PUSH1 0x1F DUP4 PUSH2 0x2A1E JUMP JUMPDEST SWAP2 POP PUSH2 0x3AA8 DUP3 PUSH2 0x3A67 JUMP JUMPDEST PUSH1 0x20 DUP3 ADD SWAP1 POP SWAP2 SWAP1 POP JUMP JUMPDEST PUSH1 0x0 PUSH1 0x20 DUP3 ADD SWAP1 POP DUP2 DUP2 SUB PUSH1 0x0 DUP4 ADD MSTORE PUSH2 0x3ACC DUP2 PUSH2 0x3A90 JUMP JUMPDEST SWAP1 POP SWAP2 SWAP1 POP JUMP JUMPDEST PUSH32 0x4552433230536E617073686F743A206964206973203000000000000000000000 PUSH1 0x0 DUP3 ADD MSTORE POP JUMP JUMPDEST PUSH1 0x0 PUSH2 0x3B09 PUSH1 0x16 DUP4 PUSH2 0x2A1E JUMP JUMPDEST SWAP2 POP PUSH2 0x3B14 DUP3 PUSH2 0x3AD3 JUMP JUMPDEST PUSH1 0x20 DUP3 ADD SWAP1 POP SWAP2 SWAP1 POP JUMP JUMPDEST PUSH1 0x0 PUSH1 0x20 DUP3 ADD SWAP1 POP DUP2 DUP2 SUB PUSH1 0x0 DUP4 ADD MSTORE PUSH2 0x3B38 DUP2 PUSH2 0x3AFC JUMP JUMPDEST SWAP1 POP SWAP2 SWAP1 POP JUMP JUMPDEST PUSH32 0x4552433230536E617073686F743A206E6F6E6578697374656E74206964000000 PUSH1 0x0 DUP3 ADD MSTORE POP JUMP JUMPDEST PUSH1 0x0 PUSH2 0x3B75 PUSH1 0x1D DUP4 PUSH2 0x2A1E JUMP JUMPDEST SWAP2 POP PUSH2 0x3B80 DUP3 PUSH2 0x3B3F JUMP JUMPDEST PUSH1 0x20 DUP3 ADD SWAP1 POP SWAP2 SWAP1 POP JUMP JUMPDEST PUSH1 0x0 PUSH1 0x20 DUP3 ADD SWAP1 POP DUP2 DUP2 SUB PUSH1 0x0 DUP4 ADD MSTORE PUSH2 0x3BA4 DUP2 PUSH2 0x3B68 JUMP JUMPDEST SWAP1 POP SWAP2 SWAP1 POP JUMP JUMPDEST PUSH32 0x5061757361626C653A2070617573656400000000000000000000000000000000 PUSH1 0x0 DUP3 ADD MSTORE POP JUMP JUMPDEST PUSH1 0x0 PUSH2 0x3BE1 PUSH1 0x10 DUP4 PUSH2 0x2A1E JUMP JUMPDEST SWAP2 POP PUSH2 0x3BEC DUP3 PUSH2 0x3BAB JUMP JUMPDEST PUSH1 0x20 DUP3 ADD SWAP1 POP SWAP2 SWAP1 POP JUMP JUMPDEST PUSH1 0x0 PUSH1 0x20 DUP3 ADD SWAP1 POP DUP2 DUP2 SUB PUSH1 0x0 DUP4 ADD MSTORE PUSH2 0x3C10 DUP2 PUSH2 0x3BD4 JUMP JUMPDEST SWAP1 POP SWAP2 SWAP1 POP JUMP JUMPDEST PUSH32 0x4E487B7100000000000000000000000000000000000000000000000000000000 PUSH1 0x0 MSTORE PUSH1 0x31 PUSH1 0x4 MSTORE PUSH1 0x24 PUSH1 0x0 REVERT INVALID LOG2 PUSH5 0x6970667358 0x22 SLT KECCAK256 0xEB 0xC8 DIV 0xE3 0xC3 SUB 0xE SWAP7 0xCD 0xE2 PUSH28 0x823D3ABFDCA9963C068EFAF7FAD01CC7AAED7DB79864736F6C634300 ADDMOD 0xE STOP CALLER "
		},
		"gasEstimates": {
			"creation": {
				"codeDepositCost": "3096800",
				"executionCost": "infinite",
				"totalCost": "infinite"
			},
			"external": {
				"allowance(address,address)": "infinite",
				"approve(address,uint256)": "infinite",
				"balanceOf(address)": "2974",
				"balanceOfAt(address,uint256)": "infinite",
				"batch_transfer(address[],uint256[])": "infinite",
				"batchmint(address[],uint256[])": "infinite",
				"burn(uint256)": "infinite",
				"burnFrom(address,uint256)": "infinite",
				"changeMultiplier(uint256)": "infinite",
				"createStake(uint256)": "infinite",
				"decimals()": "455",
				"decreaseAllowance(address,uint256)": "infinite",
				"distributeRewards()": "infinite",
				"getsnapshotid()": "2590",
				"increaseAllowance(address,uint256)": "infinite",
				"isStakeholder(address)": "infinite",
				"mint(address,uint256)": "infinite",
				"name()": "infinite",
				"owner()": "2639",
				"pause()": "infinite",
				"paused()": "2568",
				"removeStake(uint256)": "infinite",
				"renounceOwnership()": "30570",
				"rewardOf(address)": "infinite",
				"snapshot()": "30263",
				"stakeOf(address)": "2959",
				"symbol()": "infinite",
				"totalSupply()": "2550",
				"totalSupplyAt(uint256)": "infinite",
				"transfer(address,uint256)": "infinite",
				"transferFrom(address,address,uint256)": "infinite",
				"transferOwnership(address)": "30980",
				"unpause()": "infinite",
				"withdrawReward()": "infinite",
				"withdrawsanskar(uint256)": "infinite"
			},
			"internal": {
				"_beforeTokenTransfer(address,address,uint256)": "infinite",
				"addStakeholder(address)": "infinite",
				"calculateReward(address)": "infinite",
				"removeStakeholder(address)": "infinite",
				"updateRewards(address)": "infinite"
			}
		},
		"methodIdentifiers": {
			"allowance(address,address)": "dd62ed3e",
			"approve(address,uint256)": "095ea7b3",
			"balanceOf(address)": "70a08231",
			"balanceOfAt(address,uint256)": "4ee2cd7e",
			"batch_transfer(address[],uint256[])": "833eccc5",
			"batchmint(address[],uint256[])": "795f7be9",
			"burn(uint256)": "42966c68",
			"burnFrom(address,uint256)": "79cc6790",
			"changeMultiplier(uint256)": "ced92670",
			"createStake(uint256)": "1bf6ddae",
			"decimals()": "313ce567",
			"decreaseAllowance(address,uint256)": "a457c2d7",
			"distributeRewards()": "6f4a2cd0",
			"getsnapshotid()": "079f8c2c",
			"increaseAllowance(address,uint256)": "39509351",
			"isStakeholder(address)": "ef037b90",
			"mint(address,uint256)": "40c10f19",
			"name()": "06fdde03",
			"owner()": "8da5cb5b",
			"pause()": "8456cb59",
			"paused()": "5c975abb",
			"removeStake(uint256)": "939624ab",
			"renounceOwnership()": "715018a6",
			"rewardOf(address)": "1d62ebd9",
			"snapshot()": "9711715a",
			"stakeOf(address)": "42623360",
			"symbol()": "95d89b41",
			"totalSupply()": "18160ddd",
			"totalSupplyAt(uint256)": "981b24d0",
			"transfer(address,uint256)": "a9059cbb",
			"transferFrom(address,address,uint256)": "23b872dd",
			"transferOwnership(address)": "f2fde38b",
			"unpause()": "3f4ba83a",
			"withdrawReward()": "c885bc58",
			"withdrawsanskar(uint256)": "f672f2c0"
		}
	},
	"abi": [
		{
			"inputs": [],
			"stateMutability": "nonpayable",
			"type": "constructor"
		},
		{
			"anonymous": false,
			"inputs": [
				{
					"indexed": true,
					"internalType": "address",
					"name": "owner",
					"type": "address"
				},
				{
					"indexed": true,
					"internalType": "address",
					"name": "spender",
					"type": "address"
				},
				{
					"indexed": false,
					"internalType": "uint256",
					"name": "value",
					"type": "uint256"
				}
			],
			"name": "Approval",
			"type": "event"
		},
		{
			"anonymous": false,
			"inputs": [
				{
					"indexed": true,
					"internalType": "address",
					"name": "previousOwner",
					"type": "address"
				},
				{
					"indexed": true,
					"internalType": "address",
					"name": "newOwner",
					"type": "address"
				}
			],
			"name": "OwnershipTransferred",
			"type": "event"
		},
		{
			"anonymous": false,
			"inputs": [
				{
					"indexed": false,
					"internalType": "address",
					"name": "account",
					"type": "address"
				}
			],
			"name": "Paused",
			"type": "event"
		},
		{
			"anonymous": false,
			"inputs": [
				{
					"indexed": false,
					"internalType": "address",
					"name": "from",
					"type": "address"
				},
				{
					"indexed": false,
					"internalType": "uint256",
					"name": "_reward",
					"type": "uint256"
				}
			],
			"name": "RewardWithdrawn",
			"type": "event"
		},
		{
			"anonymous": false,
			"inputs": [
				{
					"indexed": false,
					"internalType": "uint256",
					"name": "id",
					"type": "uint256"
				}
			],
			"name": "Snapshot",
			"type": "event"
		},
		{
			"anonymous": false,
			"inputs": [
				{
					"indexed": false,
					"internalType": "address",
					"name": "_from",
					"type": "address"
				},
				{
					"indexed": false,
					"internalType": "uint256",
					"name": "_stake",
					"type": "uint256"
				}
			],
			"name": "Staked",
			"type": "event"
		},
		{
			"anonymous": false,
			"inputs": [
				{
					"indexed": true,
					"internalType": "address",
					"name": "from",
					"type": "address"
				},
				{
					"indexed": true,
					"internalType": "address",
					"name": "to",
					"type": "address"
				},
				{
					"indexed": false,
					"internalType": "uint256",
					"name": "value",
					"type": "uint256"
				}
			],
			"name": "Transfer",
			"type": "event"
		},
		{
			"anonymous": false,
			"inputs": [
				{
					"indexed": false,
					"internalType": "address",
					"name": "account",
					"type": "address"
				}
			],
			"name": "Unpaused",
			"type": "event"
		},
		{
			"anonymous": false,
			"inputs": [
				{
					"indexed": false,
					"internalType": "address",
					"name": "_from",
					"type": "address"
				},
				{
					"indexed": false,
					"internalType": "uint256",
					"name": "_stake",
					"type": "uint256"
				}
			],
			"name": "Unstaked",
			"type": "event"
		},
		{
			"inputs": [
				{
					"internalType": "address",
					"name": "owner",
					"type": "address"
				},
				{
					"internalType": "address",
					"name": "spender",
					"type": "address"
				}
			],
			"name": "allowance",
			"outputs": [
				{
					"internalType": "uint256",
					"name": "",
					"type": "uint256"
				}
			],
			"stateMutability": "view",
			"type": "function"
		},
		{
			"inputs": [
				{
					"internalType": "address",
					"name": "spender",
					"type": "address"
				},
				{
					"internalType": "uint256",
					"name": "amount",
					"type": "uint256"
				}
			],
			"name": "approve",
			"outputs": [
				{
					"internalType": "bool",
					"name": "",
					"type": "bool"
				}
			],
			"stateMutability": "nonpayable",
			"type": "function"
		},
		{
			"inputs": [
				{
					"internalType": "address",
					"name": "account",
					"type": "address"
				}
			],
			"name": "balanceOf",
			"outputs": [
				{
					"internalType": "uint256",
					"name": "",
					"type": "uint256"
				}
			],
			"stateMutability": "view",
			"type": "function"
		},
		{
			"inputs": [
				{
					"internalType": "address",
					"name": "account",
					"type": "address"
				},
				{
					"internalType": "uint256",
					"name": "snapshotId",
					"type": "uint256"
				}
			],
			"name": "balanceOfAt",
			"outputs": [
				{
					"internalType": "uint256",
					"name": "",
					"type": "uint256"
				}
			],
			"stateMutability": "view",
			"type": "function"
		},
		{
			"inputs": [
				{
					"internalType": "address[]",
					"name": "recipents",
					"type": "address[]"
				},
				{
					"internalType": "uint256[]",
					"name": "amounts",
					"type": "uint256[]"
				}
			],
			"name": "batch_transfer",
			"outputs": [],
			"stateMutability": "nonpayable",
			"type": "function"
		},
		{
			"inputs": [
				{
					"internalType": "address[]",
					"name": "to",
					"type": "address[]"
				},
				{
					"internalType": "uint256[]",
					"name": "amounts",
					"type": "uint256[]"
				}
			],
			"name": "batchmint",
			"outputs": [],
			"stateMutability": "nonpayable",
			"type": "function"
		},
		{
			"inputs": [
				{
					"internalType": "uint256",
					"name": "amount",
					"type": "uint256"
				}
			],
			"name": "burn",
			"outputs": [],
			"stateMutability": "nonpayable",
			"type": "function"
		},
		{
			"inputs": [
				{
					"internalType": "address",
					"name": "account",
					"type": "address"
				},
				{
					"internalType": "uint256",
					"name": "amount",
					"type": "uint256"
				}
			],
			"name": "burnFrom",
			"outputs": [],
			"stateMutability": "nonpayable",
			"type": "function"
		},
		{
			"inputs": [
				{
					"internalType": "uint256",
					"name": "_newMultiplier",
					"type": "uint256"
				}
			],
			"name": "changeMultiplier",
			"outputs": [],
			"stateMutability": "nonpayable",
			"type": "function"
		},
		{
			"inputs": [
				{
					"internalType": "uint256",
					"name": "_stake",
					"type": "uint256"
				}
			],
			"name": "createStake",
			"outputs": [],
			"stateMutability": "nonpayable",
			"type": "function"
		},
		{
			"inputs": [],
			"name": "decimals",
			"outputs": [
				{
					"internalType": "uint8",
					"name": "",
					"type": "uint8"
				}
			],
			"stateMutability": "view",
			"type": "function"
		},
		{
			"inputs": [
				{
					"internalType": "address",
					"name": "spender",
					"type": "address"
				},
				{
					"internalType": "uint256",
					"name": "subtractedValue",
					"type": "uint256"
				}
			],
			"name": "decreaseAllowance",
			"outputs": [
				{
					"internalType": "bool",
					"name": "",
					"type": "bool"
				}
			],
			"stateMutability": "nonpayable",
			"type": "function"
		},
		{
			"inputs": [],
			"name": "distributeRewards",
			"outputs": [],
			"stateMutability": "nonpayable",
			"type": "function"
		},
		{
			"inputs": [],
			"name": "getsnapshotid",
			"outputs": [
				{
					"internalType": "uint256",
					"name": "",
					"type": "uint256"
				}
			],
			"stateMutability": "view",
			"type": "function"
		},
		{
			"inputs": [
				{
					"internalType": "address",
					"name": "spender",
					"type": "address"
				},
				{
					"internalType": "uint256",
					"name": "addedValue",
					"type": "uint256"
				}
			],
			"name": "increaseAllowance",
			"outputs": [
				{
					"internalType": "bool",
					"name": "",
					"type": "bool"
				}
			],
			"stateMutability": "nonpayable",
			"type": "function"
		},
		{
			"inputs": [
				{
					"internalType": "address",
					"name": "_address",
					"type": "address"
				}
			],
			"name": "isStakeholder",
			"outputs": [
				{
					"internalType": "bool",
					"name": "",
					"type": "bool"
				},
				{
					"internalType": "uint256",
					"name": "",
					"type": "uint256"
				}
			],
			"stateMutability": "view",
			"type": "function"
		},
		{
			"inputs": [
				{
					"internalType": "address",
					"name": "to",
					"type": "address"
				},
				{
					"internalType": "uint256",
					"name": "amount",
					"type": "uint256"
				}
			],
			"name": "mint",
			"outputs": [],
			"stateMutability": "nonpayable",
			"type": "function"
		},
		{
			"inputs": [],
			"name": "name",
			"outputs": [
				{
					"internalType": "string",
					"name": "",
					"type": "string"
				}
			],
			"stateMutability": "view",
			"type": "function"
		},
		{
			"inputs": [],
			"name": "owner",
			"outputs": [
				{
					"internalType": "address",
					"name": "",
					"type": "address"
				}
			],
			"stateMutability": "view",
			"type": "function"
		},
		{
			"inputs": [],
			"name": "pause",
			"outputs": [],
			"stateMutability": "nonpayable",
			"type": "function"
		},
		{
			"inputs": [],
			"name": "paused",
			"outputs": [
				{
					"internalType": "bool",
					"name": "",
					"type": "bool"
				}
			],
			"stateMutability": "view",
			"type": "function"
		},
		{
			"inputs": [
				{
					"internalType": "uint256",
					"name": "_stake",
					"type": "uint256"
				}
			],
			"name": "removeStake",
			"outputs": [],
			"stateMutability": "nonpayable",
			"type": "function"
		},
		{
			"inputs": [],
			"name": "renounceOwnership",
			"outputs": [],
			"stateMutability": "nonpayable",
			"type": "function"
		},
		{
			"inputs": [
				{
					"internalType": "address",
					"name": "_stakeholder",
					"type": "address"
				}
			],
			"name": "rewardOf",
			"outputs": [
				{
					"internalType": "uint256",
					"name": "",
					"type": "uint256"
				}
			],
			"stateMutability": "view",
			"type": "function"
		},
		{
			"inputs": [],
			"name": "snapshot",
			"outputs": [],
			"stateMutability": "nonpayable",
			"type": "function"
		},
		{
			"inputs": [
				{
					"internalType": "address",
					"name": "_stakeholder",
					"type": "address"
				}
			],
			"name": "stakeOf",
			"outputs": [
				{
					"internalType": "uint256",
					"name": "",
					"type": "uint256"
				}
			],
			"stateMutability": "view",
			"type": "function"
		},
		{
			"inputs": [],
			"name": "symbol",
			"outputs": [
				{
					"internalType": "string",
					"name": "",
					"type": "string"
				}
			],
			"stateMutability": "view",
			"type": "function"
		},
		{
			"inputs": [],
			"name": "totalSupply",
			"outputs": [
				{
					"internalType": "uint256",
					"name": "",
					"type": "uint256"
				}
			],
			"stateMutability": "view",
			"type": "function"
		},
		{
			"inputs": [
				{
					"internalType": "uint256",
					"name": "snapshotId",
					"type": "uint256"
				}
			],
			"name": "totalSupplyAt",
			"outputs": [
				{
					"internalType": "uint256",
					"name": "",
					"type": "uint256"
				}
			],
			"stateMutability": "view",
			"type": "function"
		},
		{
			"inputs": [
				{
					"internalType": "address",
					"name": "to",
					"type": "address"
				},
				{
					"internalType": "uint256",
					"name": "amount",
					"type": "uint256"
				}
			],
			"name": "transfer",
			"outputs": [
				{
					"internalType": "bool",
					"name": "",
					"type": "bool"
				}
			],
			"stateMutability": "nonpayable",
			"type": "function"
		},
		{
			"inputs": [
				{
					"internalType": "address",
					"name": "from",
					"type": "address"
				},
				{
					"internalType": "address",
					"name": "to",
					"type": "address"
				},
				{
					"internalType": "uint256",
					"name": "amount",
					"type": "uint256"
				}
			],
			"name": "transferFrom",
			"outputs": [
				{
					"internalType": "bool",
					"name": "",
					"type": "bool"
				}
			],
			"stateMutability": "nonpayable",
			"type": "function"
		},
		{
			"inputs": [
				{
					"internalType": "address",
					"name": "newOwner",
					"type": "address"
				}
			],
			"name": "transferOwnership",
			"outputs": [],
			"stateMutability": "nonpayable",
			"type": "function"
		},
		{
			"inputs": [],
			"name": "unpause",
			"outputs": [],
			"stateMutability": "nonpayable",
			"type": "function"
		},
		{
			"inputs": [],
			"name": "withdrawReward",
			"outputs": [],
			"stateMutability": "nonpayable",
			"type": "function"
		},
		{
			"inputs": [
				{
					"internalType": "uint256",
					"name": "amount",
					"type": "uint256"
				}
			],
			"name": "withdrawsanskar",
			"outputs": [],
			"stateMutability": "nonpayable",
			"type": "function"
		}
	]
}